{
	"CropSupplyChain.sol": {
		"CropSupplyChain": {
			"abi": [
				{
					"inputs": [],
					"stateMutability": "nonpayable",
					"type": "constructor"
				},
				{
					"inputs": [
						{
							"internalType": "string",
							"name": "_name",
							"type": "string"
						},
						{
							"internalType": "uint256",
							"name": "_quantity",
							"type": "uint256"
						},
						{
							"internalType": "uint256",
							"name": "_lifespan",
							"type": "uint256"
						}
					],
					"name": "addCrop",
					"outputs": [
						{
							"internalType": "uint256",
							"name": "",
							"type": "uint256"
						}
					],
					"stateMutability": "nonpayable",
					"type": "function"
				},
				{
					"inputs": [],
					"name": "cropCount",
					"outputs": [
						{
							"internalType": "uint256",
							"name": "",
							"type": "uint256"
						}
					],
					"stateMutability": "view",
					"type": "function"
				},
				{
					"inputs": [
						{
							"internalType": "uint256",
							"name": "",
							"type": "uint256"
						}
					],
					"name": "crops",
					"outputs": [
						{
							"internalType": "uint256",
							"name": "id",
							"type": "uint256"
						},
						{
							"internalType": "string",
							"name": "name",
							"type": "string"
						},
						{
							"internalType": "uint256",
							"name": "quantity",
							"type": "uint256"
						},
						{
							"internalType": "uint256",
							"name": "lifespan",
							"type": "uint256"
						},
						{
							"internalType": "uint256",
							"name": "timestamp",
							"type": "uint256"
						},
						{
							"internalType": "address",
							"name": "farmer",
							"type": "address"
						},
						{
							"internalType": "address",
							"name": "distributor",
							"type": "address"
						},
						{
							"internalType": "address",
							"name": "wholesaler",
							"type": "address"
						},
						{
							"internalType": "address",
							"name": "shopkeeper",
							"type": "address"
						},
						{
							"internalType": "address",
							"name": "consumer",
							"type": "address"
						}
					],
					"stateMutability": "view",
					"type": "function"
				},
				{
					"inputs": [
						{
							"internalType": "uint256",
							"name": "_cropId",
							"type": "uint256"
						},
						{
							"internalType": "address",
							"name": "_distributor",
							"type": "address"
						},
						{
							"internalType": "address",
							"name": "_wholesaler",
							"type": "address"
						},
						{
							"internalType": "address",
							"name": "_shopkeeper",
							"type": "address"
						},
						{
							"internalType": "address",
							"name": "_consumer",
							"type": "address"
						}
					],
					"name": "distributeCrop",
					"outputs": [],
					"stateMutability": "nonpayable",
					"type": "function"
				},
				{
					"inputs": [
						{
							"internalType": "uint256",
							"name": "_cropId",
							"type": "uint256"
						}
					],
					"name": "getCrop",
					"outputs": [
						{
							"internalType": "uint256",
							"name": "",
							"type": "uint256"
						},
						{
							"internalType": "string",
							"name": "",
							"type": "string"
						},
						{
							"internalType": "uint256",
							"name": "",
							"type": "uint256"
						},
						{
							"internalType": "uint256",
							"name": "",
							"type": "uint256"
						},
						{
							"internalType": "uint256",
							"name": "",
							"type": "uint256"
						},
						{
							"internalType": "address",
							"name": "",
							"type": "address"
						},
						{
							"internalType": "address",
							"name": "",
							"type": "address"
						},
						{
							"internalType": "address",
							"name": "",
							"type": "address"
						},
						{
							"internalType": "address",
							"name": "",
							"type": "address"
						},
						{
							"internalType": "address",
							"name": "",
							"type": "address"
						}
					],
					"stateMutability": "view",
					"type": "function"
				},
				{
					"inputs": [
						{
							"internalType": "uint256",
							"name": "_cropId",
							"type": "uint256"
						}
					],
					"name": "getFreshness",
					"outputs": [
						{
							"internalType": "uint256",
							"name": "",
							"type": "uint256"
						}
					],
					"stateMutability": "view",
					"type": "function"
				},
				{
					"inputs": [
						{
							"internalType": "uint256",
							"name": "_cropId",
							"type": "uint256"
						},
						{
							"internalType": "uint256",
							"name": "_quantity",
							"type": "uint256"
						},
						{
							"internalType": "uint256",
							"name": "_lifespan",
							"type": "uint256"
						}
					],
					"name": "updateCrop",
					"outputs": [],
					"stateMutability": "nonpayable",
					"type": "function"
				}
			],
			"devdoc": {
				"kind": "dev",
				"methods": {},
				"version": 1
			},
			"evm": {
				"assembly": "    /* \"CropSupplyChain.sol\":60:2754  contract CropSupplyChain {... */\n  mstore(0x40, 0x80)\n    /* \"CropSupplyChain.sol\":476:522  constructor() {... */\n  callvalue\n  dup1\n  iszero\n  tag_1\n  jumpi\n  0x00\n  dup1\n  revert\ntag_1:\n  pop\n    /* \"CropSupplyChain.sol\":513:514  0 */\n  0x00\n    /* \"CropSupplyChain.sol\":501:510  cropCount */\n  0x01\n    /* \"CropSupplyChain.sol\":501:514  cropCount = 0 */\n  dup2\n  swap1\n  sstore\n  pop\n    /* \"CropSupplyChain.sol\":60:2754  contract CropSupplyChain {... */\n  dataSize(sub_0)\n  dup1\n  dataOffset(sub_0)\n  0x00\n  codecopy\n  0x00\n  return\nstop\n\nsub_0: assembly {\n        /* \"CropSupplyChain.sol\":60:2754  contract CropSupplyChain {... */\n      mstore(0x40, 0x80)\n      callvalue\n      dup1\n      iszero\n      tag_1\n      jumpi\n      0x00\n      dup1\n      revert\n    tag_1:\n      pop\n      jumpi(tag_2, lt(calldatasize, 0x04))\n      shr(0xe0, calldataload(0x00))\n      dup1\n      0x70c9f1a5\n      gt\n      tag_10\n      jumpi\n      dup1\n      0x70c9f1a5\n      eq\n      tag_6\n      jumpi\n      dup1\n      0x8bc7fa9c\n      eq\n      tag_7\n      jumpi\n      dup1\n      0x92e7aa38\n      eq\n      tag_8\n      jumpi\n      dup1\n      0xdfd55a2c\n      eq\n      tag_9\n      jumpi\n      jump(tag_2)\n    tag_10:\n      dup1\n      0x32780856\n      eq\n      tag_3\n      jumpi\n      dup1\n      0x4e3c5452\n      eq\n      tag_4\n      jumpi\n      dup1\n      0x6c662918\n      eq\n      tag_5\n      jumpi\n    tag_2:\n      0x00\n      dup1\n      revert\n        /* \"CropSupplyChain.sol\":1648:2047  function updateCrop(uint256 _cropId, uint256 _quantity, uint256 _lifespan) public {... */\n    tag_3:\n      tag_11\n      0x04\n      dup1\n      calldatasize\n      sub\n      dup2\n      add\n      swap1\n      tag_12\n      swap2\n      swap1\n      tag_13\n      jump\t// in\n    tag_12:\n      tag_14\n      jump\t// in\n    tag_11:\n      stop\n        /* \"CropSupplyChain.sol\":2431:2751  function getFreshness(uint256 _cropId) public view returns (uint256) {... */\n    tag_4:\n      tag_15\n      0x04\n      dup1\n      calldatasize\n      sub\n      dup2\n      add\n      swap1\n      tag_16\n      swap2\n      swap1\n      tag_17\n      jump\t// in\n    tag_16:\n      tag_18\n      jump\t// in\n    tag_15:\n      mload(0x40)\n      tag_19\n      swap2\n      swap1\n      tag_20\n      jump\t// in\n    tag_19:\n      mload(0x40)\n      dup1\n      swap2\n      sub\n      swap1\n      return\n        /* \"CropSupplyChain.sol\":530:842  function addCrop(string memory _name, uint256 _quantity, uint256 _lifespan) public returns (uint256) {... */\n    tag_5:\n      tag_21\n      0x04\n      dup1\n      calldatasize\n      sub\n      dup2\n      add\n      swap1\n      tag_22\n      swap2\n      swap1\n      tag_23\n      jump\t// in\n    tag_22:\n      tag_24\n      jump\t// in\n    tag_21:\n      mload(0x40)\n      tag_25\n      swap2\n      swap1\n      tag_20\n      jump\t// in\n    tag_25:\n      mload(0x40)\n      dup1\n      swap2\n      sub\n      swap1\n      return\n        /* \"CropSupplyChain.sol\":396:434  mapping (uint256 => Crop) public crops */\n    tag_6:\n      tag_26\n      0x04\n      dup1\n      calldatasize\n      sub\n      dup2\n      add\n      swap1\n      tag_27\n      swap2\n      swap1\n      tag_17\n      jump\t// in\n    tag_27:\n      tag_28\n      jump\t// in\n    tag_26:\n      mload(0x40)\n      tag_29\n      swap11\n      swap10\n      swap9\n      swap8\n      swap7\n      swap6\n      swap5\n      swap4\n      swap3\n      swap2\n      swap1\n      tag_30\n      jump\t// in\n    tag_29:\n      mload(0x40)\n      dup1\n      swap2\n      sub\n      swap1\n      return\n        /* \"CropSupplyChain.sol\":2055:2423  function getCrop(uint256 _cropId) public view returns (uint256, string memory, uint256, uint256, uint256, address, address, address, address, address) {... */\n    tag_7:\n      tag_31\n      0x04\n      dup1\n      calldatasize\n      sub\n      dup2\n      add\n      swap1\n      tag_32\n      swap2\n      swap1\n      tag_17\n      jump\t// in\n    tag_32:\n      tag_33\n      jump\t// in\n    tag_31:\n      mload(0x40)\n      tag_34\n      swap11\n      swap10\n      swap9\n      swap8\n      swap7\n      swap6\n      swap5\n      swap4\n      swap3\n      swap2\n      swap1\n      tag_30\n      jump\t// in\n    tag_34:\n      mload(0x40)\n      dup1\n      swap2\n      sub\n      swap1\n      return\n        /* \"CropSupplyChain.sol\":850:1640  function distributeCrop(uint256 _cropId, address _distributor, address _wholesaler, address _shopkeeper, address _consumer) public {... */\n    tag_8:\n      tag_35\n      0x04\n      dup1\n      calldatasize\n      sub\n      dup2\n      add\n      swap1\n      tag_36\n      swap2\n      swap1\n      tag_37\n      jump\t// in\n    tag_36:\n      tag_38\n      jump\t// in\n    tag_35:\n      stop\n        /* \"CropSupplyChain.sol\":443:467  uint256 public cropCount */\n    tag_9:\n      tag_39\n      tag_40\n      jump\t// in\n    tag_39:\n      mload(0x40)\n      tag_41\n      swap2\n      swap1\n      tag_20\n      jump\t// in\n    tag_41:\n      mload(0x40)\n      dup1\n      swap2\n      sub\n      swap1\n      return\n        /* \"CropSupplyChain.sol\":1648:2047  function updateCrop(uint256 _cropId, uint256 _quantity, uint256 _lifespan) public {... */\n    tag_14:\n        /* \"CropSupplyChain.sol\":1741:1758  Crop storage crop */\n      0x00\n        /* \"CropSupplyChain.sol\":1761:1766  crops */\n      dup1\n        /* \"CropSupplyChain.sol\":1761:1775  crops[_cropId] */\n      0x00\n        /* \"CropSupplyChain.sol\":1767:1774  _cropId */\n      dup6\n        /* \"CropSupplyChain.sol\":1761:1775  crops[_cropId] */\n      dup2\n      mstore\n      0x20\n      add\n      swap1\n      dup2\n      mstore\n      0x20\n      add\n      0x00\n      keccak256\n        /* \"CropSupplyChain.sol\":1741:1775  Crop storage crop = crops[_cropId] */\n      swap1\n      pop\n        /* \"CropSupplyChain.sol\":1808:1812  crop */\n      dup1\n        /* \"CropSupplyChain.sol\":1808:1819  crop.farmer */\n      0x05\n      add\n      0x00\n      swap1\n      sload\n      swap1\n      0x0100\n      exp\n      swap1\n      div\n      0xffffffffffffffffffffffffffffffffffffffff\n      and\n        /* \"CropSupplyChain.sol\":1794:1819  msg.sender == crop.farmer */\n      0xffffffffffffffffffffffffffffffffffffffff\n      and\n        /* \"CropSupplyChain.sol\":1794:1804  msg.sender */\n      caller\n        /* \"CropSupplyChain.sol\":1794:1819  msg.sender == crop.farmer */\n      0xffffffffffffffffffffffffffffffffffffffff\n      and\n      eq\n        /* \"CropSupplyChain.sol\":1794:1853  msg.sender == crop.farmer || msg.sender == crop.distributor */\n      dup1\n      tag_43\n      jumpi\n      pop\n        /* \"CropSupplyChain.sol\":1837:1841  crop */\n      dup1\n        /* \"CropSupplyChain.sol\":1837:1853  crop.distributor */\n      0x06\n      add\n      0x00\n      swap1\n      sload\n      swap1\n      0x0100\n      exp\n      swap1\n      div\n      0xffffffffffffffffffffffffffffffffffffffff\n      and\n        /* \"CropSupplyChain.sol\":1823:1853  msg.sender == crop.distributor */\n      0xffffffffffffffffffffffffffffffffffffffff\n      and\n        /* \"CropSupplyChain.sol\":1823:1833  msg.sender */\n      caller\n        /* \"CropSupplyChain.sol\":1823:1853  msg.sender == crop.distributor */\n      0xffffffffffffffffffffffffffffffffffffffff\n      and\n      eq\n        /* \"CropSupplyChain.sol\":1794:1853  msg.sender == crop.farmer || msg.sender == crop.distributor */\n    tag_43:\n        /* \"CropSupplyChain.sol\":1794:1886  msg.sender == crop.farmer || msg.sender == crop.distributor || msg.sender == crop.wholesaler */\n      dup1\n      tag_44\n      jumpi\n      pop\n        /* \"CropSupplyChain.sol\":1871:1875  crop */\n      dup1\n        /* \"CropSupplyChain.sol\":1871:1886  crop.wholesaler */\n      0x07\n      add\n      0x00\n      swap1\n      sload\n      swap1\n      0x0100\n      exp\n      swap1\n      div\n      0xffffffffffffffffffffffffffffffffffffffff\n      and\n        /* \"CropSupplyChain.sol\":1857:1886  msg.sender == crop.wholesaler */\n      0xffffffffffffffffffffffffffffffffffffffff\n      and\n        /* \"CropSupplyChain.sol\":1857:1867  msg.sender */\n      caller\n        /* \"CropSupplyChain.sol\":1857:1886  msg.sender == crop.wholesaler */\n      0xffffffffffffffffffffffffffffffffffffffff\n      and\n      eq\n        /* \"CropSupplyChain.sol\":1794:1886  msg.sender == crop.farmer || msg.sender == crop.distributor || msg.sender == crop.wholesaler */\n    tag_44:\n        /* \"CropSupplyChain.sol\":1794:1919  msg.sender == crop.farmer || msg.sender == crop.distributor || msg.sender == crop.wholesaler || msg.sender == crop.shopkeeper */\n      dup1\n      tag_45\n      jumpi\n      pop\n        /* \"CropSupplyChain.sol\":1904:1908  crop */\n      dup1\n        /* \"CropSupplyChain.sol\":1904:1919  crop.shopkeeper */\n      0x08\n      add\n      0x00\n      swap1\n      sload\n      swap1\n      0x0100\n      exp\n      swap1\n      div\n      0xffffffffffffffffffffffffffffffffffffffff\n      and\n        /* \"CropSupplyChain.sol\":1890:1919  msg.sender == crop.shopkeeper */\n      0xffffffffffffffffffffffffffffffffffffffff\n      and\n        /* \"CropSupplyChain.sol\":1890:1900  msg.sender */\n      caller\n        /* \"CropSupplyChain.sol\":1890:1919  msg.sender == crop.shopkeeper */\n      0xffffffffffffffffffffffffffffffffffffffff\n      and\n      eq\n        /* \"CropSupplyChain.sol\":1794:1919  msg.sender == crop.farmer || msg.sender == crop.distributor || msg.sender == crop.wholesaler || msg.sender == crop.shopkeeper */\n    tag_45:\n        /* \"CropSupplyChain.sol\":1786:1967  require(msg.sender == crop.farmer || msg.sender == crop.distributor || msg.sender == crop.wholesaler || msg.sender == crop.shopkeeper, \"Only authorized parties can update the crop\") */\n      tag_46\n      jumpi\n      mload(0x40)\n      0x08c379a000000000000000000000000000000000000000000000000000000000\n      dup2\n      mstore\n      0x04\n      add\n      tag_47\n      swap1\n      tag_48\n      jump\t// in\n    tag_47:\n      mload(0x40)\n      dup1\n      swap2\n      sub\n      swap1\n      revert\n    tag_46:\n        /* \"CropSupplyChain.sol\":1994:2003  _quantity */\n      dup3\n        /* \"CropSupplyChain.sol\":1978:1982  crop */\n      dup2\n        /* \"CropSupplyChain.sol\":1978:1991  crop.quantity */\n      0x02\n      add\n        /* \"CropSupplyChain.sol\":1978:2003  crop.quantity = _quantity */\n      dup2\n      swap1\n      sstore\n      pop\n        /* \"CropSupplyChain.sol\":2030:2039  _lifespan */\n      dup2\n        /* \"CropSupplyChain.sol\":2014:2018  crop */\n      dup2\n        /* \"CropSupplyChain.sol\":2014:2027  crop.lifespan */\n      0x03\n      add\n        /* \"CropSupplyChain.sol\":2014:2039  crop.lifespan = _lifespan */\n      dup2\n      swap1\n      sstore\n      pop\n        /* \"CropSupplyChain.sol\":1730:2047  {... */\n      pop\n        /* \"CropSupplyChain.sol\":1648:2047  function updateCrop(uint256 _cropId, uint256 _quantity, uint256 _lifespan) public {... */\n      pop\n      pop\n      pop\n      jump\t// out\n        /* \"CropSupplyChain.sol\":2431:2751  function getFreshness(uint256 _cropId) public view returns (uint256) {... */\n    tag_18:\n        /* \"CropSupplyChain.sol\":2491:2498  uint256 */\n      0x00\n        /* \"CropSupplyChain.sol\":2511:2528  Crop storage crop */\n      dup1\n        /* \"CropSupplyChain.sol\":2531:2536  crops */\n      0x00\n        /* \"CropSupplyChain.sol\":2531:2545  crops[_cropId] */\n      dup1\n        /* \"CropSupplyChain.sol\":2537:2544  _cropId */\n      dup5\n        /* \"CropSupplyChain.sol\":2531:2545  crops[_cropId] */\n      dup2\n      mstore\n      0x20\n      add\n      swap1\n      dup2\n      mstore\n      0x20\n      add\n      0x00\n      keccak256\n        /* \"CropSupplyChain.sol\":2511:2545  Crop storage crop = crops[_cropId] */\n      swap1\n      pop\n        /* \"CropSupplyChain.sol\":2556:2571  uint256 elapsed */\n      0x00\n        /* \"CropSupplyChain.sol\":2592:2596  crop */\n      dup2\n        /* \"CropSupplyChain.sol\":2592:2606  crop.timestamp */\n      0x04\n      add\n      sload\n        /* \"CropSupplyChain.sol\":2574:2589  block.timestamp */\n      timestamp\n        /* \"CropSupplyChain.sol\":2574:2606  block.timestamp - crop.timestamp */\n      tag_50\n      swap2\n      swap1\n      tag_51\n      jump\t// in\n    tag_50:\n        /* \"CropSupplyChain.sol\":2556:2606  uint256 elapsed = block.timestamp - crop.timestamp */\n      swap1\n      pop\n        /* \"CropSupplyChain.sol\":2631:2635  crop */\n      dup2\n        /* \"CropSupplyChain.sol\":2631:2644  crop.lifespan */\n      0x03\n      add\n      sload\n        /* \"CropSupplyChain.sol\":2621:2628  elapsed */\n      dup2\n        /* \"CropSupplyChain.sol\":2621:2644  elapsed > crop.lifespan */\n      gt\n        /* \"CropSupplyChain.sol\":2617:2744  if (elapsed > crop.lifespan) {... */\n      iszero\n      tag_52\n      jumpi\n        /* \"CropSupplyChain.sol\":2668:2669  0 */\n      0x00\n        /* \"CropSupplyChain.sol\":2661:2669  return 0 */\n      swap3\n      pop\n      pop\n      pop\n      jump(tag_49)\n        /* \"CropSupplyChain.sol\":2617:2744  if (elapsed > crop.lifespan) {... */\n    tag_52:\n        /* \"CropSupplyChain.sol\":2725:2732  elapsed */\n      dup1\n        /* \"CropSupplyChain.sol\":2709:2713  crop */\n      dup3\n        /* \"CropSupplyChain.sol\":2709:2722  crop.lifespan */\n      0x03\n      add\n      sload\n        /* \"CropSupplyChain.sol\":2709:2732  crop.lifespan - elapsed */\n      tag_54\n      swap2\n      swap1\n      tag_51\n      jump\t// in\n    tag_54:\n        /* \"CropSupplyChain.sol\":2702:2732  return crop.lifespan - elapsed */\n      swap3\n      pop\n      pop\n      pop\n        /* \"CropSupplyChain.sol\":2431:2751  function getFreshness(uint256 _cropId) public view returns (uint256) {... */\n    tag_49:\n      swap2\n      swap1\n      pop\n      jump\t// out\n        /* \"CropSupplyChain.sol\":530:842  function addCrop(string memory _name, uint256 _quantity, uint256 _lifespan) public returns (uint256) {... */\n    tag_24:\n        /* \"CropSupplyChain.sol\":622:629  uint256 */\n      0x00\n        /* \"CropSupplyChain.sol\":655:656  1 */\n      0x01\n        /* \"CropSupplyChain.sol\":642:651  cropCount */\n      dup1\n      0x00\n        /* \"CropSupplyChain.sol\":642:656  cropCount += 1 */\n      dup3\n      dup3\n      sload\n      tag_56\n      swap2\n      swap1\n      tag_57\n      jump\t// in\n    tag_56:\n      swap3\n      pop\n      pop\n      dup2\n      swap1\n      sstore\n      pop\n        /* \"CropSupplyChain.sol\":686:807  Crop(cropCount, _name, _quantity, _lifespan, block.timestamp, msg.sender, address(0), address(0), address(0), address(0)) */\n      mload(0x40)\n      dup1\n      0x0140\n      add\n      0x40\n      mstore\n      dup1\n        /* \"CropSupplyChain.sol\":691:700  cropCount */\n      sload(0x01)\n        /* \"CropSupplyChain.sol\":686:807  Crop(cropCount, _name, _quantity, _lifespan, block.timestamp, msg.sender, address(0), address(0), address(0), address(0)) */\n      dup2\n      mstore\n      0x20\n      add\n        /* \"CropSupplyChain.sol\":702:707  _name */\n      dup6\n        /* \"CropSupplyChain.sol\":686:807  Crop(cropCount, _name, _quantity, _lifespan, block.timestamp, msg.sender, address(0), address(0), address(0), address(0)) */\n      dup2\n      mstore\n      0x20\n      add\n        /* \"CropSupplyChain.sol\":709:718  _quantity */\n      dup5\n        /* \"CropSupplyChain.sol\":686:807  Crop(cropCount, _name, _quantity, _lifespan, block.timestamp, msg.sender, address(0), address(0), address(0), address(0)) */\n      dup2\n      mstore\n      0x20\n      add\n        /* \"CropSupplyChain.sol\":720:729  _lifespan */\n      dup4\n        /* \"CropSupplyChain.sol\":686:807  Crop(cropCount, _name, _quantity, _lifespan, block.timestamp, msg.sender, address(0), address(0), address(0), address(0)) */\n      dup2\n      mstore\n      0x20\n      add\n        /* \"CropSupplyChain.sol\":731:746  block.timestamp */\n      timestamp\n        /* \"CropSupplyChain.sol\":686:807  Crop(cropCount, _name, _quantity, _lifespan, block.timestamp, msg.sender, address(0), address(0), address(0), address(0)) */\n      dup2\n      mstore\n      0x20\n      add\n        /* \"CropSupplyChain.sol\":748:758  msg.sender */\n      caller\n        /* \"CropSupplyChain.sol\":686:807  Crop(cropCount, _name, _quantity, _lifespan, block.timestamp, msg.sender, address(0), address(0), address(0), address(0)) */\n      0xffffffffffffffffffffffffffffffffffffffff\n      and\n      dup2\n      mstore\n      0x20\n      add\n        /* \"CropSupplyChain.sol\":768:769  0 */\n      0x00\n        /* \"CropSupplyChain.sol\":686:807  Crop(cropCount, _name, _quantity, _lifespan, block.timestamp, msg.sender, address(0), address(0), address(0), address(0)) */\n      0xffffffffffffffffffffffffffffffffffffffff\n      and\n      dup2\n      mstore\n      0x20\n      add\n        /* \"CropSupplyChain.sol\":780:781  0 */\n      0x00\n        /* \"CropSupplyChain.sol\":686:807  Crop(cropCount, _name, _quantity, _lifespan, block.timestamp, msg.sender, address(0), address(0), address(0), address(0)) */\n      0xffffffffffffffffffffffffffffffffffffffff\n      and\n      dup2\n      mstore\n      0x20\n      add\n        /* \"CropSupplyChain.sol\":792:793  0 */\n      0x00\n        /* \"CropSupplyChain.sol\":686:807  Crop(cropCount, _name, _quantity, _lifespan, block.timestamp, msg.sender, address(0), address(0), address(0), address(0)) */\n      0xffffffffffffffffffffffffffffffffffffffff\n      and\n      dup2\n      mstore\n      0x20\n      add\n        /* \"CropSupplyChain.sol\":804:805  0 */\n      0x00\n        /* \"CropSupplyChain.sol\":686:807  Crop(cropCount, _name, _quantity, _lifespan, block.timestamp, msg.sender, address(0), address(0), address(0), address(0)) */\n      0xffffffffffffffffffffffffffffffffffffffff\n      and\n      dup2\n      mstore\n      pop\n        /* \"CropSupplyChain.sol\":667:672  crops */\n      0x00\n        /* \"CropSupplyChain.sol\":667:683  crops[cropCount] */\n      dup1\n        /* \"CropSupplyChain.sol\":673:682  cropCount */\n      sload(0x01)\n        /* \"CropSupplyChain.sol\":667:683  crops[cropCount] */\n      dup2\n      mstore\n      0x20\n      add\n      swap1\n      dup2\n      mstore\n      0x20\n      add\n      0x00\n      keccak256\n        /* \"CropSupplyChain.sol\":667:807  crops[cropCount] = Crop(cropCount, _name, _quantity, _lifespan, block.timestamp, msg.sender, address(0), address(0), address(0), address(0)) */\n      0x00\n      dup3\n      add\n      mload\n      dup2\n      0x00\n      add\n      sstore\n      0x20\n      dup3\n      add\n      mload\n      dup2\n      0x01\n      add\n      swap1\n      dup2\n      tag_58\n      swap2\n      swap1\n      tag_59\n      jump\t// in\n    tag_58:\n      pop\n      0x40\n      dup3\n      add\n      mload\n      dup2\n      0x02\n      add\n      sstore\n      0x60\n      dup3\n      add\n      mload\n      dup2\n      0x03\n      add\n      sstore\n      0x80\n      dup3\n      add\n      mload\n      dup2\n      0x04\n      add\n      sstore\n      0xa0\n      dup3\n      add\n      mload\n      dup2\n      0x05\n      add\n      exp(0x0100, 0x00)\n      dup2\n      sload\n      dup2\n      0xffffffffffffffffffffffffffffffffffffffff\n      mul\n      not\n      and\n      swap1\n      dup4\n      0xffffffffffffffffffffffffffffffffffffffff\n      and\n      mul\n      or\n      swap1\n      sstore\n      pop\n      0xc0\n      dup3\n      add\n      mload\n      dup2\n      0x06\n      add\n      exp(0x0100, 0x00)\n      dup2\n      sload\n      dup2\n      0xffffffffffffffffffffffffffffffffffffffff\n      mul\n      not\n      and\n      swap1\n      dup4\n      0xffffffffffffffffffffffffffffffffffffffff\n      and\n      mul\n      or\n      swap1\n      sstore\n      pop\n      0xe0\n      dup3\n      add\n      mload\n      dup2\n      0x07\n      add\n      exp(0x0100, 0x00)\n      dup2\n      sload\n      dup2\n      0xffffffffffffffffffffffffffffffffffffffff\n      mul\n      not\n      and\n      swap1\n      dup4\n      0xffffffffffffffffffffffffffffffffffffffff\n      and\n      mul\n      or\n      swap1\n      sstore\n      pop\n      0x0100\n      dup3\n      add\n      mload\n      dup2\n      0x08\n      add\n      exp(0x0100, 0x00)\n      dup2\n      sload\n      dup2\n      0xffffffffffffffffffffffffffffffffffffffff\n      mul\n      not\n      and\n      swap1\n      dup4\n      0xffffffffffffffffffffffffffffffffffffffff\n      and\n      mul\n      or\n      swap1\n      sstore\n      pop\n      0x0120\n      dup3\n      add\n      mload\n      dup2\n      0x09\n      add\n      exp(0x0100, 0x00)\n      dup2\n      sload\n      dup2\n      0xffffffffffffffffffffffffffffffffffffffff\n      mul\n      not\n      and\n      swap1\n      dup4\n      0xffffffffffffffffffffffffffffffffffffffff\n      and\n      mul\n      or\n      swap1\n      sstore\n      pop\n      swap1\n      pop\n      pop\n        /* \"CropSupplyChain.sol\":825:834  cropCount */\n      sload(0x01)\n        /* \"CropSupplyChain.sol\":818:834  return cropCount */\n      swap1\n      pop\n        /* \"CropSupplyChain.sol\":530:842  function addCrop(string memory _name, uint256 _quantity, uint256 _lifespan) public returns (uint256) {... */\n      swap4\n      swap3\n      pop\n      pop\n      pop\n      jump\t// out\n        /* \"CropSupplyChain.sol\":396:434  mapping (uint256 => Crop) public crops */\n    tag_28:\n      mstore(0x20, 0x00)\n      dup1\n      0x00\n      mstore\n      keccak256(0x00, 0x40)\n      0x00\n      swap2\n      pop\n      swap1\n      pop\n      dup1\n      0x00\n      add\n      sload\n      swap1\n      dup1\n      0x01\n      add\n      dup1\n      sload\n      tag_60\n      swap1\n      tag_61\n      jump\t// in\n    tag_60:\n      dup1\n      0x1f\n      add\n      0x20\n      dup1\n      swap2\n      div\n      mul\n      0x20\n      add\n      mload(0x40)\n      swap1\n      dup2\n      add\n      0x40\n      mstore\n      dup1\n      swap3\n      swap2\n      swap1\n      dup2\n      dup2\n      mstore\n      0x20\n      add\n      dup3\n      dup1\n      sload\n      tag_62\n      swap1\n      tag_61\n      jump\t// in\n    tag_62:\n      dup1\n      iszero\n      tag_63\n      jumpi\n      dup1\n      0x1f\n      lt\n      tag_64\n      jumpi\n      0x0100\n      dup1\n      dup4\n      sload\n      div\n      mul\n      dup4\n      mstore\n      swap2\n      0x20\n      add\n      swap2\n      jump(tag_63)\n    tag_64:\n      dup3\n      add\n      swap2\n      swap1\n      0x00\n      mstore\n      keccak256(0x00, 0x20)\n      swap1\n    tag_65:\n      dup2\n      sload\n      dup2\n      mstore\n      swap1\n      0x01\n      add\n      swap1\n      0x20\n      add\n      dup1\n      dup4\n      gt\n      tag_65\n      jumpi\n      dup3\n      swap1\n      sub\n      0x1f\n      and\n      dup3\n      add\n      swap2\n    tag_63:\n      pop\n      pop\n      pop\n      pop\n      pop\n      swap1\n      dup1\n      0x02\n      add\n      sload\n      swap1\n      dup1\n      0x03\n      add\n      sload\n      swap1\n      dup1\n      0x04\n      add\n      sload\n      swap1\n      dup1\n      0x05\n      add\n      0x00\n      swap1\n      sload\n      swap1\n      0x0100\n      exp\n      swap1\n      div\n      0xffffffffffffffffffffffffffffffffffffffff\n      and\n      swap1\n      dup1\n      0x06\n      add\n      0x00\n      swap1\n      sload\n      swap1\n      0x0100\n      exp\n      swap1\n      div\n      0xffffffffffffffffffffffffffffffffffffffff\n      and\n      swap1\n      dup1\n      0x07\n      add\n      0x00\n      swap1\n      sload\n      swap1\n      0x0100\n      exp\n      swap1\n      div\n      0xffffffffffffffffffffffffffffffffffffffff\n      and\n      swap1\n      dup1\n      0x08\n      add\n      0x00\n      swap1\n      sload\n      swap1\n      0x0100\n      exp\n      swap1\n      div\n      0xffffffffffffffffffffffffffffffffffffffff\n      and\n      swap1\n      dup1\n      0x09\n      add\n      0x00\n      swap1\n      sload\n      swap1\n      0x0100\n      exp\n      swap1\n      div\n      0xffffffffffffffffffffffffffffffffffffffff\n      and\n      swap1\n      pop\n      dup11\n      jump\t// out\n        /* \"CropSupplyChain.sol\":2055:2423  function getCrop(uint256 _cropId) public view returns (uint256, string memory, uint256, uint256, uint256, address, address, address, address, address) {... */\n    tag_33:\n        /* \"CropSupplyChain.sol\":2110:2117  uint256 */\n      0x00\n        /* \"CropSupplyChain.sol\":2119:2132  string memory */\n      0x60\n        /* \"CropSupplyChain.sol\":2134:2141  uint256 */\n      0x00\n        /* \"CropSupplyChain.sol\":2143:2150  uint256 */\n      dup1\n        /* \"CropSupplyChain.sol\":2152:2159  uint256 */\n      0x00\n        /* \"CropSupplyChain.sol\":2161:2168  address */\n      dup1\n        /* \"CropSupplyChain.sol\":2170:2177  address */\n      0x00\n        /* \"CropSupplyChain.sol\":2179:2186  address */\n      dup1\n        /* \"CropSupplyChain.sol\":2188:2195  address */\n      0x00\n        /* \"CropSupplyChain.sol\":2197:2204  address */\n      dup1\n        /* \"CropSupplyChain.sol\":2217:2234  Crop storage crop */\n      0x00\n        /* \"CropSupplyChain.sol\":2237:2242  crops */\n      dup1\n        /* \"CropSupplyChain.sol\":2237:2251  crops[_cropId] */\n      0x00\n        /* \"CropSupplyChain.sol\":2243:2250  _cropId */\n      dup14\n        /* \"CropSupplyChain.sol\":2237:2251  crops[_cropId] */\n      dup2\n      mstore\n      0x20\n      add\n      swap1\n      dup2\n      mstore\n      0x20\n      add\n      0x00\n      keccak256\n        /* \"CropSupplyChain.sol\":2217:2251  Crop storage crop = crops[_cropId] */\n      swap1\n      pop\n        /* \"CropSupplyChain.sol\":2270:2274  crop */\n      dup1\n        /* \"CropSupplyChain.sol\":2270:2277  crop.id */\n      0x00\n      add\n      sload\n        /* \"CropSupplyChain.sol\":2279:2283  crop */\n      dup2\n        /* \"CropSupplyChain.sol\":2279:2288  crop.name */\n      0x01\n      add\n        /* \"CropSupplyChain.sol\":2290:2294  crop */\n      dup3\n        /* \"CropSupplyChain.sol\":2290:2303  crop.quantity */\n      0x02\n      add\n      sload\n        /* \"CropSupplyChain.sol\":2305:2309  crop */\n      dup4\n        /* \"CropSupplyChain.sol\":2305:2318  crop.lifespan */\n      0x03\n      add\n      sload\n        /* \"CropSupplyChain.sol\":2320:2324  crop */\n      dup5\n        /* \"CropSupplyChain.sol\":2320:2334  crop.timestamp */\n      0x04\n      add\n      sload\n        /* \"CropSupplyChain.sol\":2336:2340  crop */\n      dup6\n        /* \"CropSupplyChain.sol\":2336:2347  crop.farmer */\n      0x05\n      add\n      0x00\n      swap1\n      sload\n      swap1\n      0x0100\n      exp\n      swap1\n      div\n      0xffffffffffffffffffffffffffffffffffffffff\n      and\n        /* \"CropSupplyChain.sol\":2349:2353  crop */\n      dup7\n        /* \"CropSupplyChain.sol\":2349:2365  crop.distributor */\n      0x06\n      add\n      0x00\n      swap1\n      sload\n      swap1\n      0x0100\n      exp\n      swap1\n      div\n      0xffffffffffffffffffffffffffffffffffffffff\n      and\n        /* \"CropSupplyChain.sol\":2367:2371  crop */\n      dup8\n        /* \"CropSupplyChain.sol\":2367:2382  crop.wholesaler */\n      0x07\n      add\n      0x00\n      swap1\n      sload\n      swap1\n      0x0100\n      exp\n      swap1\n      div\n      0xffffffffffffffffffffffffffffffffffffffff\n      and\n        /* \"CropSupplyChain.sol\":2384:2388  crop */\n      dup9\n        /* \"CropSupplyChain.sol\":2384:2399  crop.shopkeeper */\n      0x08\n      add\n      0x00\n      swap1\n      sload\n      swap1\n      0x0100\n      exp\n      swap1\n      div\n      0xffffffffffffffffffffffffffffffffffffffff\n      and\n        /* \"CropSupplyChain.sol\":2401:2405  crop */\n      dup10\n        /* \"CropSupplyChain.sol\":2401:2414  crop.consumer */\n      0x09\n      add\n      0x00\n      swap1\n      sload\n      swap1\n      0x0100\n      exp\n      swap1\n      div\n      0xffffffffffffffffffffffffffffffffffffffff\n      and\n        /* \"CropSupplyChain.sol\":2262:2415  return (crop.id, crop.name, crop.quantity, crop.lifespan, crop.timestamp, crop.farmer, crop.distributor, crop.wholesaler, crop.shopkeeper, crop.consumer) */\n      dup9\n      dup1\n      sload\n      tag_67\n      swap1\n      tag_61\n      jump\t// in\n    tag_67:\n      dup1\n      0x1f\n      add\n      0x20\n      dup1\n      swap2\n      div\n      mul\n      0x20\n      add\n      mload(0x40)\n      swap1\n      dup2\n      add\n      0x40\n      mstore\n      dup1\n      swap3\n      swap2\n      swap1\n      dup2\n      dup2\n      mstore\n      0x20\n      add\n      dup3\n      dup1\n      sload\n      tag_68\n      swap1\n      tag_61\n      jump\t// in\n    tag_68:\n      dup1\n      iszero\n      tag_69\n      jumpi\n      dup1\n      0x1f\n      lt\n      tag_70\n      jumpi\n      0x0100\n      dup1\n      dup4\n      sload\n      div\n      mul\n      dup4\n      mstore\n      swap2\n      0x20\n      add\n      swap2\n      jump(tag_69)\n    tag_70:\n      dup3\n      add\n      swap2\n      swap1\n      0x00\n      mstore\n      keccak256(0x00, 0x20)\n      swap1\n    tag_71:\n      dup2\n      sload\n      dup2\n      mstore\n      swap1\n      0x01\n      add\n      swap1\n      0x20\n      add\n      dup1\n      dup4\n      gt\n      tag_71\n      jumpi\n      dup3\n      swap1\n      sub\n      0x1f\n      and\n      dup3\n      add\n      swap2\n    tag_69:\n      pop\n      pop\n      pop\n      pop\n      pop\n      swap9\n      pop\n      swap11\n      pop\n      swap11\n      pop\n      swap11\n      pop\n      swap11\n      pop\n      swap11\n      pop\n      swap11\n      pop\n      swap11\n      pop\n      swap11\n      pop\n      swap11\n      pop\n      swap11\n      pop\n      pop\n        /* \"CropSupplyChain.sol\":2055:2423  function getCrop(uint256 _cropId) public view returns (uint256, string memory, uint256, uint256, uint256, address, address, address, address, address) {... */\n      swap2\n      swap4\n      swap6\n      swap8\n      swap10\n      pop\n      swap2\n      swap4\n      swap6\n      swap8\n      swap10\n      jump\t// out\n        /* \"CropSupplyChain.sol\":850:1640  function distributeCrop(uint256 _cropId, address _distributor, address _wholesaler, address _shopkeeper, address _consumer) public {... */\n    tag_38:\n        /* \"CropSupplyChain.sol\":1024:1025  0 */\n      0x00\n        /* \"CropSupplyChain.sol\":1000:1026  _distributor != address(0) */\n      0xffffffffffffffffffffffffffffffffffffffff\n      and\n        /* \"CropSupplyChain.sol\":1000:1012  _distributor */\n      dup5\n        /* \"CropSupplyChain.sol\":1000:1026  _distributor != address(0) */\n      0xffffffffffffffffffffffffffffffffffffffff\n      and\n      sub\n        /* \"CropSupplyChain.sol\":992:1058  require(_distributor != address(0), \"Invalid distributor address\") */\n      tag_73\n      jumpi\n      mload(0x40)\n      0x08c379a000000000000000000000000000000000000000000000000000000000\n      dup2\n      mstore\n      0x04\n      add\n      tag_74\n      swap1\n      tag_75\n      jump\t// in\n    tag_74:\n      mload(0x40)\n      dup1\n      swap2\n      sub\n      swap1\n      revert\n    tag_73:\n        /* \"CropSupplyChain.sol\":1100:1101  0 */\n      0x00\n        /* \"CropSupplyChain.sol\":1077:1102  _wholesaler != address(0) */\n      0xffffffffffffffffffffffffffffffffffffffff\n      and\n        /* \"CropSupplyChain.sol\":1077:1088  _wholesaler */\n      dup4\n        /* \"CropSupplyChain.sol\":1077:1102  _wholesaler != address(0) */\n      0xffffffffffffffffffffffffffffffffffffffff\n      and\n      sub\n        /* \"CropSupplyChain.sol\":1069:1133  require(_wholesaler != address(0), \"Invalid wholesaler address\") */\n      tag_76\n      jumpi\n      mload(0x40)\n      0x08c379a000000000000000000000000000000000000000000000000000000000\n      dup2\n      mstore\n      0x04\n      add\n      tag_77\n      swap1\n      tag_78\n      jump\t// in\n    tag_77:\n      mload(0x40)\n      dup1\n      swap2\n      sub\n      swap1\n      revert\n    tag_76:\n        /* \"CropSupplyChain.sol\":1175:1176  0 */\n      0x00\n        /* \"CropSupplyChain.sol\":1152:1177  _shopkeeper != address(0) */\n      0xffffffffffffffffffffffffffffffffffffffff\n      and\n        /* \"CropSupplyChain.sol\":1152:1163  _shopkeeper */\n      dup3\n        /* \"CropSupplyChain.sol\":1152:1177  _shopkeeper != address(0) */\n      0xffffffffffffffffffffffffffffffffffffffff\n      and\n      sub\n        /* \"CropSupplyChain.sol\":1144:1208  require(_shopkeeper != address(0), \"Invalid shopkeeper address\") */\n      tag_79\n      jumpi\n      mload(0x40)\n      0x08c379a000000000000000000000000000000000000000000000000000000000\n      dup2\n      mstore\n      0x04\n      add\n      tag_80\n      swap1\n      tag_81\n      jump\t// in\n    tag_80:\n      mload(0x40)\n      dup1\n      swap2\n      sub\n      swap1\n      revert\n    tag_79:\n        /* \"CropSupplyChain.sol\":1248:1249  0 */\n      0x00\n        /* \"CropSupplyChain.sol\":1227:1250  _consumer != address(0) */\n      0xffffffffffffffffffffffffffffffffffffffff\n      and\n        /* \"CropSupplyChain.sol\":1227:1236  _consumer */\n      dup2\n        /* \"CropSupplyChain.sol\":1227:1250  _consumer != address(0) */\n      0xffffffffffffffffffffffffffffffffffffffff\n      and\n      sub\n        /* \"CropSupplyChain.sol\":1219:1279  require(_consumer != address(0), \"Invalid consumer address\") */\n      tag_82\n      jumpi\n      mload(0x40)\n      0x08c379a000000000000000000000000000000000000000000000000000000000\n      dup2\n      mstore\n      0x04\n      add\n      tag_83\n      swap1\n      tag_84\n      jump\t// in\n    tag_83:\n      mload(0x40)\n      dup1\n      swap2\n      sub\n      swap1\n      revert\n    tag_82:\n        /* \"CropSupplyChain.sol\":1290:1307  Crop storage crop */\n      0x00\n        /* \"CropSupplyChain.sol\":1310:1315  crops */\n      dup1\n        /* \"CropSupplyChain.sol\":1310:1324  crops[_cropId] */\n      0x00\n        /* \"CropSupplyChain.sol\":1316:1323  _cropId */\n      dup8\n        /* \"CropSupplyChain.sol\":1310:1324  crops[_cropId] */\n      dup2\n      mstore\n      0x20\n      add\n      swap1\n      dup2\n      mstore\n      0x20\n      add\n      0x00\n      keccak256\n        /* \"CropSupplyChain.sol\":1290:1324  Crop storage crop = crops[_cropId] */\n      swap1\n      pop\n        /* \"CropSupplyChain.sol\":1357:1361  crop */\n      dup1\n        /* \"CropSupplyChain.sol\":1357:1368  crop.farmer */\n      0x05\n      add\n      0x00\n      swap1\n      sload\n      swap1\n      0x0100\n      exp\n      swap1\n      div\n      0xffffffffffffffffffffffffffffffffffffffff\n      and\n        /* \"CropSupplyChain.sol\":1343:1368  msg.sender == crop.farmer */\n      0xffffffffffffffffffffffffffffffffffffffff\n      and\n        /* \"CropSupplyChain.sol\":1343:1353  msg.sender */\n      caller\n        /* \"CropSupplyChain.sol\":1343:1368  msg.sender == crop.farmer */\n      0xffffffffffffffffffffffffffffffffffffffff\n      and\n      eq\n        /* \"CropSupplyChain.sol\":1335:1412  require(msg.sender == crop.farmer, \"Only the farmer can distribute the crop\") */\n      tag_85\n      jumpi\n      mload(0x40)\n      0x08c379a000000000000000000000000000000000000000000000000000000000\n      dup2\n      mstore\n      0x04\n      add\n      tag_86\n      swap1\n      tag_87\n      jump\t// in\n    tag_86:\n      mload(0x40)\n      dup1\n      swap2\n      sub\n      swap1\n      revert\n    tag_85:\n        /* \"CropSupplyChain.sol\":1447:1448  0 */\n      0x00\n        /* \"CropSupplyChain.sol\":1431:1435  crop */\n      dup2\n        /* \"CropSupplyChain.sol\":1431:1444  crop.quantity */\n      0x02\n      add\n      sload\n        /* \"CropSupplyChain.sol\":1431:1448  crop.quantity > 0 */\n      gt\n        /* \"CropSupplyChain.sol\":1423:1474  require(crop.quantity > 0, \"Crop quantity is zero\") */\n      tag_88\n      jumpi\n      mload(0x40)\n      0x08c379a000000000000000000000000000000000000000000000000000000000\n      dup2\n      mstore\n      0x04\n      add\n      tag_89\n      swap1\n      tag_90\n      jump\t// in\n    tag_89:\n      mload(0x40)\n      dup1\n      swap2\n      sub\n      swap1\n      revert\n    tag_88:\n        /* \"CropSupplyChain.sol\":1504:1516  _distributor */\n      dup5\n        /* \"CropSupplyChain.sol\":1485:1489  crop */\n      dup2\n        /* \"CropSupplyChain.sol\":1485:1501  crop.distributor */\n      0x06\n      add\n      0x00\n        /* \"CropSupplyChain.sol\":1485:1516  crop.distributor = _distributor */\n      0x0100\n      exp\n      dup2\n      sload\n      dup2\n      0xffffffffffffffffffffffffffffffffffffffff\n      mul\n      not\n      and\n      swap1\n      dup4\n      0xffffffffffffffffffffffffffffffffffffffff\n      and\n      mul\n      or\n      swap1\n      sstore\n      pop\n        /* \"CropSupplyChain.sol\":1545:1556  _wholesaler */\n      dup4\n        /* \"CropSupplyChain.sol\":1527:1531  crop */\n      dup2\n        /* \"CropSupplyChain.sol\":1527:1542  crop.wholesaler */\n      0x07\n      add\n      0x00\n        /* \"CropSupplyChain.sol\":1527:1556  crop.wholesaler = _wholesaler */\n      0x0100\n      exp\n      dup2\n      sload\n      dup2\n      0xffffffffffffffffffffffffffffffffffffffff\n      mul\n      not\n      and\n      swap1\n      dup4\n      0xffffffffffffffffffffffffffffffffffffffff\n      and\n      mul\n      or\n      swap1\n      sstore\n      pop\n        /* \"CropSupplyChain.sol\":1585:1596  _shopkeeper */\n      dup3\n        /* \"CropSupplyChain.sol\":1567:1571  crop */\n      dup2\n        /* \"CropSupplyChain.sol\":1567:1582  crop.shopkeeper */\n      0x08\n      add\n      0x00\n        /* \"CropSupplyChain.sol\":1567:1596  crop.shopkeeper = _shopkeeper */\n      0x0100\n      exp\n      dup2\n      sload\n      dup2\n      0xffffffffffffffffffffffffffffffffffffffff\n      mul\n      not\n      and\n      swap1\n      dup4\n      0xffffffffffffffffffffffffffffffffffffffff\n      and\n      mul\n      or\n      swap1\n      sstore\n      pop\n        /* \"CropSupplyChain.sol\":1623:1632  _consumer */\n      dup2\n        /* \"CropSupplyChain.sol\":1607:1611  crop */\n      dup2\n        /* \"CropSupplyChain.sol\":1607:1620  crop.consumer */\n      0x09\n      add\n      0x00\n        /* \"CropSupplyChain.sol\":1607:1632  crop.consumer = _consumer */\n      0x0100\n      exp\n      dup2\n      sload\n      dup2\n      0xffffffffffffffffffffffffffffffffffffffff\n      mul\n      not\n      and\n      swap1\n      dup4\n      0xffffffffffffffffffffffffffffffffffffffff\n      and\n      mul\n      or\n      swap1\n      sstore\n      pop\n        /* \"CropSupplyChain.sol\":981:1640  {... */\n      pop\n        /* \"CropSupplyChain.sol\":850:1640  function distributeCrop(uint256 _cropId, address _distributor, address _wholesaler, address _shopkeeper, address _consumer) public {... */\n      pop\n      pop\n      pop\n      pop\n      pop\n      jump\t// out\n        /* \"CropSupplyChain.sol\":443:467  uint256 public cropCount */\n    tag_40:\n      sload(0x01)\n      dup2\n      jump\t// out\n        /* \"#utility.yul\":7:82   */\n    tag_91:\n        /* \"#utility.yul\":40:46   */\n      0x00\n        /* \"#utility.yul\":73:75   */\n      0x40\n        /* \"#utility.yul\":67:76   */\n      mload\n        /* \"#utility.yul\":57:76   */\n      swap1\n      pop\n        /* \"#utility.yul\":7:82   */\n      swap1\n      jump\t// out\n        /* \"#utility.yul\":88:205   */\n    tag_92:\n        /* \"#utility.yul\":197:198   */\n      0x00\n        /* \"#utility.yul\":194:195   */\n      dup1\n        /* \"#utility.yul\":187:199   */\n      revert\n        /* \"#utility.yul\":211:328   */\n    tag_93:\n        /* \"#utility.yul\":320:321   */\n      0x00\n        /* \"#utility.yul\":317:318   */\n      dup1\n        /* \"#utility.yul\":310:322   */\n      revert\n        /* \"#utility.yul\":334:411   */\n    tag_94:\n        /* \"#utility.yul\":371:378   */\n      0x00\n        /* \"#utility.yul\":400:405   */\n      dup2\n        /* \"#utility.yul\":389:405   */\n      swap1\n      pop\n        /* \"#utility.yul\":334:411   */\n      swap2\n      swap1\n      pop\n      jump\t// out\n        /* \"#utility.yul\":417:539   */\n    tag_95:\n        /* \"#utility.yul\":490:514   */\n      tag_154\n        /* \"#utility.yul\":508:513   */\n      dup2\n        /* \"#utility.yul\":490:514   */\n      tag_94\n      jump\t// in\n    tag_154:\n        /* \"#utility.yul\":483:488   */\n      dup2\n        /* \"#utility.yul\":480:515   */\n      eq\n        /* \"#utility.yul\":470:533   */\n      tag_155\n      jumpi\n        /* \"#utility.yul\":529:530   */\n      0x00\n        /* \"#utility.yul\":526:527   */\n      dup1\n        /* \"#utility.yul\":519:531   */\n      revert\n        /* \"#utility.yul\":470:533   */\n    tag_155:\n        /* \"#utility.yul\":417:539   */\n      pop\n      jump\t// out\n        /* \"#utility.yul\":545:684   */\n    tag_96:\n        /* \"#utility.yul\":591:596   */\n      0x00\n        /* \"#utility.yul\":629:635   */\n      dup2\n        /* \"#utility.yul\":616:636   */\n      calldataload\n        /* \"#utility.yul\":607:636   */\n      swap1\n      pop\n        /* \"#utility.yul\":645:678   */\n      tag_157\n        /* \"#utility.yul\":672:677   */\n      dup2\n        /* \"#utility.yul\":645:678   */\n      tag_95\n      jump\t// in\n    tag_157:\n        /* \"#utility.yul\":545:684   */\n      swap3\n      swap2\n      pop\n      pop\n      jump\t// out\n        /* \"#utility.yul\":690:1309   */\n    tag_13:\n        /* \"#utility.yul\":767:773   */\n      0x00\n        /* \"#utility.yul\":775:781   */\n      dup1\n        /* \"#utility.yul\":783:789   */\n      0x00\n        /* \"#utility.yul\":832:834   */\n      0x60\n        /* \"#utility.yul\":820:829   */\n      dup5\n        /* \"#utility.yul\":811:818   */\n      dup7\n        /* \"#utility.yul\":807:830   */\n      sub\n        /* \"#utility.yul\":803:835   */\n      slt\n        /* \"#utility.yul\":800:919   */\n      iszero\n      tag_159\n      jumpi\n        /* \"#utility.yul\":838:917   */\n      tag_160\n      tag_92\n      jump\t// in\n    tag_160:\n        /* \"#utility.yul\":800:919   */\n    tag_159:\n        /* \"#utility.yul\":958:959   */\n      0x00\n        /* \"#utility.yul\":983:1036   */\n      tag_161\n        /* \"#utility.yul\":1028:1035   */\n      dup7\n        /* \"#utility.yul\":1019:1025   */\n      dup3\n        /* \"#utility.yul\":1008:1017   */\n      dup8\n        /* \"#utility.yul\":1004:1026   */\n      add\n        /* \"#utility.yul\":983:1036   */\n      tag_96\n      jump\t// in\n    tag_161:\n        /* \"#utility.yul\":973:1036   */\n      swap4\n      pop\n        /* \"#utility.yul\":929:1046   */\n      pop\n        /* \"#utility.yul\":1085:1087   */\n      0x20\n        /* \"#utility.yul\":1111:1164   */\n      tag_162\n        /* \"#utility.yul\":1156:1163   */\n      dup7\n        /* \"#utility.yul\":1147:1153   */\n      dup3\n        /* \"#utility.yul\":1136:1145   */\n      dup8\n        /* \"#utility.yul\":1132:1154   */\n      add\n        /* \"#utility.yul\":1111:1164   */\n      tag_96\n      jump\t// in\n    tag_162:\n        /* \"#utility.yul\":1101:1164   */\n      swap3\n      pop\n        /* \"#utility.yul\":1056:1174   */\n      pop\n        /* \"#utility.yul\":1213:1215   */\n      0x40\n        /* \"#utility.yul\":1239:1292   */\n      tag_163\n        /* \"#utility.yul\":1284:1291   */\n      dup7\n        /* \"#utility.yul\":1275:1281   */\n      dup3\n        /* \"#utility.yul\":1264:1273   */\n      dup8\n        /* \"#utility.yul\":1260:1282   */\n      add\n        /* \"#utility.yul\":1239:1292   */\n      tag_96\n      jump\t// in\n    tag_163:\n        /* \"#utility.yul\":1229:1292   */\n      swap2\n      pop\n        /* \"#utility.yul\":1184:1302   */\n      pop\n        /* \"#utility.yul\":690:1309   */\n      swap3\n      pop\n      swap3\n      pop\n      swap3\n      jump\t// out\n        /* \"#utility.yul\":1315:1644   */\n    tag_17:\n        /* \"#utility.yul\":1374:1380   */\n      0x00\n        /* \"#utility.yul\":1423:1425   */\n      0x20\n        /* \"#utility.yul\":1411:1420   */\n      dup3\n        /* \"#utility.yul\":1402:1409   */\n      dup5\n        /* \"#utility.yul\":1398:1421   */\n      sub\n        /* \"#utility.yul\":1394:1426   */\n      slt\n        /* \"#utility.yul\":1391:1510   */\n      iszero\n      tag_165\n      jumpi\n        /* \"#utility.yul\":1429:1508   */\n      tag_166\n      tag_92\n      jump\t// in\n    tag_166:\n        /* \"#utility.yul\":1391:1510   */\n    tag_165:\n        /* \"#utility.yul\":1549:1550   */\n      0x00\n        /* \"#utility.yul\":1574:1627   */\n      tag_167\n        /* \"#utility.yul\":1619:1626   */\n      dup5\n        /* \"#utility.yul\":1610:1616   */\n      dup3\n        /* \"#utility.yul\":1599:1608   */\n      dup6\n        /* \"#utility.yul\":1595:1617   */\n      add\n        /* \"#utility.yul\":1574:1627   */\n      tag_96\n      jump\t// in\n    tag_167:\n        /* \"#utility.yul\":1564:1627   */\n      swap2\n      pop\n        /* \"#utility.yul\":1520:1637   */\n      pop\n        /* \"#utility.yul\":1315:1644   */\n      swap3\n      swap2\n      pop\n      pop\n      jump\t// out\n        /* \"#utility.yul\":1650:1768   */\n    tag_97:\n        /* \"#utility.yul\":1737:1761   */\n      tag_169\n        /* \"#utility.yul\":1755:1760   */\n      dup2\n        /* \"#utility.yul\":1737:1761   */\n      tag_94\n      jump\t// in\n    tag_169:\n        /* \"#utility.yul\":1732:1735   */\n      dup3\n        /* \"#utility.yul\":1725:1762   */\n      mstore\n        /* \"#utility.yul\":1650:1768   */\n      pop\n      pop\n      jump\t// out\n        /* \"#utility.yul\":1774:1996   */\n    tag_20:\n        /* \"#utility.yul\":1867:1871   */\n      0x00\n        /* \"#utility.yul\":1905:1907   */\n      0x20\n        /* \"#utility.yul\":1894:1903   */\n      dup3\n        /* \"#utility.yul\":1890:1908   */\n      add\n        /* \"#utility.yul\":1882:1908   */\n      swap1\n      pop\n        /* \"#utility.yul\":1918:1989   */\n      tag_171\n        /* \"#utility.yul\":1986:1987   */\n      0x00\n        /* \"#utility.yul\":1975:1984   */\n      dup4\n        /* \"#utility.yul\":1971:1988   */\n      add\n        /* \"#utility.yul\":1962:1968   */\n      dup5\n        /* \"#utility.yul\":1918:1989   */\n      tag_97\n      jump\t// in\n    tag_171:\n        /* \"#utility.yul\":1774:1996   */\n      swap3\n      swap2\n      pop\n      pop\n      jump\t// out\n        /* \"#utility.yul\":2002:2119   */\n    tag_98:\n        /* \"#utility.yul\":2111:2112   */\n      0x00\n        /* \"#utility.yul\":2108:2109   */\n      dup1\n        /* \"#utility.yul\":2101:2113   */\n      revert\n        /* \"#utility.yul\":2125:2242   */\n    tag_99:\n        /* \"#utility.yul\":2234:2235   */\n      0x00\n        /* \"#utility.yul\":2231:2232   */\n      dup1\n        /* \"#utility.yul\":2224:2236   */\n      revert\n        /* \"#utility.yul\":2248:2350   */\n    tag_100:\n        /* \"#utility.yul\":2289:2295   */\n      0x00\n        /* \"#utility.yul\":2340:2342   */\n      0x1f\n        /* \"#utility.yul\":2336:2343   */\n      not\n        /* \"#utility.yul\":2331:2333   */\n      0x1f\n        /* \"#utility.yul\":2324:2329   */\n      dup4\n        /* \"#utility.yul\":2320:2334   */\n      add\n        /* \"#utility.yul\":2316:2344   */\n      and\n        /* \"#utility.yul\":2306:2344   */\n      swap1\n      pop\n        /* \"#utility.yul\":2248:2350   */\n      swap2\n      swap1\n      pop\n      jump\t// out\n        /* \"#utility.yul\":2356:2536   */\n    tag_101:\n        /* \"#utility.yul\":2404:2481   */\n      0x4e487b7100000000000000000000000000000000000000000000000000000000\n        /* \"#utility.yul\":2401:2402   */\n      0x00\n        /* \"#utility.yul\":2394:2482   */\n      mstore\n        /* \"#utility.yul\":2501:2505   */\n      0x41\n        /* \"#utility.yul\":2498:2499   */\n      0x04\n        /* \"#utility.yul\":2491:2506   */\n      mstore\n        /* \"#utility.yul\":2525:2529   */\n      0x24\n        /* \"#utility.yul\":2522:2523   */\n      0x00\n        /* \"#utility.yul\":2515:2530   */\n      revert\n        /* \"#utility.yul\":2542:2823   */\n    tag_102:\n        /* \"#utility.yul\":2625:2652   */\n      tag_177\n        /* \"#utility.yul\":2647:2651   */\n      dup3\n        /* \"#utility.yul\":2625:2652   */\n      tag_100\n      jump\t// in\n    tag_177:\n        /* \"#utility.yul\":2617:2623   */\n      dup2\n        /* \"#utility.yul\":2613:2653   */\n      add\n        /* \"#utility.yul\":2755:2761   */\n      dup2\n        /* \"#utility.yul\":2743:2753   */\n      dup2\n        /* \"#utility.yul\":2740:2762   */\n      lt\n        /* \"#utility.yul\":2719:2737   */\n      0xffffffffffffffff\n        /* \"#utility.yul\":2707:2717   */\n      dup3\n        /* \"#utility.yul\":2704:2738   */\n      gt\n        /* \"#utility.yul\":2701:2763   */\n      or\n        /* \"#utility.yul\":2698:2786   */\n      iszero\n      tag_178\n      jumpi\n        /* \"#utility.yul\":2766:2784   */\n      tag_179\n      tag_101\n      jump\t// in\n    tag_179:\n        /* \"#utility.yul\":2698:2786   */\n    tag_178:\n        /* \"#utility.yul\":2806:2816   */\n      dup1\n        /* \"#utility.yul\":2802:2804   */\n      0x40\n        /* \"#utility.yul\":2795:2817   */\n      mstore\n        /* \"#utility.yul\":2585:2823   */\n      pop\n        /* \"#utility.yul\":2542:2823   */\n      pop\n      pop\n      jump\t// out\n        /* \"#utility.yul\":2829:2958   */\n    tag_103:\n        /* \"#utility.yul\":2863:2869   */\n      0x00\n        /* \"#utility.yul\":2890:2910   */\n      tag_181\n      tag_91\n      jump\t// in\n    tag_181:\n        /* \"#utility.yul\":2880:2910   */\n      swap1\n      pop\n        /* \"#utility.yul\":2919:2952   */\n      tag_182\n        /* \"#utility.yul\":2947:2951   */\n      dup3\n        /* \"#utility.yul\":2939:2945   */\n      dup3\n        /* \"#utility.yul\":2919:2952   */\n      tag_102\n      jump\t// in\n    tag_182:\n        /* \"#utility.yul\":2829:2958   */\n      swap2\n      swap1\n      pop\n      jump\t// out\n        /* \"#utility.yul\":2964:3272   */\n    tag_104:\n        /* \"#utility.yul\":3026:3030   */\n      0x00\n        /* \"#utility.yul\":3116:3134   */\n      0xffffffffffffffff\n        /* \"#utility.yul\":3108:3114   */\n      dup3\n        /* \"#utility.yul\":3105:3135   */\n      gt\n        /* \"#utility.yul\":3102:3158   */\n      iszero\n      tag_184\n      jumpi\n        /* \"#utility.yul\":3138:3156   */\n      tag_185\n      tag_101\n      jump\t// in\n    tag_185:\n        /* \"#utility.yul\":3102:3158   */\n    tag_184:\n        /* \"#utility.yul\":3176:3205   */\n      tag_186\n        /* \"#utility.yul\":3198:3204   */\n      dup3\n        /* \"#utility.yul\":3176:3205   */\n      tag_100\n      jump\t// in\n    tag_186:\n        /* \"#utility.yul\":3168:3205   */\n      swap1\n      pop\n        /* \"#utility.yul\":3260:3264   */\n      0x20\n        /* \"#utility.yul\":3254:3258   */\n      dup2\n        /* \"#utility.yul\":3250:3265   */\n      add\n        /* \"#utility.yul\":3242:3265   */\n      swap1\n      pop\n        /* \"#utility.yul\":2964:3272   */\n      swap2\n      swap1\n      pop\n      jump\t// out\n        /* \"#utility.yul\":3278:3424   */\n    tag_105:\n        /* \"#utility.yul\":3375:3381   */\n      dup3\n        /* \"#utility.yul\":3370:3373   */\n      dup2\n        /* \"#utility.yul\":3365:3368   */\n      dup4\n        /* \"#utility.yul\":3352:3382   */\n      calldatacopy\n        /* \"#utility.yul\":3416:3417   */\n      0x00\n        /* \"#utility.yul\":3407:3413   */\n      dup4\n        /* \"#utility.yul\":3402:3405   */\n      dup4\n        /* \"#utility.yul\":3398:3414   */\n      add\n        /* \"#utility.yul\":3391:3418   */\n      mstore\n        /* \"#utility.yul\":3278:3424   */\n      pop\n      pop\n      pop\n      jump\t// out\n        /* \"#utility.yul\":3430:3855   */\n    tag_106:\n        /* \"#utility.yul\":3508:3513   */\n      0x00\n        /* \"#utility.yul\":3533:3599   */\n      tag_189\n        /* \"#utility.yul\":3549:3598   */\n      tag_190\n        /* \"#utility.yul\":3591:3597   */\n      dup5\n        /* \"#utility.yul\":3549:3598   */\n      tag_104\n      jump\t// in\n    tag_190:\n        /* \"#utility.yul\":3533:3599   */\n      tag_103\n      jump\t// in\n    tag_189:\n        /* \"#utility.yul\":3524:3599   */\n      swap1\n      pop\n        /* \"#utility.yul\":3622:3628   */\n      dup3\n        /* \"#utility.yul\":3615:3620   */\n      dup2\n        /* \"#utility.yul\":3608:3629   */\n      mstore\n        /* \"#utility.yul\":3660:3664   */\n      0x20\n        /* \"#utility.yul\":3653:3658   */\n      dup2\n        /* \"#utility.yul\":3649:3665   */\n      add\n        /* \"#utility.yul\":3698:3701   */\n      dup5\n        /* \"#utility.yul\":3689:3695   */\n      dup5\n        /* \"#utility.yul\":3684:3687   */\n      dup5\n        /* \"#utility.yul\":3680:3696   */\n      add\n        /* \"#utility.yul\":3677:3702   */\n      gt\n        /* \"#utility.yul\":3674:3786   */\n      iszero\n      tag_191\n      jumpi\n        /* \"#utility.yul\":3705:3784   */\n      tag_192\n      tag_99\n      jump\t// in\n    tag_192:\n        /* \"#utility.yul\":3674:3786   */\n    tag_191:\n        /* \"#utility.yul\":3795:3849   */\n      tag_193\n        /* \"#utility.yul\":3842:3848   */\n      dup5\n        /* \"#utility.yul\":3837:3840   */\n      dup3\n        /* \"#utility.yul\":3832:3835   */\n      dup6\n        /* \"#utility.yul\":3795:3849   */\n      tag_105\n      jump\t// in\n    tag_193:\n        /* \"#utility.yul\":3514:3855   */\n      pop\n        /* \"#utility.yul\":3430:3855   */\n      swap4\n      swap3\n      pop\n      pop\n      pop\n      jump\t// out\n        /* \"#utility.yul\":3875:4215   */\n    tag_107:\n        /* \"#utility.yul\":3931:3936   */\n      0x00\n        /* \"#utility.yul\":3980:3983   */\n      dup3\n        /* \"#utility.yul\":3973:3977   */\n      0x1f\n        /* \"#utility.yul\":3965:3971   */\n      dup4\n        /* \"#utility.yul\":3961:3978   */\n      add\n        /* \"#utility.yul\":3957:3984   */\n      slt\n        /* \"#utility.yul\":3947:4069   */\n      tag_195\n      jumpi\n        /* \"#utility.yul\":3988:4067   */\n      tag_196\n      tag_98\n      jump\t// in\n    tag_196:\n        /* \"#utility.yul\":3947:4069   */\n    tag_195:\n        /* \"#utility.yul\":4105:4111   */\n      dup2\n        /* \"#utility.yul\":4092:4112   */\n      calldataload\n        /* \"#utility.yul\":4130:4209   */\n      tag_197\n        /* \"#utility.yul\":4205:4208   */\n      dup5\n        /* \"#utility.yul\":4197:4203   */\n      dup3\n        /* \"#utility.yul\":4190:4194   */\n      0x20\n        /* \"#utility.yul\":4182:4188   */\n      dup7\n        /* \"#utility.yul\":4178:4195   */\n      add\n        /* \"#utility.yul\":4130:4209   */\n      tag_106\n      jump\t// in\n    tag_197:\n        /* \"#utility.yul\":4121:4209   */\n      swap2\n      pop\n        /* \"#utility.yul\":3937:4215   */\n      pop\n        /* \"#utility.yul\":3875:4215   */\n      swap3\n      swap2\n      pop\n      pop\n      jump\t// out\n        /* \"#utility.yul\":4221:5020   */\n    tag_23:\n        /* \"#utility.yul\":4308:4314   */\n      0x00\n        /* \"#utility.yul\":4316:4322   */\n      dup1\n        /* \"#utility.yul\":4324:4330   */\n      0x00\n        /* \"#utility.yul\":4373:4375   */\n      0x60\n        /* \"#utility.yul\":4361:4370   */\n      dup5\n        /* \"#utility.yul\":4352:4359   */\n      dup7\n        /* \"#utility.yul\":4348:4371   */\n      sub\n        /* \"#utility.yul\":4344:4376   */\n      slt\n        /* \"#utility.yul\":4341:4460   */\n      iszero\n      tag_199\n      jumpi\n        /* \"#utility.yul\":4379:4458   */\n      tag_200\n      tag_92\n      jump\t// in\n    tag_200:\n        /* \"#utility.yul\":4341:4460   */\n    tag_199:\n        /* \"#utility.yul\":4527:4528   */\n      0x00\n        /* \"#utility.yul\":4516:4525   */\n      dup5\n        /* \"#utility.yul\":4512:4529   */\n      add\n        /* \"#utility.yul\":4499:4530   */\n      calldataload\n        /* \"#utility.yul\":4557:4575   */\n      0xffffffffffffffff\n        /* \"#utility.yul\":4549:4555   */\n      dup2\n        /* \"#utility.yul\":4546:4576   */\n      gt\n        /* \"#utility.yul\":4543:4660   */\n      iszero\n      tag_201\n      jumpi\n        /* \"#utility.yul\":4579:4658   */\n      tag_202\n      tag_93\n      jump\t// in\n    tag_202:\n        /* \"#utility.yul\":4543:4660   */\n    tag_201:\n        /* \"#utility.yul\":4684:4747   */\n      tag_203\n        /* \"#utility.yul\":4739:4746   */\n      dup7\n        /* \"#utility.yul\":4730:4736   */\n      dup3\n        /* \"#utility.yul\":4719:4728   */\n      dup8\n        /* \"#utility.yul\":4715:4737   */\n      add\n        /* \"#utility.yul\":4684:4747   */\n      tag_107\n      jump\t// in\n    tag_203:\n        /* \"#utility.yul\":4674:4747   */\n      swap4\n      pop\n        /* \"#utility.yul\":4470:4757   */\n      pop\n        /* \"#utility.yul\":4796:4798   */\n      0x20\n        /* \"#utility.yul\":4822:4875   */\n      tag_204\n        /* \"#utility.yul\":4867:4874   */\n      dup7\n        /* \"#utility.yul\":4858:4864   */\n      dup3\n        /* \"#utility.yul\":4847:4856   */\n      dup8\n        /* \"#utility.yul\":4843:4865   */\n      add\n        /* \"#utility.yul\":4822:4875   */\n      tag_96\n      jump\t// in\n    tag_204:\n        /* \"#utility.yul\":4812:4875   */\n      swap3\n      pop\n        /* \"#utility.yul\":4767:4885   */\n      pop\n        /* \"#utility.yul\":4924:4926   */\n      0x40\n        /* \"#utility.yul\":4950:5003   */\n      tag_205\n        /* \"#utility.yul\":4995:5002   */\n      dup7\n        /* \"#utility.yul\":4986:4992   */\n      dup3\n        /* \"#utility.yul\":4975:4984   */\n      dup8\n        /* \"#utility.yul\":4971:4993   */\n      add\n        /* \"#utility.yul\":4950:5003   */\n      tag_96\n      jump\t// in\n    tag_205:\n        /* \"#utility.yul\":4940:5003   */\n      swap2\n      pop\n        /* \"#utility.yul\":4895:5013   */\n      pop\n        /* \"#utility.yul\":4221:5020   */\n      swap3\n      pop\n      swap3\n      pop\n      swap3\n      jump\t// out\n        /* \"#utility.yul\":5026:5125   */\n    tag_108:\n        /* \"#utility.yul\":5078:5084   */\n      0x00\n        /* \"#utility.yul\":5112:5117   */\n      dup2\n        /* \"#utility.yul\":5106:5118   */\n      mload\n        /* \"#utility.yul\":5096:5118   */\n      swap1\n      pop\n        /* \"#utility.yul\":5026:5125   */\n      swap2\n      swap1\n      pop\n      jump\t// out\n        /* \"#utility.yul\":5131:5300   */\n    tag_109:\n        /* \"#utility.yul\":5215:5226   */\n      0x00\n        /* \"#utility.yul\":5249:5255   */\n      dup3\n        /* \"#utility.yul\":5244:5247   */\n      dup3\n        /* \"#utility.yul\":5237:5256   */\n      mstore\n        /* \"#utility.yul\":5289:5293   */\n      0x20\n        /* \"#utility.yul\":5284:5287   */\n      dup3\n        /* \"#utility.yul\":5280:5294   */\n      add\n        /* \"#utility.yul\":5265:5294   */\n      swap1\n      pop\n        /* \"#utility.yul\":5131:5300   */\n      swap3\n      swap2\n      pop\n      pop\n      jump\t// out\n        /* \"#utility.yul\":5306:5552   */\n    tag_110:\n        /* \"#utility.yul\":5387:5388   */\n      0x00\n        /* \"#utility.yul\":5397:5510   */\n    tag_209:\n        /* \"#utility.yul\":5411:5417   */\n      dup4\n        /* \"#utility.yul\":5408:5409   */\n      dup2\n        /* \"#utility.yul\":5405:5418   */\n      lt\n        /* \"#utility.yul\":5397:5510   */\n      iszero\n      tag_211\n      jumpi\n        /* \"#utility.yul\":5496:5497   */\n      dup1\n        /* \"#utility.yul\":5491:5494   */\n      dup3\n        /* \"#utility.yul\":5487:5498   */\n      add\n        /* \"#utility.yul\":5481:5499   */\n      mload\n        /* \"#utility.yul\":5477:5478   */\n      dup2\n        /* \"#utility.yul\":5472:5475   */\n      dup5\n        /* \"#utility.yul\":5468:5479   */\n      add\n        /* \"#utility.yul\":5461:5500   */\n      mstore\n        /* \"#utility.yul\":5433:5435   */\n      0x20\n        /* \"#utility.yul\":5430:5431   */\n      dup2\n        /* \"#utility.yul\":5426:5436   */\n      add\n        /* \"#utility.yul\":5421:5436   */\n      swap1\n      pop\n        /* \"#utility.yul\":5397:5510   */\n      jump(tag_209)\n    tag_211:\n        /* \"#utility.yul\":5544:5545   */\n      0x00\n        /* \"#utility.yul\":5535:5541   */\n      dup5\n        /* \"#utility.yul\":5530:5533   */\n      dup5\n        /* \"#utility.yul\":5526:5542   */\n      add\n        /* \"#utility.yul\":5519:5546   */\n      mstore\n        /* \"#utility.yul\":5368:5552   */\n      pop\n        /* \"#utility.yul\":5306:5552   */\n      pop\n      pop\n      pop\n      jump\t// out\n        /* \"#utility.yul\":5558:5935   */\n    tag_111:\n        /* \"#utility.yul\":5646:5649   */\n      0x00\n        /* \"#utility.yul\":5674:5713   */\n      tag_213\n        /* \"#utility.yul\":5707:5712   */\n      dup3\n        /* \"#utility.yul\":5674:5713   */\n      tag_108\n      jump\t// in\n    tag_213:\n        /* \"#utility.yul\":5729:5800   */\n      tag_214\n        /* \"#utility.yul\":5793:5799   */\n      dup2\n        /* \"#utility.yul\":5788:5791   */\n      dup6\n        /* \"#utility.yul\":5729:5800   */\n      tag_109\n      jump\t// in\n    tag_214:\n        /* \"#utility.yul\":5722:5800   */\n      swap4\n      pop\n        /* \"#utility.yul\":5809:5874   */\n      tag_215\n        /* \"#utility.yul\":5867:5873   */\n      dup2\n        /* \"#utility.yul\":5862:5865   */\n      dup6\n        /* \"#utility.yul\":5855:5859   */\n      0x20\n        /* \"#utility.yul\":5848:5853   */\n      dup7\n        /* \"#utility.yul\":5844:5860   */\n      add\n        /* \"#utility.yul\":5809:5874   */\n      tag_110\n      jump\t// in\n    tag_215:\n        /* \"#utility.yul\":5899:5928   */\n      tag_216\n        /* \"#utility.yul\":5921:5927   */\n      dup2\n        /* \"#utility.yul\":5899:5928   */\n      tag_100\n      jump\t// in\n    tag_216:\n        /* \"#utility.yul\":5894:5897   */\n      dup5\n        /* \"#utility.yul\":5890:5929   */\n      add\n        /* \"#utility.yul\":5883:5929   */\n      swap2\n      pop\n        /* \"#utility.yul\":5650:5935   */\n      pop\n        /* \"#utility.yul\":5558:5935   */\n      swap3\n      swap2\n      pop\n      pop\n      jump\t// out\n        /* \"#utility.yul\":5941:6067   */\n    tag_112:\n        /* \"#utility.yul\":5978:5985   */\n      0x00\n        /* \"#utility.yul\":6018:6060   */\n      0xffffffffffffffffffffffffffffffffffffffff\n        /* \"#utility.yul\":6011:6016   */\n      dup3\n        /* \"#utility.yul\":6007:6061   */\n      and\n        /* \"#utility.yul\":5996:6061   */\n      swap1\n      pop\n        /* \"#utility.yul\":5941:6067   */\n      swap2\n      swap1\n      pop\n      jump\t// out\n        /* \"#utility.yul\":6073:6169   */\n    tag_113:\n        /* \"#utility.yul\":6110:6117   */\n      0x00\n        /* \"#utility.yul\":6139:6163   */\n      tag_219\n        /* \"#utility.yul\":6157:6162   */\n      dup3\n        /* \"#utility.yul\":6139:6163   */\n      tag_112\n      jump\t// in\n    tag_219:\n        /* \"#utility.yul\":6128:6163   */\n      swap1\n      pop\n        /* \"#utility.yul\":6073:6169   */\n      swap2\n      swap1\n      pop\n      jump\t// out\n        /* \"#utility.yul\":6175:6293   */\n    tag_114:\n        /* \"#utility.yul\":6262:6286   */\n      tag_221\n        /* \"#utility.yul\":6280:6285   */\n      dup2\n        /* \"#utility.yul\":6262:6286   */\n      tag_113\n      jump\t// in\n    tag_221:\n        /* \"#utility.yul\":6257:6260   */\n      dup3\n        /* \"#utility.yul\":6250:6287   */\n      mstore\n        /* \"#utility.yul\":6175:6293   */\n      pop\n      pop\n      jump\t// out\n        /* \"#utility.yul\":6299:7609   */\n    tag_30:\n        /* \"#utility.yul\":6664:6668   */\n      0x00\n        /* \"#utility.yul\":6702:6705   */\n      0x0140\n        /* \"#utility.yul\":6691:6700   */\n      dup3\n        /* \"#utility.yul\":6687:6706   */\n      add\n        /* \"#utility.yul\":6679:6706   */\n      swap1\n      pop\n        /* \"#utility.yul\":6716:6787   */\n      tag_223\n        /* \"#utility.yul\":6784:6785   */\n      0x00\n        /* \"#utility.yul\":6773:6782   */\n      dup4\n        /* \"#utility.yul\":6769:6786   */\n      add\n        /* \"#utility.yul\":6760:6766   */\n      dup14\n        /* \"#utility.yul\":6716:6787   */\n      tag_97\n      jump\t// in\n    tag_223:\n        /* \"#utility.yul\":6834:6843   */\n      dup2\n        /* \"#utility.yul\":6828:6832   */\n      dup2\n        /* \"#utility.yul\":6824:6844   */\n      sub\n        /* \"#utility.yul\":6819:6821   */\n      0x20\n        /* \"#utility.yul\":6808:6817   */\n      dup4\n        /* \"#utility.yul\":6804:6822   */\n      add\n        /* \"#utility.yul\":6797:6845   */\n      mstore\n        /* \"#utility.yul\":6862:6940   */\n      tag_224\n        /* \"#utility.yul\":6935:6939   */\n      dup2\n        /* \"#utility.yul\":6926:6932   */\n      dup13\n        /* \"#utility.yul\":6862:6940   */\n      tag_111\n      jump\t// in\n    tag_224:\n        /* \"#utility.yul\":6854:6940   */\n      swap1\n      pop\n        /* \"#utility.yul\":6950:7022   */\n      tag_225\n        /* \"#utility.yul\":7018:7020   */\n      0x40\n        /* \"#utility.yul\":7007:7016   */\n      dup4\n        /* \"#utility.yul\":7003:7021   */\n      add\n        /* \"#utility.yul\":6994:7000   */\n      dup12\n        /* \"#utility.yul\":6950:7022   */\n      tag_97\n      jump\t// in\n    tag_225:\n        /* \"#utility.yul\":7032:7104   */\n      tag_226\n        /* \"#utility.yul\":7100:7102   */\n      0x60\n        /* \"#utility.yul\":7089:7098   */\n      dup4\n        /* \"#utility.yul\":7085:7103   */\n      add\n        /* \"#utility.yul\":7076:7082   */\n      dup11\n        /* \"#utility.yul\":7032:7104   */\n      tag_97\n      jump\t// in\n    tag_226:\n        /* \"#utility.yul\":7114:7187   */\n      tag_227\n        /* \"#utility.yul\":7182:7185   */\n      0x80\n        /* \"#utility.yul\":7171:7180   */\n      dup4\n        /* \"#utility.yul\":7167:7186   */\n      add\n        /* \"#utility.yul\":7158:7164   */\n      dup10\n        /* \"#utility.yul\":7114:7187   */\n      tag_97\n      jump\t// in\n    tag_227:\n        /* \"#utility.yul\":7197:7270   */\n      tag_228\n        /* \"#utility.yul\":7265:7268   */\n      0xa0\n        /* \"#utility.yul\":7254:7263   */\n      dup4\n        /* \"#utility.yul\":7250:7269   */\n      add\n        /* \"#utility.yul\":7241:7247   */\n      dup9\n        /* \"#utility.yul\":7197:7270   */\n      tag_114\n      jump\t// in\n    tag_228:\n        /* \"#utility.yul\":7280:7353   */\n      tag_229\n        /* \"#utility.yul\":7348:7351   */\n      0xc0\n        /* \"#utility.yul\":7337:7346   */\n      dup4\n        /* \"#utility.yul\":7333:7352   */\n      add\n        /* \"#utility.yul\":7324:7330   */\n      dup8\n        /* \"#utility.yul\":7280:7353   */\n      tag_114\n      jump\t// in\n    tag_229:\n        /* \"#utility.yul\":7363:7436   */\n      tag_230\n        /* \"#utility.yul\":7431:7434   */\n      0xe0\n        /* \"#utility.yul\":7420:7429   */\n      dup4\n        /* \"#utility.yul\":7416:7435   */\n      add\n        /* \"#utility.yul\":7407:7413   */\n      dup7\n        /* \"#utility.yul\":7363:7436   */\n      tag_114\n      jump\t// in\n    tag_230:\n        /* \"#utility.yul\":7446:7519   */\n      tag_231\n        /* \"#utility.yul\":7514:7517   */\n      0x0100\n        /* \"#utility.yul\":7503:7512   */\n      dup4\n        /* \"#utility.yul\":7499:7518   */\n      add\n        /* \"#utility.yul\":7490:7496   */\n      dup6\n        /* \"#utility.yul\":7446:7519   */\n      tag_114\n      jump\t// in\n    tag_231:\n        /* \"#utility.yul\":7529:7602   */\n      tag_232\n        /* \"#utility.yul\":7597:7600   */\n      0x0120\n        /* \"#utility.yul\":7586:7595   */\n      dup4\n        /* \"#utility.yul\":7582:7601   */\n      add\n        /* \"#utility.yul\":7573:7579   */\n      dup5\n        /* \"#utility.yul\":7529:7602   */\n      tag_114\n      jump\t// in\n    tag_232:\n        /* \"#utility.yul\":6299:7609   */\n      swap12\n      swap11\n      pop\n      pop\n      pop\n      pop\n      pop\n      pop\n      pop\n      pop\n      pop\n      pop\n      pop\n      jump\t// out\n        /* \"#utility.yul\":7615:7737   */\n    tag_115:\n        /* \"#utility.yul\":7688:7712   */\n      tag_234\n        /* \"#utility.yul\":7706:7711   */\n      dup2\n        /* \"#utility.yul\":7688:7712   */\n      tag_113\n      jump\t// in\n    tag_234:\n        /* \"#utility.yul\":7681:7686   */\n      dup2\n        /* \"#utility.yul\":7678:7713   */\n      eq\n        /* \"#utility.yul\":7668:7731   */\n      tag_235\n      jumpi\n        /* \"#utility.yul\":7727:7728   */\n      0x00\n        /* \"#utility.yul\":7724:7725   */\n      dup1\n        /* \"#utility.yul\":7717:7729   */\n      revert\n        /* \"#utility.yul\":7668:7731   */\n    tag_235:\n        /* \"#utility.yul\":7615:7737   */\n      pop\n      jump\t// out\n        /* \"#utility.yul\":7743:7882   */\n    tag_116:\n        /* \"#utility.yul\":7789:7794   */\n      0x00\n        /* \"#utility.yul\":7827:7833   */\n      dup2\n        /* \"#utility.yul\":7814:7834   */\n      calldataload\n        /* \"#utility.yul\":7805:7834   */\n      swap1\n      pop\n        /* \"#utility.yul\":7843:7876   */\n      tag_237\n        /* \"#utility.yul\":7870:7875   */\n      dup2\n        /* \"#utility.yul\":7843:7876   */\n      tag_115\n      jump\t// in\n    tag_237:\n        /* \"#utility.yul\":7743:7882   */\n      swap3\n      swap2\n      pop\n      pop\n      jump\t// out\n        /* \"#utility.yul\":7888:8799   */\n    tag_37:\n        /* \"#utility.yul\":7983:7989   */\n      0x00\n        /* \"#utility.yul\":7991:7997   */\n      dup1\n        /* \"#utility.yul\":7999:8005   */\n      0x00\n        /* \"#utility.yul\":8007:8013   */\n      dup1\n        /* \"#utility.yul\":8015:8021   */\n      0x00\n        /* \"#utility.yul\":8064:8067   */\n      0xa0\n        /* \"#utility.yul\":8052:8061   */\n      dup7\n        /* \"#utility.yul\":8043:8050   */\n      dup9\n        /* \"#utility.yul\":8039:8062   */\n      sub\n        /* \"#utility.yul\":8035:8068   */\n      slt\n        /* \"#utility.yul\":8032:8152   */\n      iszero\n      tag_239\n      jumpi\n        /* \"#utility.yul\":8071:8150   */\n      tag_240\n      tag_92\n      jump\t// in\n    tag_240:\n        /* \"#utility.yul\":8032:8152   */\n    tag_239:\n        /* \"#utility.yul\":8191:8192   */\n      0x00\n        /* \"#utility.yul\":8216:8269   */\n      tag_241\n        /* \"#utility.yul\":8261:8268   */\n      dup9\n        /* \"#utility.yul\":8252:8258   */\n      dup3\n        /* \"#utility.yul\":8241:8250   */\n      dup10\n        /* \"#utility.yul\":8237:8259   */\n      add\n        /* \"#utility.yul\":8216:8269   */\n      tag_96\n      jump\t// in\n    tag_241:\n        /* \"#utility.yul\":8206:8269   */\n      swap6\n      pop\n        /* \"#utility.yul\":8162:8279   */\n      pop\n        /* \"#utility.yul\":8318:8320   */\n      0x20\n        /* \"#utility.yul\":8344:8397   */\n      tag_242\n        /* \"#utility.yul\":8389:8396   */\n      dup9\n        /* \"#utility.yul\":8380:8386   */\n      dup3\n        /* \"#utility.yul\":8369:8378   */\n      dup10\n        /* \"#utility.yul\":8365:8387   */\n      add\n        /* \"#utility.yul\":8344:8397   */\n      tag_116\n      jump\t// in\n    tag_242:\n        /* \"#utility.yul\":8334:8397   */\n      swap5\n      pop\n        /* \"#utility.yul\":8289:8407   */\n      pop\n        /* \"#utility.yul\":8446:8448   */\n      0x40\n        /* \"#utility.yul\":8472:8525   */\n      tag_243\n        /* \"#utility.yul\":8517:8524   */\n      dup9\n        /* \"#utility.yul\":8508:8514   */\n      dup3\n        /* \"#utility.yul\":8497:8506   */\n      dup10\n        /* \"#utility.yul\":8493:8515   */\n      add\n        /* \"#utility.yul\":8472:8525   */\n      tag_116\n      jump\t// in\n    tag_243:\n        /* \"#utility.yul\":8462:8525   */\n      swap4\n      pop\n        /* \"#utility.yul\":8417:8535   */\n      pop\n        /* \"#utility.yul\":8574:8576   */\n      0x60\n        /* \"#utility.yul\":8600:8653   */\n      tag_244\n        /* \"#utility.yul\":8645:8652   */\n      dup9\n        /* \"#utility.yul\":8636:8642   */\n      dup3\n        /* \"#utility.yul\":8625:8634   */\n      dup10\n        /* \"#utility.yul\":8621:8643   */\n      add\n        /* \"#utility.yul\":8600:8653   */\n      tag_116\n      jump\t// in\n    tag_244:\n        /* \"#utility.yul\":8590:8653   */\n      swap3\n      pop\n        /* \"#utility.yul\":8545:8663   */\n      pop\n        /* \"#utility.yul\":8702:8705   */\n      0x80\n        /* \"#utility.yul\":8729:8782   */\n      tag_245\n        /* \"#utility.yul\":8774:8781   */\n      dup9\n        /* \"#utility.yul\":8765:8771   */\n      dup3\n        /* \"#utility.yul\":8754:8763   */\n      dup10\n        /* \"#utility.yul\":8750:8772   */\n      add\n        /* \"#utility.yul\":8729:8782   */\n      tag_116\n      jump\t// in\n    tag_245:\n        /* \"#utility.yul\":8719:8782   */\n      swap2\n      pop\n        /* \"#utility.yul\":8673:8792   */\n      pop\n        /* \"#utility.yul\":7888:8799   */\n      swap3\n      swap6\n      pop\n      swap3\n      swap6\n      swap1\n      swap4\n      pop\n      jump\t// out\n        /* \"#utility.yul\":8805:9035   */\n    tag_117:\n        /* \"#utility.yul\":8945:8979   */\n      0x4f6e6c7920617574686f72697a656420706172746965732063616e2075706461\n        /* \"#utility.yul\":8941:8942   */\n      0x00\n        /* \"#utility.yul\":8933:8939   */\n      dup3\n        /* \"#utility.yul\":8929:8943   */\n      add\n        /* \"#utility.yul\":8922:8980   */\n      mstore\n        /* \"#utility.yul\":9014:9027   */\n      0x7465207468652063726f70000000000000000000000000000000000000000000\n        /* \"#utility.yul\":9009:9011   */\n      0x20\n        /* \"#utility.yul\":9001:9007   */\n      dup3\n        /* \"#utility.yul\":8997:9012   */\n      add\n        /* \"#utility.yul\":8990:9028   */\n      mstore\n        /* \"#utility.yul\":8805:9035   */\n      pop\n      jump\t// out\n        /* \"#utility.yul\":9041:9407   */\n    tag_118:\n        /* \"#utility.yul\":9183:9186   */\n      0x00\n        /* \"#utility.yul\":9204:9271   */\n      tag_248\n        /* \"#utility.yul\":9268:9270   */\n      0x2b\n        /* \"#utility.yul\":9263:9266   */\n      dup4\n        /* \"#utility.yul\":9204:9271   */\n      tag_109\n      jump\t// in\n    tag_248:\n        /* \"#utility.yul\":9197:9271   */\n      swap2\n      pop\n        /* \"#utility.yul\":9280:9373   */\n      tag_249\n        /* \"#utility.yul\":9369:9372   */\n      dup3\n        /* \"#utility.yul\":9280:9373   */\n      tag_117\n      jump\t// in\n    tag_249:\n        /* \"#utility.yul\":9398:9400   */\n      0x40\n        /* \"#utility.yul\":9393:9396   */\n      dup3\n        /* \"#utility.yul\":9389:9401   */\n      add\n        /* \"#utility.yul\":9382:9401   */\n      swap1\n      pop\n        /* \"#utility.yul\":9041:9407   */\n      swap2\n      swap1\n      pop\n      jump\t// out\n        /* \"#utility.yul\":9413:9832   */\n    tag_48:\n        /* \"#utility.yul\":9579:9583   */\n      0x00\n        /* \"#utility.yul\":9617:9619   */\n      0x20\n        /* \"#utility.yul\":9606:9615   */\n      dup3\n        /* \"#utility.yul\":9602:9620   */\n      add\n        /* \"#utility.yul\":9594:9620   */\n      swap1\n      pop\n        /* \"#utility.yul\":9666:9675   */\n      dup2\n        /* \"#utility.yul\":9660:9664   */\n      dup2\n        /* \"#utility.yul\":9656:9676   */\n      sub\n        /* \"#utility.yul\":9652:9653   */\n      0x00\n        /* \"#utility.yul\":9641:9650   */\n      dup4\n        /* \"#utility.yul\":9637:9654   */\n      add\n        /* \"#utility.yul\":9630:9677   */\n      mstore\n        /* \"#utility.yul\":9694:9825   */\n      tag_251\n        /* \"#utility.yul\":9820:9824   */\n      dup2\n        /* \"#utility.yul\":9694:9825   */\n      tag_118\n      jump\t// in\n    tag_251:\n        /* \"#utility.yul\":9686:9825   */\n      swap1\n      pop\n        /* \"#utility.yul\":9413:9832   */\n      swap2\n      swap1\n      pop\n      jump\t// out\n        /* \"#utility.yul\":9838:10018   */\n    tag_119:\n        /* \"#utility.yul\":9886:9963   */\n      0x4e487b7100000000000000000000000000000000000000000000000000000000\n        /* \"#utility.yul\":9883:9884   */\n      0x00\n        /* \"#utility.yul\":9876:9964   */\n      mstore\n        /* \"#utility.yul\":9983:9987   */\n      0x11\n        /* \"#utility.yul\":9980:9981   */\n      0x04\n        /* \"#utility.yul\":9973:9988   */\n      mstore\n        /* \"#utility.yul\":10007:10011   */\n      0x24\n        /* \"#utility.yul\":10004:10005   */\n      0x00\n        /* \"#utility.yul\":9997:10012   */\n      revert\n        /* \"#utility.yul\":10024:10218   */\n    tag_51:\n        /* \"#utility.yul\":10064:10068   */\n      0x00\n        /* \"#utility.yul\":10084:10104   */\n      tag_254\n        /* \"#utility.yul\":10102:10103   */\n      dup3\n        /* \"#utility.yul\":10084:10104   */\n      tag_94\n      jump\t// in\n    tag_254:\n        /* \"#utility.yul\":10079:10104   */\n      swap2\n      pop\n        /* \"#utility.yul\":10118:10138   */\n      tag_255\n        /* \"#utility.yul\":10136:10137   */\n      dup4\n        /* \"#utility.yul\":10118:10138   */\n      tag_94\n      jump\t// in\n    tag_255:\n        /* \"#utility.yul\":10113:10138   */\n      swap3\n      pop\n        /* \"#utility.yul\":10162:10163   */\n      dup3\n        /* \"#utility.yul\":10159:10160   */\n      dup3\n        /* \"#utility.yul\":10155:10164   */\n      sub\n        /* \"#utility.yul\":10147:10164   */\n      swap1\n      pop\n        /* \"#utility.yul\":10186:10187   */\n      dup2\n        /* \"#utility.yul\":10180:10184   */\n      dup2\n        /* \"#utility.yul\":10177:10188   */\n      gt\n        /* \"#utility.yul\":10174:10211   */\n      iszero\n      tag_256\n      jumpi\n        /* \"#utility.yul\":10191:10209   */\n      tag_257\n      tag_119\n      jump\t// in\n    tag_257:\n        /* \"#utility.yul\":10174:10211   */\n    tag_256:\n        /* \"#utility.yul\":10024:10218   */\n      swap3\n      swap2\n      pop\n      pop\n      jump\t// out\n        /* \"#utility.yul\":10224:10415   */\n    tag_57:\n        /* \"#utility.yul\":10264:10267   */\n      0x00\n        /* \"#utility.yul\":10283:10303   */\n      tag_259\n        /* \"#utility.yul\":10301:10302   */\n      dup3\n        /* \"#utility.yul\":10283:10303   */\n      tag_94\n      jump\t// in\n    tag_259:\n        /* \"#utility.yul\":10278:10303   */\n      swap2\n      pop\n        /* \"#utility.yul\":10317:10337   */\n      tag_260\n        /* \"#utility.yul\":10335:10336   */\n      dup4\n        /* \"#utility.yul\":10317:10337   */\n      tag_94\n      jump\t// in\n    tag_260:\n        /* \"#utility.yul\":10312:10337   */\n      swap3\n      pop\n        /* \"#utility.yul\":10360:10361   */\n      dup3\n        /* \"#utility.yul\":10357:10358   */\n      dup3\n        /* \"#utility.yul\":10353:10362   */\n      add\n        /* \"#utility.yul\":10346:10362   */\n      swap1\n      pop\n        /* \"#utility.yul\":10381:10384   */\n      dup1\n        /* \"#utility.yul\":10378:10379   */\n      dup3\n        /* \"#utility.yul\":10375:10385   */\n      gt\n        /* \"#utility.yul\":10372:10408   */\n      iszero\n      tag_261\n      jumpi\n        /* \"#utility.yul\":10388:10406   */\n      tag_262\n      tag_119\n      jump\t// in\n    tag_262:\n        /* \"#utility.yul\":10372:10408   */\n    tag_261:\n        /* \"#utility.yul\":10224:10415   */\n      swap3\n      swap2\n      pop\n      pop\n      jump\t// out\n        /* \"#utility.yul\":10421:10601   */\n    tag_120:\n        /* \"#utility.yul\":10469:10546   */\n      0x4e487b7100000000000000000000000000000000000000000000000000000000\n        /* \"#utility.yul\":10466:10467   */\n      0x00\n        /* \"#utility.yul\":10459:10547   */\n      mstore\n        /* \"#utility.yul\":10566:10570   */\n      0x22\n        /* \"#utility.yul\":10563:10564   */\n      0x04\n        /* \"#utility.yul\":10556:10571   */\n      mstore\n        /* \"#utility.yul\":10590:10594   */\n      0x24\n        /* \"#utility.yul\":10587:10588   */\n      0x00\n        /* \"#utility.yul\":10580:10595   */\n      revert\n        /* \"#utility.yul\":10607:10927   */\n    tag_61:\n        /* \"#utility.yul\":10651:10657   */\n      0x00\n        /* \"#utility.yul\":10688:10689   */\n      0x02\n        /* \"#utility.yul\":10682:10686   */\n      dup3\n        /* \"#utility.yul\":10678:10690   */\n      div\n        /* \"#utility.yul\":10668:10690   */\n      swap1\n      pop\n        /* \"#utility.yul\":10735:10736   */\n      0x01\n        /* \"#utility.yul\":10729:10733   */\n      dup3\n        /* \"#utility.yul\":10725:10737   */\n      and\n        /* \"#utility.yul\":10756:10774   */\n      dup1\n        /* \"#utility.yul\":10746:10827   */\n      tag_265\n      jumpi\n        /* \"#utility.yul\":10812:10816   */\n      0x7f\n        /* \"#utility.yul\":10804:10810   */\n      dup3\n        /* \"#utility.yul\":10800:10817   */\n      and\n        /* \"#utility.yul\":10790:10817   */\n      swap2\n      pop\n        /* \"#utility.yul\":10746:10827   */\n    tag_265:\n        /* \"#utility.yul\":10874:10876   */\n      0x20\n        /* \"#utility.yul\":10866:10872   */\n      dup3\n        /* \"#utility.yul\":10863:10877   */\n      lt\n        /* \"#utility.yul\":10843:10861   */\n      dup2\n        /* \"#utility.yul\":10840:10878   */\n      sub\n        /* \"#utility.yul\":10837:10921   */\n      tag_266\n      jumpi\n        /* \"#utility.yul\":10893:10911   */\n      tag_267\n      tag_120\n      jump\t// in\n    tag_267:\n        /* \"#utility.yul\":10837:10921   */\n    tag_266:\n        /* \"#utility.yul\":10658:10927   */\n      pop\n        /* \"#utility.yul\":10607:10927   */\n      swap2\n      swap1\n      pop\n      jump\t// out\n        /* \"#utility.yul\":10933:11074   */\n    tag_121:\n        /* \"#utility.yul\":10982:10986   */\n      0x00\n        /* \"#utility.yul\":11005:11008   */\n      dup2\n        /* \"#utility.yul\":10997:11008   */\n      swap1\n      pop\n        /* \"#utility.yul\":11028:11031   */\n      dup2\n        /* \"#utility.yul\":11025:11026   */\n      0x00\n        /* \"#utility.yul\":11018:11032   */\n      mstore\n        /* \"#utility.yul\":11062:11066   */\n      0x20\n        /* \"#utility.yul\":11059:11060   */\n      0x00\n        /* \"#utility.yul\":11049:11067   */\n      keccak256\n        /* \"#utility.yul\":11041:11067   */\n      swap1\n      pop\n        /* \"#utility.yul\":10933:11074   */\n      swap2\n      swap1\n      pop\n      jump\t// out\n        /* \"#utility.yul\":11080:11173   */\n    tag_122:\n        /* \"#utility.yul\":11117:11123   */\n      0x00\n        /* \"#utility.yul\":11164:11166   */\n      0x20\n        /* \"#utility.yul\":11159:11161   */\n      0x1f\n        /* \"#utility.yul\":11152:11157   */\n      dup4\n        /* \"#utility.yul\":11148:11162   */\n      add\n        /* \"#utility.yul\":11144:11167   */\n      div\n        /* \"#utility.yul\":11134:11167   */\n      swap1\n      pop\n        /* \"#utility.yul\":11080:11173   */\n      swap2\n      swap1\n      pop\n      jump\t// out\n        /* \"#utility.yul\":11179:11286   */\n    tag_123:\n        /* \"#utility.yul\":11223:11231   */\n      0x00\n        /* \"#utility.yul\":11273:11278   */\n      dup3\n        /* \"#utility.yul\":11267:11271   */\n      dup3\n        /* \"#utility.yul\":11263:11279   */\n      shl\n        /* \"#utility.yul\":11242:11279   */\n      swap1\n      pop\n        /* \"#utility.yul\":11179:11286   */\n      swap3\n      swap2\n      pop\n      pop\n      jump\t// out\n        /* \"#utility.yul\":11292:11685   */\n    tag_124:\n        /* \"#utility.yul\":11361:11367   */\n      0x00\n        /* \"#utility.yul\":11411:11412   */\n      0x08\n        /* \"#utility.yul\":11399:11409   */\n      dup4\n        /* \"#utility.yul\":11395:11413   */\n      mul\n        /* \"#utility.yul\":11434:11531   */\n      tag_272\n        /* \"#utility.yul\":11464:11530   */\n      0xffffffffffffffffffffffffffffffffffffffffffffffffffffffffffffffff\n        /* \"#utility.yul\":11453:11462   */\n      dup3\n        /* \"#utility.yul\":11434:11531   */\n      tag_123\n      jump\t// in\n    tag_272:\n        /* \"#utility.yul\":11552:11591   */\n      tag_273\n        /* \"#utility.yul\":11582:11590   */\n      dup7\n        /* \"#utility.yul\":11571:11580   */\n      dup4\n        /* \"#utility.yul\":11552:11591   */\n      tag_123\n      jump\t// in\n    tag_273:\n        /* \"#utility.yul\":11540:11591   */\n      swap6\n      pop\n        /* \"#utility.yul\":11624:11628   */\n      dup1\n        /* \"#utility.yul\":11620:11629   */\n      not\n        /* \"#utility.yul\":11613:11618   */\n      dup5\n        /* \"#utility.yul\":11609:11630   */\n      and\n        /* \"#utility.yul\":11600:11630   */\n      swap4\n      pop\n        /* \"#utility.yul\":11673:11677   */\n      dup1\n        /* \"#utility.yul\":11663:11671   */\n      dup7\n        /* \"#utility.yul\":11659:11678   */\n      and\n        /* \"#utility.yul\":11652:11657   */\n      dup5\n        /* \"#utility.yul\":11649:11679   */\n      or\n        /* \"#utility.yul\":11639:11679   */\n      swap3\n      pop\n        /* \"#utility.yul\":11368:11685   */\n      pop\n      pop\n        /* \"#utility.yul\":11292:11685   */\n      swap4\n      swap3\n      pop\n      pop\n      pop\n      jump\t// out\n        /* \"#utility.yul\":11691:11751   */\n    tag_125:\n        /* \"#utility.yul\":11719:11722   */\n      0x00\n        /* \"#utility.yul\":11740:11745   */\n      dup2\n        /* \"#utility.yul\":11733:11745   */\n      swap1\n      pop\n        /* \"#utility.yul\":11691:11751   */\n      swap2\n      swap1\n      pop\n      jump\t// out\n        /* \"#utility.yul\":11757:11899   */\n    tag_126:\n        /* \"#utility.yul\":11807:11816   */\n      0x00\n        /* \"#utility.yul\":11840:11893   */\n      tag_276\n        /* \"#utility.yul\":11858:11892   */\n      tag_277\n        /* \"#utility.yul\":11867:11891   */\n      tag_278\n        /* \"#utility.yul\":11885:11890   */\n      dup5\n        /* \"#utility.yul\":11867:11891   */\n      tag_94\n      jump\t// in\n    tag_278:\n        /* \"#utility.yul\":11858:11892   */\n      tag_125\n      jump\t// in\n    tag_277:\n        /* \"#utility.yul\":11840:11893   */\n      tag_94\n      jump\t// in\n    tag_276:\n        /* \"#utility.yul\":11827:11893   */\n      swap1\n      pop\n        /* \"#utility.yul\":11757:11899   */\n      swap2\n      swap1\n      pop\n      jump\t// out\n        /* \"#utility.yul\":11905:11980   */\n    tag_127:\n        /* \"#utility.yul\":11948:11951   */\n      0x00\n        /* \"#utility.yul\":11969:11974   */\n      dup2\n        /* \"#utility.yul\":11962:11974   */\n      swap1\n      pop\n        /* \"#utility.yul\":11905:11980   */\n      swap2\n      swap1\n      pop\n      jump\t// out\n        /* \"#utility.yul\":11986:12255   */\n    tag_128:\n        /* \"#utility.yul\":12096:12135   */\n      tag_281\n        /* \"#utility.yul\":12127:12134   */\n      dup4\n        /* \"#utility.yul\":12096:12135   */\n      tag_126\n      jump\t// in\n    tag_281:\n        /* \"#utility.yul\":12157:12248   */\n      tag_282\n        /* \"#utility.yul\":12206:12247   */\n      tag_283\n        /* \"#utility.yul\":12230:12246   */\n      dup3\n        /* \"#utility.yul\":12206:12247   */\n      tag_127\n      jump\t// in\n    tag_283:\n        /* \"#utility.yul\":12198:12204   */\n      dup5\n        /* \"#utility.yul\":12191:12195   */\n      dup5\n        /* \"#utility.yul\":12185:12196   */\n      sload\n        /* \"#utility.yul\":12157:12248   */\n      tag_124\n      jump\t// in\n    tag_282:\n        /* \"#utility.yul\":12151:12155   */\n      dup3\n        /* \"#utility.yul\":12144:12249   */\n      sstore\n        /* \"#utility.yul\":12062:12255   */\n      pop\n        /* \"#utility.yul\":11986:12255   */\n      pop\n      pop\n      pop\n      jump\t// out\n        /* \"#utility.yul\":12261:12334   */\n    tag_129:\n        /* \"#utility.yul\":12306:12309   */\n      0x00\n        /* \"#utility.yul\":12261:12334   */\n      swap1\n      jump\t// out\n        /* \"#utility.yul\":12340:12529   */\n    tag_130:\n        /* \"#utility.yul\":12417:12449   */\n      tag_286\n      tag_129\n      jump\t// in\n    tag_286:\n        /* \"#utility.yul\":12458:12523   */\n      tag_287\n        /* \"#utility.yul\":12516:12522   */\n      dup2\n        /* \"#utility.yul\":12508:12514   */\n      dup5\n        /* \"#utility.yul\":12502:12506   */\n      dup5\n        /* \"#utility.yul\":12458:12523   */\n      tag_128\n      jump\t// in\n    tag_287:\n        /* \"#utility.yul\":12393:12529   */\n      pop\n        /* \"#utility.yul\":12340:12529   */\n      pop\n      pop\n      jump\t// out\n        /* \"#utility.yul\":12535:12721   */\n    tag_131:\n        /* \"#utility.yul\":12595:12715   */\n    tag_289:\n        /* \"#utility.yul\":12612:12615   */\n      dup2\n        /* \"#utility.yul\":12605:12610   */\n      dup2\n        /* \"#utility.yul\":12602:12616   */\n      lt\n        /* \"#utility.yul\":12595:12715   */\n      iszero\n      tag_291\n      jumpi\n        /* \"#utility.yul\":12666:12705   */\n      tag_292\n        /* \"#utility.yul\":12703:12704   */\n      0x00\n        /* \"#utility.yul\":12696:12701   */\n      dup3\n        /* \"#utility.yul\":12666:12705   */\n      tag_130\n      jump\t// in\n    tag_292:\n        /* \"#utility.yul\":12639:12640   */\n      0x01\n        /* \"#utility.yul\":12632:12637   */\n      dup2\n        /* \"#utility.yul\":12628:12641   */\n      add\n        /* \"#utility.yul\":12619:12641   */\n      swap1\n      pop\n        /* \"#utility.yul\":12595:12715   */\n      jump(tag_289)\n    tag_291:\n        /* \"#utility.yul\":12535:12721   */\n      pop\n      pop\n      jump\t// out\n        /* \"#utility.yul\":12727:13270   */\n    tag_132:\n        /* \"#utility.yul\":12828:12830   */\n      0x1f\n        /* \"#utility.yul\":12823:12826   */\n      dup3\n        /* \"#utility.yul\":12820:12831   */\n      gt\n        /* \"#utility.yul\":12817:13263   */\n      iszero\n      tag_294\n      jumpi\n        /* \"#utility.yul\":12862:12900   */\n      tag_295\n        /* \"#utility.yul\":12894:12899   */\n      dup2\n        /* \"#utility.yul\":12862:12900   */\n      tag_121\n      jump\t// in\n    tag_295:\n        /* \"#utility.yul\":12946:12975   */\n      tag_296\n        /* \"#utility.yul\":12964:12974   */\n      dup5\n        /* \"#utility.yul\":12946:12975   */\n      tag_122\n      jump\t// in\n    tag_296:\n        /* \"#utility.yul\":12936:12944   */\n      dup2\n        /* \"#utility.yul\":12932:12976   */\n      add\n        /* \"#utility.yul\":13129:13131   */\n      0x20\n        /* \"#utility.yul\":13117:13127   */\n      dup6\n        /* \"#utility.yul\":13114:13132   */\n      lt\n        /* \"#utility.yul\":13111:13160   */\n      iszero\n      tag_297\n      jumpi\n        /* \"#utility.yul\":13150:13158   */\n      dup2\n        /* \"#utility.yul\":13135:13158   */\n      swap1\n      pop\n        /* \"#utility.yul\":13111:13160   */\n    tag_297:\n        /* \"#utility.yul\":13173:13253   */\n      tag_298\n        /* \"#utility.yul\":13229:13251   */\n      tag_299\n        /* \"#utility.yul\":13247:13250   */\n      dup6\n        /* \"#utility.yul\":13229:13251   */\n      tag_122\n      jump\t// in\n    tag_299:\n        /* \"#utility.yul\":13219:13227   */\n      dup4\n        /* \"#utility.yul\":13215:13252   */\n      add\n        /* \"#utility.yul\":13202:13213   */\n      dup3\n        /* \"#utility.yul\":13173:13253   */\n      tag_131\n      jump\t// in\n    tag_298:\n        /* \"#utility.yul\":12832:13263   */\n      pop\n      pop\n        /* \"#utility.yul\":12817:13263   */\n    tag_294:\n        /* \"#utility.yul\":12727:13270   */\n      pop\n      pop\n      pop\n      jump\t// out\n        /* \"#utility.yul\":13276:13393   */\n    tag_133:\n        /* \"#utility.yul\":13330:13338   */\n      0x00\n        /* \"#utility.yul\":13380:13385   */\n      dup3\n        /* \"#utility.yul\":13374:13378   */\n      dup3\n        /* \"#utility.yul\":13370:13386   */\n      shr\n        /* \"#utility.yul\":13349:13386   */\n      swap1\n      pop\n        /* \"#utility.yul\":13276:13393   */\n      swap3\n      swap2\n      pop\n      pop\n      jump\t// out\n        /* \"#utility.yul\":13399:13568   */\n    tag_134:\n        /* \"#utility.yul\":13443:13449   */\n      0x00\n        /* \"#utility.yul\":13476:13527   */\n      tag_302\n        /* \"#utility.yul\":13524:13525   */\n      0x00\n        /* \"#utility.yul\":13520:13526   */\n      not\n        /* \"#utility.yul\":13512:13517   */\n      dup5\n        /* \"#utility.yul\":13509:13510   */\n      0x08\n        /* \"#utility.yul\":13505:13518   */\n      mul\n        /* \"#utility.yul\":13476:13527   */\n      tag_133\n      jump\t// in\n    tag_302:\n        /* \"#utility.yul\":13472:13528   */\n      not\n        /* \"#utility.yul\":13557:13561   */\n      dup1\n        /* \"#utility.yul\":13551:13555   */\n      dup4\n        /* \"#utility.yul\":13547:13562   */\n      and\n        /* \"#utility.yul\":13537:13562   */\n      swap2\n      pop\n        /* \"#utility.yul\":13450:13568   */\n      pop\n        /* \"#utility.yul\":13399:13568   */\n      swap3\n      swap2\n      pop\n      pop\n      jump\t// out\n        /* \"#utility.yul\":13573:13868   */\n    tag_135:\n        /* \"#utility.yul\":13649:13653   */\n      0x00\n        /* \"#utility.yul\":13795:13824   */\n      tag_304\n        /* \"#utility.yul\":13820:13823   */\n      dup4\n        /* \"#utility.yul\":13814:13818   */\n      dup4\n        /* \"#utility.yul\":13795:13824   */\n      tag_134\n      jump\t// in\n    tag_304:\n        /* \"#utility.yul\":13787:13824   */\n      swap2\n      pop\n        /* \"#utility.yul\":13857:13860   */\n      dup3\n        /* \"#utility.yul\":13854:13855   */\n      0x02\n        /* \"#utility.yul\":13850:13861   */\n      mul\n        /* \"#utility.yul\":13844:13848   */\n      dup3\n        /* \"#utility.yul\":13841:13862   */\n      or\n        /* \"#utility.yul\":13833:13862   */\n      swap1\n      pop\n        /* \"#utility.yul\":13573:13868   */\n      swap3\n      swap2\n      pop\n      pop\n      jump\t// out\n        /* \"#utility.yul\":13873:15268   */\n    tag_59:\n        /* \"#utility.yul\":13990:14027   */\n      tag_306\n        /* \"#utility.yul\":14023:14026   */\n      dup3\n        /* \"#utility.yul\":13990:14027   */\n      tag_108\n      jump\t// in\n    tag_306:\n        /* \"#utility.yul\":14092:14110   */\n      0xffffffffffffffff\n        /* \"#utility.yul\":14084:14090   */\n      dup2\n        /* \"#utility.yul\":14081:14111   */\n      gt\n        /* \"#utility.yul\":14078:14134   */\n      iszero\n      tag_307\n      jumpi\n        /* \"#utility.yul\":14114:14132   */\n      tag_308\n      tag_101\n      jump\t// in\n    tag_308:\n        /* \"#utility.yul\":14078:14134   */\n    tag_307:\n        /* \"#utility.yul\":14158:14196   */\n      tag_309\n        /* \"#utility.yul\":14190:14194   */\n      dup3\n        /* \"#utility.yul\":14184:14195   */\n      sload\n        /* \"#utility.yul\":14158:14196   */\n      tag_61\n      jump\t// in\n    tag_309:\n        /* \"#utility.yul\":14243:14310   */\n      tag_310\n        /* \"#utility.yul\":14303:14309   */\n      dup3\n        /* \"#utility.yul\":14295:14301   */\n      dup3\n        /* \"#utility.yul\":14289:14293   */\n      dup6\n        /* \"#utility.yul\":14243:14310   */\n      tag_132\n      jump\t// in\n    tag_310:\n        /* \"#utility.yul\":14337:14338   */\n      0x00\n        /* \"#utility.yul\":14361:14365   */\n      0x20\n        /* \"#utility.yul\":14348:14365   */\n      swap1\n      pop\n        /* \"#utility.yul\":14393:14395   */\n      0x1f\n        /* \"#utility.yul\":14385:14391   */\n      dup4\n        /* \"#utility.yul\":14382:14396   */\n      gt\n        /* \"#utility.yul\":14410:14411   */\n      0x01\n        /* \"#utility.yul\":14405:15023   */\n      dup2\n      eq\n      tag_312\n      jumpi\n        /* \"#utility.yul\":15067:15068   */\n      0x00\n        /* \"#utility.yul\":15084:15090   */\n      dup5\n        /* \"#utility.yul\":15081:15158   */\n      iszero\n      tag_313\n      jumpi\n        /* \"#utility.yul\":15133:15142   */\n      dup3\n        /* \"#utility.yul\":15128:15131   */\n      dup8\n        /* \"#utility.yul\":15124:15143   */\n      add\n        /* \"#utility.yul\":15118:15144   */\n      mload\n        /* \"#utility.yul\":15109:15144   */\n      swap1\n      pop\n        /* \"#utility.yul\":15081:15158   */\n    tag_313:\n        /* \"#utility.yul\":15184:15251   */\n      tag_314\n        /* \"#utility.yul\":15244:15250   */\n      dup6\n        /* \"#utility.yul\":15237:15242   */\n      dup3\n        /* \"#utility.yul\":15184:15251   */\n      tag_135\n      jump\t// in\n    tag_314:\n        /* \"#utility.yul\":15178:15182   */\n      dup7\n        /* \"#utility.yul\":15171:15252   */\n      sstore\n        /* \"#utility.yul\":15040:15262   */\n      pop\n        /* \"#utility.yul\":14375:15262   */\n      jump(tag_311)\n        /* \"#utility.yul\":14405:15023   */\n    tag_312:\n        /* \"#utility.yul\":14457:14461   */\n      0x1f\n        /* \"#utility.yul\":14453:14462   */\n      not\n        /* \"#utility.yul\":14445:14451   */\n      dup5\n        /* \"#utility.yul\":14441:14463   */\n      and\n        /* \"#utility.yul\":14491:14528   */\n      tag_315\n        /* \"#utility.yul\":14523:14527   */\n      dup7\n        /* \"#utility.yul\":14491:14528   */\n      tag_121\n      jump\t// in\n    tag_315:\n        /* \"#utility.yul\":14550:14551   */\n      0x00\n        /* \"#utility.yul\":14564:14772   */\n    tag_316:\n        /* \"#utility.yul\":14578:14585   */\n      dup3\n        /* \"#utility.yul\":14575:14576   */\n      dup2\n        /* \"#utility.yul\":14572:14586   */\n      lt\n        /* \"#utility.yul\":14564:14772   */\n      iszero\n      tag_318\n      jumpi\n        /* \"#utility.yul\":14657:14666   */\n      dup5\n        /* \"#utility.yul\":14652:14655   */\n      dup10\n        /* \"#utility.yul\":14648:14667   */\n      add\n        /* \"#utility.yul\":14642:14668   */\n      mload\n        /* \"#utility.yul\":14634:14640   */\n      dup3\n        /* \"#utility.yul\":14627:14669   */\n      sstore\n        /* \"#utility.yul\":14708:14709   */\n      0x01\n        /* \"#utility.yul\":14700:14706   */\n      dup3\n        /* \"#utility.yul\":14696:14710   */\n      add\n        /* \"#utility.yul\":14686:14710   */\n      swap2\n      pop\n        /* \"#utility.yul\":14755:14757   */\n      0x20\n        /* \"#utility.yul\":14744:14753   */\n      dup6\n        /* \"#utility.yul\":14740:14758   */\n      add\n        /* \"#utility.yul\":14727:14758   */\n      swap5\n      pop\n        /* \"#utility.yul\":14601:14605   */\n      0x20\n        /* \"#utility.yul\":14598:14599   */\n      dup2\n        /* \"#utility.yul\":14594:14606   */\n      add\n        /* \"#utility.yul\":14589:14606   */\n      swap1\n      pop\n        /* \"#utility.yul\":14564:14772   */\n      jump(tag_316)\n    tag_318:\n        /* \"#utility.yul\":14800:14806   */\n      dup7\n        /* \"#utility.yul\":14791:14798   */\n      dup4\n        /* \"#utility.yul\":14788:14807   */\n      lt\n        /* \"#utility.yul\":14785:14964   */\n      iszero\n      tag_319\n      jumpi\n        /* \"#utility.yul\":14858:14867   */\n      dup5\n        /* \"#utility.yul\":14853:14856   */\n      dup10\n        /* \"#utility.yul\":14849:14868   */\n      add\n        /* \"#utility.yul\":14843:14869   */\n      mload\n        /* \"#utility.yul\":14901:14949   */\n      tag_320\n        /* \"#utility.yul\":14943:14947   */\n      0x1f\n        /* \"#utility.yul\":14935:14941   */\n      dup10\n        /* \"#utility.yul\":14931:14948   */\n      and\n        /* \"#utility.yul\":14920:14929   */\n      dup3\n        /* \"#utility.yul\":14901:14949   */\n      tag_134\n      jump\t// in\n    tag_320:\n        /* \"#utility.yul\":14893:14899   */\n      dup4\n        /* \"#utility.yul\":14886:14950   */\n      sstore\n        /* \"#utility.yul\":14808:14964   */\n      pop\n        /* \"#utility.yul\":14785:14964   */\n    tag_319:\n        /* \"#utility.yul\":15010:15011   */\n      0x01\n        /* \"#utility.yul\":15006:15007   */\n      0x02\n        /* \"#utility.yul\":14998:15004   */\n      dup9\n        /* \"#utility.yul\":14994:15008   */\n      mul\n        /* \"#utility.yul\":14990:15012   */\n      add\n        /* \"#utility.yul\":14984:14988   */\n      dup9\n        /* \"#utility.yul\":14977:15013   */\n      sstore\n        /* \"#utility.yul\":14412:15023   */\n      pop\n      pop\n      pop\n        /* \"#utility.yul\":14375:15262   */\n    tag_311:\n      pop\n        /* \"#utility.yul\":13965:15268   */\n      pop\n      pop\n      pop\n        /* \"#utility.yul\":13873:15268   */\n      pop\n      pop\n      jump\t// out\n        /* \"#utility.yul\":15274:15451   */\n    tag_136:\n        /* \"#utility.yul\":15414:15443   */\n      0x496e76616c6964206469737472696275746f7220616464726573730000000000\n        /* \"#utility.yul\":15410:15411   */\n      0x00\n        /* \"#utility.yul\":15402:15408   */\n      dup3\n        /* \"#utility.yul\":15398:15412   */\n      add\n        /* \"#utility.yul\":15391:15444   */\n      mstore\n        /* \"#utility.yul\":15274:15451   */\n      pop\n      jump\t// out\n        /* \"#utility.yul\":15457:15823   */\n    tag_137:\n        /* \"#utility.yul\":15599:15602   */\n      0x00\n        /* \"#utility.yul\":15620:15687   */\n      tag_323\n        /* \"#utility.yul\":15684:15686   */\n      0x1b\n        /* \"#utility.yul\":15679:15682   */\n      dup4\n        /* \"#utility.yul\":15620:15687   */\n      tag_109\n      jump\t// in\n    tag_323:\n        /* \"#utility.yul\":15613:15687   */\n      swap2\n      pop\n        /* \"#utility.yul\":15696:15789   */\n      tag_324\n        /* \"#utility.yul\":15785:15788   */\n      dup3\n        /* \"#utility.yul\":15696:15789   */\n      tag_136\n      jump\t// in\n    tag_324:\n        /* \"#utility.yul\":15814:15816   */\n      0x20\n        /* \"#utility.yul\":15809:15812   */\n      dup3\n        /* \"#utility.yul\":15805:15817   */\n      add\n        /* \"#utility.yul\":15798:15817   */\n      swap1\n      pop\n        /* \"#utility.yul\":15457:15823   */\n      swap2\n      swap1\n      pop\n      jump\t// out\n        /* \"#utility.yul\":15829:16248   */\n    tag_75:\n        /* \"#utility.yul\":15995:15999   */\n      0x00\n        /* \"#utility.yul\":16033:16035   */\n      0x20\n        /* \"#utility.yul\":16022:16031   */\n      dup3\n        /* \"#utility.yul\":16018:16036   */\n      add\n        /* \"#utility.yul\":16010:16036   */\n      swap1\n      pop\n        /* \"#utility.yul\":16082:16091   */\n      dup2\n        /* \"#utility.yul\":16076:16080   */\n      dup2\n        /* \"#utility.yul\":16072:16092   */\n      sub\n        /* \"#utility.yul\":16068:16069   */\n      0x00\n        /* \"#utility.yul\":16057:16066   */\n      dup4\n        /* \"#utility.yul\":16053:16070   */\n      add\n        /* \"#utility.yul\":16046:16093   */\n      mstore\n        /* \"#utility.yul\":16110:16241   */\n      tag_326\n        /* \"#utility.yul\":16236:16240   */\n      dup2\n        /* \"#utility.yul\":16110:16241   */\n      tag_137\n      jump\t// in\n    tag_326:\n        /* \"#utility.yul\":16102:16241   */\n      swap1\n      pop\n        /* \"#utility.yul\":15829:16248   */\n      swap2\n      swap1\n      pop\n      jump\t// out\n        /* \"#utility.yul\":16254:16430   */\n    tag_138:\n        /* \"#utility.yul\":16394:16422   */\n      0x496e76616c69642077686f6c6573616c65722061646472657373000000000000\n        /* \"#utility.yul\":16390:16391   */\n      0x00\n        /* \"#utility.yul\":16382:16388   */\n      dup3\n        /* \"#utility.yul\":16378:16392   */\n      add\n        /* \"#utility.yul\":16371:16423   */\n      mstore\n        /* \"#utility.yul\":16254:16430   */\n      pop\n      jump\t// out\n        /* \"#utility.yul\":16436:16802   */\n    tag_139:\n        /* \"#utility.yul\":16578:16581   */\n      0x00\n        /* \"#utility.yul\":16599:16666   */\n      tag_329\n        /* \"#utility.yul\":16663:16665   */\n      0x1a\n        /* \"#utility.yul\":16658:16661   */\n      dup4\n        /* \"#utility.yul\":16599:16666   */\n      tag_109\n      jump\t// in\n    tag_329:\n        /* \"#utility.yul\":16592:16666   */\n      swap2\n      pop\n        /* \"#utility.yul\":16675:16768   */\n      tag_330\n        /* \"#utility.yul\":16764:16767   */\n      dup3\n        /* \"#utility.yul\":16675:16768   */\n      tag_138\n      jump\t// in\n    tag_330:\n        /* \"#utility.yul\":16793:16795   */\n      0x20\n        /* \"#utility.yul\":16788:16791   */\n      dup3\n        /* \"#utility.yul\":16784:16796   */\n      add\n        /* \"#utility.yul\":16777:16796   */\n      swap1\n      pop\n        /* \"#utility.yul\":16436:16802   */\n      swap2\n      swap1\n      pop\n      jump\t// out\n        /* \"#utility.yul\":16808:17227   */\n    tag_78:\n        /* \"#utility.yul\":16974:16978   */\n      0x00\n        /* \"#utility.yul\":17012:17014   */\n      0x20\n        /* \"#utility.yul\":17001:17010   */\n      dup3\n        /* \"#utility.yul\":16997:17015   */\n      add\n        /* \"#utility.yul\":16989:17015   */\n      swap1\n      pop\n        /* \"#utility.yul\":17061:17070   */\n      dup2\n        /* \"#utility.yul\":17055:17059   */\n      dup2\n        /* \"#utility.yul\":17051:17071   */\n      sub\n        /* \"#utility.yul\":17047:17048   */\n      0x00\n        /* \"#utility.yul\":17036:17045   */\n      dup4\n        /* \"#utility.yul\":17032:17049   */\n      add\n        /* \"#utility.yul\":17025:17072   */\n      mstore\n        /* \"#utility.yul\":17089:17220   */\n      tag_332\n        /* \"#utility.yul\":17215:17219   */\n      dup2\n        /* \"#utility.yul\":17089:17220   */\n      tag_139\n      jump\t// in\n    tag_332:\n        /* \"#utility.yul\":17081:17220   */\n      swap1\n      pop\n        /* \"#utility.yul\":16808:17227   */\n      swap2\n      swap1\n      pop\n      jump\t// out\n        /* \"#utility.yul\":17233:17409   */\n    tag_140:\n        /* \"#utility.yul\":17373:17401   */\n      0x496e76616c69642073686f706b65657065722061646472657373000000000000\n        /* \"#utility.yul\":17369:17370   */\n      0x00\n        /* \"#utility.yul\":17361:17367   */\n      dup3\n        /* \"#utility.yul\":17357:17371   */\n      add\n        /* \"#utility.yul\":17350:17402   */\n      mstore\n        /* \"#utility.yul\":17233:17409   */\n      pop\n      jump\t// out\n        /* \"#utility.yul\":17415:17781   */\n    tag_141:\n        /* \"#utility.yul\":17557:17560   */\n      0x00\n        /* \"#utility.yul\":17578:17645   */\n      tag_335\n        /* \"#utility.yul\":17642:17644   */\n      0x1a\n        /* \"#utility.yul\":17637:17640   */\n      dup4\n        /* \"#utility.yul\":17578:17645   */\n      tag_109\n      jump\t// in\n    tag_335:\n        /* \"#utility.yul\":17571:17645   */\n      swap2\n      pop\n        /* \"#utility.yul\":17654:17747   */\n      tag_336\n        /* \"#utility.yul\":17743:17746   */\n      dup3\n        /* \"#utility.yul\":17654:17747   */\n      tag_140\n      jump\t// in\n    tag_336:\n        /* \"#utility.yul\":17772:17774   */\n      0x20\n        /* \"#utility.yul\":17767:17770   */\n      dup3\n        /* \"#utility.yul\":17763:17775   */\n      add\n        /* \"#utility.yul\":17756:17775   */\n      swap1\n      pop\n        /* \"#utility.yul\":17415:17781   */\n      swap2\n      swap1\n      pop\n      jump\t// out\n        /* \"#utility.yul\":17787:18206   */\n    tag_81:\n        /* \"#utility.yul\":17953:17957   */\n      0x00\n        /* \"#utility.yul\":17991:17993   */\n      0x20\n        /* \"#utility.yul\":17980:17989   */\n      dup3\n        /* \"#utility.yul\":17976:17994   */\n      add\n        /* \"#utility.yul\":17968:17994   */\n      swap1\n      pop\n        /* \"#utility.yul\":18040:18049   */\n      dup2\n        /* \"#utility.yul\":18034:18038   */\n      dup2\n        /* \"#utility.yul\":18030:18050   */\n      sub\n        /* \"#utility.yul\":18026:18027   */\n      0x00\n        /* \"#utility.yul\":18015:18024   */\n      dup4\n        /* \"#utility.yul\":18011:18028   */\n      add\n        /* \"#utility.yul\":18004:18051   */\n      mstore\n        /* \"#utility.yul\":18068:18199   */\n      tag_338\n        /* \"#utility.yul\":18194:18198   */\n      dup2\n        /* \"#utility.yul\":18068:18199   */\n      tag_141\n      jump\t// in\n    tag_338:\n        /* \"#utility.yul\":18060:18199   */\n      swap1\n      pop\n        /* \"#utility.yul\":17787:18206   */\n      swap2\n      swap1\n      pop\n      jump\t// out\n        /* \"#utility.yul\":18212:18386   */\n    tag_142:\n        /* \"#utility.yul\":18352:18378   */\n      0x496e76616c696420636f6e73756d657220616464726573730000000000000000\n        /* \"#utility.yul\":18348:18349   */\n      0x00\n        /* \"#utility.yul\":18340:18346   */\n      dup3\n        /* \"#utility.yul\":18336:18350   */\n      add\n        /* \"#utility.yul\":18329:18379   */\n      mstore\n        /* \"#utility.yul\":18212:18386   */\n      pop\n      jump\t// out\n        /* \"#utility.yul\":18392:18758   */\n    tag_143:\n        /* \"#utility.yul\":18534:18537   */\n      0x00\n        /* \"#utility.yul\":18555:18622   */\n      tag_341\n        /* \"#utility.yul\":18619:18621   */\n      0x18\n        /* \"#utility.yul\":18614:18617   */\n      dup4\n        /* \"#utility.yul\":18555:18622   */\n      tag_109\n      jump\t// in\n    tag_341:\n        /* \"#utility.yul\":18548:18622   */\n      swap2\n      pop\n        /* \"#utility.yul\":18631:18724   */\n      tag_342\n        /* \"#utility.yul\":18720:18723   */\n      dup3\n        /* \"#utility.yul\":18631:18724   */\n      tag_142\n      jump\t// in\n    tag_342:\n        /* \"#utility.yul\":18749:18751   */\n      0x20\n        /* \"#utility.yul\":18744:18747   */\n      dup3\n        /* \"#utility.yul\":18740:18752   */\n      add\n        /* \"#utility.yul\":18733:18752   */\n      swap1\n      pop\n        /* \"#utility.yul\":18392:18758   */\n      swap2\n      swap1\n      pop\n      jump\t// out\n        /* \"#utility.yul\":18764:19183   */\n    tag_84:\n        /* \"#utility.yul\":18930:18934   */\n      0x00\n        /* \"#utility.yul\":18968:18970   */\n      0x20\n        /* \"#utility.yul\":18957:18966   */\n      dup3\n        /* \"#utility.yul\":18953:18971   */\n      add\n        /* \"#utility.yul\":18945:18971   */\n      swap1\n      pop\n        /* \"#utility.yul\":19017:19026   */\n      dup2\n        /* \"#utility.yul\":19011:19015   */\n      dup2\n        /* \"#utility.yul\":19007:19027   */\n      sub\n        /* \"#utility.yul\":19003:19004   */\n      0x00\n        /* \"#utility.yul\":18992:19001   */\n      dup4\n        /* \"#utility.yul\":18988:19005   */\n      add\n        /* \"#utility.yul\":18981:19028   */\n      mstore\n        /* \"#utility.yul\":19045:19176   */\n      tag_344\n        /* \"#utility.yul\":19171:19175   */\n      dup2\n        /* \"#utility.yul\":19045:19176   */\n      tag_143\n      jump\t// in\n    tag_344:\n        /* \"#utility.yul\":19037:19176   */\n      swap1\n      pop\n        /* \"#utility.yul\":18764:19183   */\n      swap2\n      swap1\n      pop\n      jump\t// out\n        /* \"#utility.yul\":19189:19415   */\n    tag_144:\n        /* \"#utility.yul\":19329:19363   */\n      0x4f6e6c7920746865206661726d65722063616e20646973747269627574652074\n        /* \"#utility.yul\":19325:19326   */\n      0x00\n        /* \"#utility.yul\":19317:19323   */\n      dup3\n        /* \"#utility.yul\":19313:19327   */\n      add\n        /* \"#utility.yul\":19306:19364   */\n      mstore\n        /* \"#utility.yul\":19398:19407   */\n      0x68652063726f7000000000000000000000000000000000000000000000000000\n        /* \"#utility.yul\":19393:19395   */\n      0x20\n        /* \"#utility.yul\":19385:19391   */\n      dup3\n        /* \"#utility.yul\":19381:19396   */\n      add\n        /* \"#utility.yul\":19374:19408   */\n      mstore\n        /* \"#utility.yul\":19189:19415   */\n      pop\n      jump\t// out\n        /* \"#utility.yul\":19421:19787   */\n    tag_145:\n        /* \"#utility.yul\":19563:19566   */\n      0x00\n        /* \"#utility.yul\":19584:19651   */\n      tag_347\n        /* \"#utility.yul\":19648:19650   */\n      0x27\n        /* \"#utility.yul\":19643:19646   */\n      dup4\n        /* \"#utility.yul\":19584:19651   */\n      tag_109\n      jump\t// in\n    tag_347:\n        /* \"#utility.yul\":19577:19651   */\n      swap2\n      pop\n        /* \"#utility.yul\":19660:19753   */\n      tag_348\n        /* \"#utility.yul\":19749:19752   */\n      dup3\n        /* \"#utility.yul\":19660:19753   */\n      tag_144\n      jump\t// in\n    tag_348:\n        /* \"#utility.yul\":19778:19780   */\n      0x40\n        /* \"#utility.yul\":19773:19776   */\n      dup3\n        /* \"#utility.yul\":19769:19781   */\n      add\n        /* \"#utility.yul\":19762:19781   */\n      swap1\n      pop\n        /* \"#utility.yul\":19421:19787   */\n      swap2\n      swap1\n      pop\n      jump\t// out\n        /* \"#utility.yul\":19793:20212   */\n    tag_87:\n        /* \"#utility.yul\":19959:19963   */\n      0x00\n        /* \"#utility.yul\":19997:19999   */\n      0x20\n        /* \"#utility.yul\":19986:19995   */\n      dup3\n        /* \"#utility.yul\":19982:20000   */\n      add\n        /* \"#utility.yul\":19974:20000   */\n      swap1\n      pop\n        /* \"#utility.yul\":20046:20055   */\n      dup2\n        /* \"#utility.yul\":20040:20044   */\n      dup2\n        /* \"#utility.yul\":20036:20056   */\n      sub\n        /* \"#utility.yul\":20032:20033   */\n      0x00\n        /* \"#utility.yul\":20021:20030   */\n      dup4\n        /* \"#utility.yul\":20017:20034   */\n      add\n        /* \"#utility.yul\":20010:20057   */\n      mstore\n        /* \"#utility.yul\":20074:20205   */\n      tag_350\n        /* \"#utility.yul\":20200:20204   */\n      dup2\n        /* \"#utility.yul\":20074:20205   */\n      tag_145\n      jump\t// in\n    tag_350:\n        /* \"#utility.yul\":20066:20205   */\n      swap1\n      pop\n        /* \"#utility.yul\":19793:20212   */\n      swap2\n      swap1\n      pop\n      jump\t// out\n        /* \"#utility.yul\":20218:20389   */\n    tag_146:\n        /* \"#utility.yul\":20358:20381   */\n      0x43726f70207175616e74697479206973207a65726f0000000000000000000000\n        /* \"#utility.yul\":20354:20355   */\n      0x00\n        /* \"#utility.yul\":20346:20352   */\n      dup3\n        /* \"#utility.yul\":20342:20356   */\n      add\n        /* \"#utility.yul\":20335:20382   */\n      mstore\n        /* \"#utility.yul\":20218:20389   */\n      pop\n      jump\t// out\n        /* \"#utility.yul\":20395:20761   */\n    tag_147:\n        /* \"#utility.yul\":20537:20540   */\n      0x00\n        /* \"#utility.yul\":20558:20625   */\n      tag_353\n        /* \"#utility.yul\":20622:20624   */\n      0x15\n        /* \"#utility.yul\":20617:20620   */\n      dup4\n        /* \"#utility.yul\":20558:20625   */\n      tag_109\n      jump\t// in\n    tag_353:\n        /* \"#utility.yul\":20551:20625   */\n      swap2\n      pop\n        /* \"#utility.yul\":20634:20727   */\n      tag_354\n        /* \"#utility.yul\":20723:20726   */\n      dup3\n        /* \"#utility.yul\":20634:20727   */\n      tag_146\n      jump\t// in\n    tag_354:\n        /* \"#utility.yul\":20752:20754   */\n      0x20\n        /* \"#utility.yul\":20747:20750   */\n      dup3\n        /* \"#utility.yul\":20743:20755   */\n      add\n        /* \"#utility.yul\":20736:20755   */\n      swap1\n      pop\n        /* \"#utility.yul\":20395:20761   */\n      swap2\n      swap1\n      pop\n      jump\t// out\n        /* \"#utility.yul\":20767:21186   */\n    tag_90:\n        /* \"#utility.yul\":20933:20937   */\n      0x00\n        /* \"#utility.yul\":20971:20973   */\n      0x20\n        /* \"#utility.yul\":20960:20969   */\n      dup3\n        /* \"#utility.yul\":20956:20974   */\n      add\n        /* \"#utility.yul\":20948:20974   */\n      swap1\n      pop\n        /* \"#utility.yul\":21020:21029   */\n      dup2\n        /* \"#utility.yul\":21014:21018   */\n      dup2\n        /* \"#utility.yul\":21010:21030   */\n      sub\n        /* \"#utility.yul\":21006:21007   */\n      0x00\n        /* \"#utility.yul\":20995:21004   */\n      dup4\n        /* \"#utility.yul\":20991:21008   */\n      add\n        /* \"#utility.yul\":20984:21031   */\n      mstore\n        /* \"#utility.yul\":21048:21179   */\n      tag_356\n        /* \"#utility.yul\":21174:21178   */\n      dup2\n        /* \"#utility.yul\":21048:21179   */\n      tag_147\n      jump\t// in\n    tag_356:\n        /* \"#utility.yul\":21040:21179   */\n      swap1\n      pop\n        /* \"#utility.yul\":20767:21186   */\n      swap2\n      swap1\n      pop\n      jump\t// out\n\n    auxdata: 0xa2646970667358221220b4b077f8e20b0be73f62943d4f608f857446a3d22a77771047a40de34980c8c164736f6c63430008120033\n}\n",
				"bytecode": {
					"linkReferences": {},
					"object": "608060405234801561001057600080fd5b5060006001819055506118f3806100286000396000f3fe608060405234801561001057600080fd5b506004361061007d5760003560e01c806370c9f1a51161005b57806370c9f1a5146100fe5780638bc7fa9c1461013757806392e7aa3814610170578063dfd55a2c1461018c5761007d565b806332780856146100825780634e3c54521461009e5780636c662918146100ce575b600080fd5b61009c60048036038101906100979190610d9f565b6101aa565b005b6100b860048036038101906100b39190610df2565b610378565b6040516100c59190610e2e565b60405180910390f35b6100e860048036038101906100e39190610f8f565b6103d4565b6040516100f59190610e2e565b60405180910390f35b61011860048036038101906101139190610df2565b61066f565b60405161012e9a999897969594939291906110be565b60405180910390f35b610151600480360381019061014c9190610df2565b6107eb565b6040516101679a999897969594939291906110be565b60405180910390f35b61018a6004803603810190610185919061118d565b610990565b005b610194610d4f565b6040516101a19190610e2e565b60405180910390f35b600080600085815260200190815260200160002090508060050160009054906101000a900473ffffffffffffffffffffffffffffffffffffffff1673ffffffffffffffffffffffffffffffffffffffff163373ffffffffffffffffffffffffffffffffffffffff16148061026d57508060060160009054906101000a900473ffffffffffffffffffffffffffffffffffffffff1673ffffffffffffffffffffffffffffffffffffffff163373ffffffffffffffffffffffffffffffffffffffff16145b806102c757508060070160009054906101000a900473ffffffffffffffffffffffffffffffffffffffff1673ffffffffffffffffffffffffffffffffffffffff163373ffffffffffffffffffffffffffffffffffffffff16145b8061032157508060080160009054906101000a900473ffffffffffffffffffffffffffffffffffffffff1673ffffffffffffffffffffffffffffffffffffffff163373ffffffffffffffffffffffffffffffffffffffff16145b610360576040517f08c379a00000000000000000000000000000000000000000000000000000000081526004016103579061127a565b60405180910390fd5b82816002018190555081816003018190555050505050565b600080600080848152602001908152602001600020905060008160040154426103a191906112c9565b905081600301548111156103ba576000925050506103cf565b8082600301546103ca91906112c9565b925050505b919050565b600060018060008282546103e891906112fd565b9250508190555060405180610140016040528060015481526020018581526020018481526020018381526020014281526020013373ffffffffffffffffffffffffffffffffffffffff168152602001600073ffffffffffffffffffffffffffffffffffffffff168152602001600073ffffffffffffffffffffffffffffffffffffffff168152602001600073ffffffffffffffffffffffffffffffffffffffff168152602001600073ffffffffffffffffffffffffffffffffffffffff1681525060008060015481526020019081526020016000206000820151816000015560208201518160010190816104dc919061153d565b5060408201518160020155606082015181600301556080820151816004015560a08201518160050160006101000a81548173ffffffffffffffffffffffffffffffffffffffff021916908373ffffffffffffffffffffffffffffffffffffffff16021790555060c08201518160060160006101000a81548173ffffffffffffffffffffffffffffffffffffffff021916908373ffffffffffffffffffffffffffffffffffffffff16021790555060e08201518160070160006101000a81548173ffffffffffffffffffffffffffffffffffffffff021916908373ffffffffffffffffffffffffffffffffffffffff1602179055506101008201518160080160006101000a81548173ffffffffffffffffffffffffffffffffffffffff021916908373ffffffffffffffffffffffffffffffffffffffff1602179055506101208201518160090160006101000a81548173ffffffffffffffffffffffffffffffffffffffff021916908373ffffffffffffffffffffffffffffffffffffffff16021790555090505060015490509392505050565b600060205280600052604060002060009150905080600001549080600101805461069890611360565b80601f01602080910402602001604051908101604052809291908181526020018280546106c490611360565b80156107115780601f106106e657610100808354040283529160200191610711565b820191906000526020600020905b8154815290600101906020018083116106f457829003601f168201915b5050505050908060020154908060030154908060040154908060050160009054906101000a900473ffffffffffffffffffffffffffffffffffffffff16908060060160009054906101000a900473ffffffffffffffffffffffffffffffffffffffff16908060070160009054906101000a900473ffffffffffffffffffffffffffffffffffffffff16908060080160009054906101000a900473ffffffffffffffffffffffffffffffffffffffff16908060090160009054906101000a900473ffffffffffffffffffffffffffffffffffffffff1690508a565b6000606060008060008060008060008060008060008d815260200190815260200160002090508060000154816001018260020154836003015484600401548560050160009054906101000a900473ffffffffffffffffffffffffffffffffffffffff168660060160009054906101000a900473ffffffffffffffffffffffffffffffffffffffff168760070160009054906101000a900473ffffffffffffffffffffffffffffffffffffffff168860080160009054906101000a900473ffffffffffffffffffffffffffffffffffffffff168960090160009054906101000a900473ffffffffffffffffffffffffffffffffffffffff168880546108ee90611360565b80601f016020809104026020016040519081016040528092919081815260200182805461091a90611360565b80156109675780601f1061093c57610100808354040283529160200191610967565b820191906000526020600020905b81548152906001019060200180831161094a57829003601f168201915b505050505098509a509a509a509a509a509a509a509a509a509a50509193959799509193959799565b600073ffffffffffffffffffffffffffffffffffffffff168473ffffffffffffffffffffffffffffffffffffffff16036109ff576040517f08c379a00000000000000000000000000000000000000000000000000000000081526004016109f69061165b565b60405180910390fd5b600073ffffffffffffffffffffffffffffffffffffffff168373ffffffffffffffffffffffffffffffffffffffff1603610a6e576040517f08c379a0000000000000000000000000000000000000000000000000000000008152600401610a65906116c7565b60405180910390fd5b600073ffffffffffffffffffffffffffffffffffffffff168273ffffffffffffffffffffffffffffffffffffffff1603610add576040517f08c379a0000000000000000000000000000000000000000000000000000000008152600401610ad490611733565b60405180910390fd5b600073ffffffffffffffffffffffffffffffffffffffff168173ffffffffffffffffffffffffffffffffffffffff1603610b4c576040517f08c379a0000000000000000000000000000000000000000000000000000000008152600401610b439061179f565b60405180910390fd5b600080600087815260200190815260200160002090508060050160009054906101000a900473ffffffffffffffffffffffffffffffffffffffff1673ffffffffffffffffffffffffffffffffffffffff163373ffffffffffffffffffffffffffffffffffffffff1614610bf4576040517f08c379a0000000000000000000000000000000000000000000000000000000008152600401610beb90611831565b60405180910390fd5b6000816002015411610c3b576040517f08c379a0000000000000000000000000000000000000000000000000000000008152600401610c329061189d565b60405180910390fd5b848160060160006101000a81548173ffffffffffffffffffffffffffffffffffffffff021916908373ffffffffffffffffffffffffffffffffffffffff160217905550838160070160006101000a81548173ffffffffffffffffffffffffffffffffffffffff021916908373ffffffffffffffffffffffffffffffffffffffff160217905550828160080160006101000a81548173ffffffffffffffffffffffffffffffffffffffff021916908373ffffffffffffffffffffffffffffffffffffffff160217905550818160090160006101000a81548173ffffffffffffffffffffffffffffffffffffffff021916908373ffffffffffffffffffffffffffffffffffffffff160217905550505050505050565b60015481565b6000604051905090565b600080fd5b600080fd5b6000819050919050565b610d7c81610d69565b8114610d8757600080fd5b50565b600081359050610d9981610d73565b92915050565b600080600060608486031215610db857610db7610d5f565b5b6000610dc686828701610d8a565b9350506020610dd786828701610d8a565b9250506040610de886828701610d8a565b9150509250925092565b600060208284031215610e0857610e07610d5f565b5b6000610e1684828501610d8a565b91505092915050565b610e2881610d69565b82525050565b6000602082019050610e436000830184610e1f565b92915050565b600080fd5b600080fd5b6000601f19601f8301169050919050565b7f4e487b7100000000000000000000000000000000000000000000000000000000600052604160045260246000fd5b610e9c82610e53565b810181811067ffffffffffffffff82111715610ebb57610eba610e64565b5b80604052505050565b6000610ece610d55565b9050610eda8282610e93565b919050565b600067ffffffffffffffff821115610efa57610ef9610e64565b5b610f0382610e53565b9050602081019050919050565b82818337600083830152505050565b6000610f32610f2d84610edf565b610ec4565b905082815260208101848484011115610f4e57610f4d610e4e565b5b610f59848285610f10565b509392505050565b600082601f830112610f7657610f75610e49565b5b8135610f86848260208601610f1f565b91505092915050565b600080600060608486031215610fa857610fa7610d5f565b5b600084013567ffffffffffffffff811115610fc657610fc5610d64565b5b610fd286828701610f61565b9350506020610fe386828701610d8a565b9250506040610ff486828701610d8a565b9150509250925092565b600081519050919050565b600082825260208201905092915050565b60005b8381101561103857808201518184015260208101905061101d565b60008484015250505050565b600061104f82610ffe565b6110598185611009565b935061106981856020860161101a565b61107281610e53565b840191505092915050565b600073ffffffffffffffffffffffffffffffffffffffff82169050919050565b60006110a88261107d565b9050919050565b6110b88161109d565b82525050565b6000610140820190506110d4600083018d610e1f565b81810360208301526110e6818c611044565b90506110f5604083018b610e1f565b611102606083018a610e1f565b61110f6080830189610e1f565b61111c60a08301886110af565b61112960c08301876110af565b61113660e08301866110af565b6111446101008301856110af565b6111526101208301846110af565b9b9a5050505050505050505050565b61116a8161109d565b811461117557600080fd5b50565b60008135905061118781611161565b92915050565b600080600080600060a086880312156111a9576111a8610d5f565b5b60006111b788828901610d8a565b95505060206111c888828901611178565b94505060406111d988828901611178565b93505060606111ea88828901611178565b92505060806111fb88828901611178565b9150509295509295909350565b7f4f6e6c7920617574686f72697a656420706172746965732063616e207570646160008201527f7465207468652063726f70000000000000000000000000000000000000000000602082015250565b6000611264602b83611009565b915061126f82611208565b604082019050919050565b6000602082019050818103600083015261129381611257565b9050919050565b7f4e487b7100000000000000000000000000000000000000000000000000000000600052601160045260246000fd5b60006112d482610d69565b91506112df83610d69565b92508282039050818111156112f7576112f661129a565b5b92915050565b600061130882610d69565b915061131383610d69565b925082820190508082111561132b5761132a61129a565b5b92915050565b7f4e487b7100000000000000000000000000000000000000000000000000000000600052602260045260246000fd5b6000600282049050600182168061137857607f821691505b60208210810361138b5761138a611331565b5b50919050565b60008190508160005260206000209050919050565b60006020601f8301049050919050565b600082821b905092915050565b6000600883026113f37fffffffffffffffffffffffffffffffffffffffffffffffffffffffffffffffff826113b6565b6113fd86836113b6565b95508019841693508086168417925050509392505050565b6000819050919050565b600061143a61143561143084610d69565b611415565b610d69565b9050919050565b6000819050919050565b6114548361141f565b61146861146082611441565b8484546113c3565b825550505050565b600090565b61147d611470565b61148881848461144b565b505050565b5b818110156114ac576114a1600082611475565b60018101905061148e565b5050565b601f8211156114f1576114c281611391565b6114cb846113a6565b810160208510156114da578190505b6114ee6114e6856113a6565b83018261148d565b50505b505050565b600082821c905092915050565b6000611514600019846008026114f6565b1980831691505092915050565b600061152d8383611503565b9150826002028217905092915050565b61154682610ffe565b67ffffffffffffffff81111561155f5761155e610e64565b5b6115698254611360565b6115748282856114b0565b600060209050601f8311600181146115a75760008415611595578287015190505b61159f8582611521565b865550611607565b601f1984166115b586611391565b60005b828110156115dd578489015182556001820191506020850194506020810190506115b8565b868310156115fa57848901516115f6601f891682611503565b8355505b6001600288020188555050505b505050505050565b7f496e76616c6964206469737472696275746f7220616464726573730000000000600082015250565b6000611645601b83611009565b91506116508261160f565b602082019050919050565b6000602082019050818103600083015261167481611638565b9050919050565b7f496e76616c69642077686f6c6573616c65722061646472657373000000000000600082015250565b60006116b1601a83611009565b91506116bc8261167b565b602082019050919050565b600060208201905081810360008301526116e0816116a4565b9050919050565b7f496e76616c69642073686f706b65657065722061646472657373000000000000600082015250565b600061171d601a83611009565b9150611728826116e7565b602082019050919050565b6000602082019050818103600083015261174c81611710565b9050919050565b7f496e76616c696420636f6e73756d657220616464726573730000000000000000600082015250565b6000611789601883611009565b915061179482611753565b602082019050919050565b600060208201905081810360008301526117b88161177c565b9050919050565b7f4f6e6c7920746865206661726d65722063616e2064697374726962757465207460008201527f68652063726f7000000000000000000000000000000000000000000000000000602082015250565b600061181b602783611009565b9150611826826117bf565b604082019050919050565b6000602082019050818103600083015261184a8161180e565b9050919050565b7f43726f70207175616e74697479206973207a65726f0000000000000000000000600082015250565b6000611887601583611009565b915061189282611851565b602082019050919050565b600060208201905081810360008301526118b68161187a565b905091905056fea2646970667358221220b4b077f8e20b0be73f62943d4f608f857446a3d22a77771047a40de34980c8c164736f6c63430008120033",
					"opcodes": "PUSH1 0x80 PUSH1 0x40 MSTORE CALLVALUE DUP1 ISZERO PUSH2 0x10 JUMPI PUSH1 0x0 DUP1 REVERT JUMPDEST POP PUSH1 0x0 PUSH1 0x1 DUP2 SWAP1 SSTORE POP PUSH2 0x18F3 DUP1 PUSH2 0x28 PUSH1 0x0 CODECOPY PUSH1 0x0 RETURN INVALID PUSH1 0x80 PUSH1 0x40 MSTORE CALLVALUE DUP1 ISZERO PUSH2 0x10 JUMPI PUSH1 0x0 DUP1 REVERT JUMPDEST POP PUSH1 0x4 CALLDATASIZE LT PUSH2 0x7D JUMPI PUSH1 0x0 CALLDATALOAD PUSH1 0xE0 SHR DUP1 PUSH4 0x70C9F1A5 GT PUSH2 0x5B JUMPI DUP1 PUSH4 0x70C9F1A5 EQ PUSH2 0xFE JUMPI DUP1 PUSH4 0x8BC7FA9C EQ PUSH2 0x137 JUMPI DUP1 PUSH4 0x92E7AA38 EQ PUSH2 0x170 JUMPI DUP1 PUSH4 0xDFD55A2C EQ PUSH2 0x18C JUMPI PUSH2 0x7D JUMP JUMPDEST DUP1 PUSH4 0x32780856 EQ PUSH2 0x82 JUMPI DUP1 PUSH4 0x4E3C5452 EQ PUSH2 0x9E JUMPI DUP1 PUSH4 0x6C662918 EQ PUSH2 0xCE JUMPI JUMPDEST PUSH1 0x0 DUP1 REVERT JUMPDEST PUSH2 0x9C PUSH1 0x4 DUP1 CALLDATASIZE SUB DUP2 ADD SWAP1 PUSH2 0x97 SWAP2 SWAP1 PUSH2 0xD9F JUMP JUMPDEST PUSH2 0x1AA JUMP JUMPDEST STOP JUMPDEST PUSH2 0xB8 PUSH1 0x4 DUP1 CALLDATASIZE SUB DUP2 ADD SWAP1 PUSH2 0xB3 SWAP2 SWAP1 PUSH2 0xDF2 JUMP JUMPDEST PUSH2 0x378 JUMP JUMPDEST PUSH1 0x40 MLOAD PUSH2 0xC5 SWAP2 SWAP1 PUSH2 0xE2E JUMP JUMPDEST PUSH1 0x40 MLOAD DUP1 SWAP2 SUB SWAP1 RETURN JUMPDEST PUSH2 0xE8 PUSH1 0x4 DUP1 CALLDATASIZE SUB DUP2 ADD SWAP1 PUSH2 0xE3 SWAP2 SWAP1 PUSH2 0xF8F JUMP JUMPDEST PUSH2 0x3D4 JUMP JUMPDEST PUSH1 0x40 MLOAD PUSH2 0xF5 SWAP2 SWAP1 PUSH2 0xE2E JUMP JUMPDEST PUSH1 0x40 MLOAD DUP1 SWAP2 SUB SWAP1 RETURN JUMPDEST PUSH2 0x118 PUSH1 0x4 DUP1 CALLDATASIZE SUB DUP2 ADD SWAP1 PUSH2 0x113 SWAP2 SWAP1 PUSH2 0xDF2 JUMP JUMPDEST PUSH2 0x66F JUMP JUMPDEST PUSH1 0x40 MLOAD PUSH2 0x12E SWAP11 SWAP10 SWAP9 SWAP8 SWAP7 SWAP6 SWAP5 SWAP4 SWAP3 SWAP2 SWAP1 PUSH2 0x10BE JUMP JUMPDEST PUSH1 0x40 MLOAD DUP1 SWAP2 SUB SWAP1 RETURN JUMPDEST PUSH2 0x151 PUSH1 0x4 DUP1 CALLDATASIZE SUB DUP2 ADD SWAP1 PUSH2 0x14C SWAP2 SWAP1 PUSH2 0xDF2 JUMP JUMPDEST PUSH2 0x7EB JUMP JUMPDEST PUSH1 0x40 MLOAD PUSH2 0x167 SWAP11 SWAP10 SWAP9 SWAP8 SWAP7 SWAP6 SWAP5 SWAP4 SWAP3 SWAP2 SWAP1 PUSH2 0x10BE JUMP JUMPDEST PUSH1 0x40 MLOAD DUP1 SWAP2 SUB SWAP1 RETURN JUMPDEST PUSH2 0x18A PUSH1 0x4 DUP1 CALLDATASIZE SUB DUP2 ADD SWAP1 PUSH2 0x185 SWAP2 SWAP1 PUSH2 0x118D JUMP JUMPDEST PUSH2 0x990 JUMP JUMPDEST STOP JUMPDEST PUSH2 0x194 PUSH2 0xD4F JUMP JUMPDEST PUSH1 0x40 MLOAD PUSH2 0x1A1 SWAP2 SWAP1 PUSH2 0xE2E JUMP JUMPDEST PUSH1 0x40 MLOAD DUP1 SWAP2 SUB SWAP1 RETURN JUMPDEST PUSH1 0x0 DUP1 PUSH1 0x0 DUP6 DUP2 MSTORE PUSH1 0x20 ADD SWAP1 DUP2 MSTORE PUSH1 0x20 ADD PUSH1 0x0 KECCAK256 SWAP1 POP DUP1 PUSH1 0x5 ADD PUSH1 0x0 SWAP1 SLOAD SWAP1 PUSH2 0x100 EXP SWAP1 DIV PUSH20 0xFFFFFFFFFFFFFFFFFFFFFFFFFFFFFFFFFFFFFFFF AND PUSH20 0xFFFFFFFFFFFFFFFFFFFFFFFFFFFFFFFFFFFFFFFF AND CALLER PUSH20 0xFFFFFFFFFFFFFFFFFFFFFFFFFFFFFFFFFFFFFFFF AND EQ DUP1 PUSH2 0x26D JUMPI POP DUP1 PUSH1 0x6 ADD PUSH1 0x0 SWAP1 SLOAD SWAP1 PUSH2 0x100 EXP SWAP1 DIV PUSH20 0xFFFFFFFFFFFFFFFFFFFFFFFFFFFFFFFFFFFFFFFF AND PUSH20 0xFFFFFFFFFFFFFFFFFFFFFFFFFFFFFFFFFFFFFFFF AND CALLER PUSH20 0xFFFFFFFFFFFFFFFFFFFFFFFFFFFFFFFFFFFFFFFF AND EQ JUMPDEST DUP1 PUSH2 0x2C7 JUMPI POP DUP1 PUSH1 0x7 ADD PUSH1 0x0 SWAP1 SLOAD SWAP1 PUSH2 0x100 EXP SWAP1 DIV PUSH20 0xFFFFFFFFFFFFFFFFFFFFFFFFFFFFFFFFFFFFFFFF AND PUSH20 0xFFFFFFFFFFFFFFFFFFFFFFFFFFFFFFFFFFFFFFFF AND CALLER PUSH20 0xFFFFFFFFFFFFFFFFFFFFFFFFFFFFFFFFFFFFFFFF AND EQ JUMPDEST DUP1 PUSH2 0x321 JUMPI POP DUP1 PUSH1 0x8 ADD PUSH1 0x0 SWAP1 SLOAD SWAP1 PUSH2 0x100 EXP SWAP1 DIV PUSH20 0xFFFFFFFFFFFFFFFFFFFFFFFFFFFFFFFFFFFFFFFF AND PUSH20 0xFFFFFFFFFFFFFFFFFFFFFFFFFFFFFFFFFFFFFFFF AND CALLER PUSH20 0xFFFFFFFFFFFFFFFFFFFFFFFFFFFFFFFFFFFFFFFF AND EQ JUMPDEST PUSH2 0x360 JUMPI PUSH1 0x40 MLOAD PUSH32 0x8C379A000000000000000000000000000000000000000000000000000000000 DUP2 MSTORE PUSH1 0x4 ADD PUSH2 0x357 SWAP1 PUSH2 0x127A JUMP JUMPDEST PUSH1 0x40 MLOAD DUP1 SWAP2 SUB SWAP1 REVERT JUMPDEST DUP3 DUP2 PUSH1 0x2 ADD DUP2 SWAP1 SSTORE POP DUP2 DUP2 PUSH1 0x3 ADD DUP2 SWAP1 SSTORE POP POP POP POP POP JUMP JUMPDEST PUSH1 0x0 DUP1 PUSH1 0x0 DUP1 DUP5 DUP2 MSTORE PUSH1 0x20 ADD SWAP1 DUP2 MSTORE PUSH1 0x20 ADD PUSH1 0x0 KECCAK256 SWAP1 POP PUSH1 0x0 DUP2 PUSH1 0x4 ADD SLOAD TIMESTAMP PUSH2 0x3A1 SWAP2 SWAP1 PUSH2 0x12C9 JUMP JUMPDEST SWAP1 POP DUP2 PUSH1 0x3 ADD SLOAD DUP2 GT ISZERO PUSH2 0x3BA JUMPI PUSH1 0x0 SWAP3 POP POP POP PUSH2 0x3CF JUMP JUMPDEST DUP1 DUP3 PUSH1 0x3 ADD SLOAD PUSH2 0x3CA SWAP2 SWAP1 PUSH2 0x12C9 JUMP JUMPDEST SWAP3 POP POP POP JUMPDEST SWAP2 SWAP1 POP JUMP JUMPDEST PUSH1 0x0 PUSH1 0x1 DUP1 PUSH1 0x0 DUP3 DUP3 SLOAD PUSH2 0x3E8 SWAP2 SWAP1 PUSH2 0x12FD JUMP JUMPDEST SWAP3 POP POP DUP2 SWAP1 SSTORE POP PUSH1 0x40 MLOAD DUP1 PUSH2 0x140 ADD PUSH1 0x40 MSTORE DUP1 PUSH1 0x1 SLOAD DUP2 MSTORE PUSH1 0x20 ADD DUP6 DUP2 MSTORE PUSH1 0x20 ADD DUP5 DUP2 MSTORE PUSH1 0x20 ADD DUP4 DUP2 MSTORE PUSH1 0x20 ADD TIMESTAMP DUP2 MSTORE PUSH1 0x20 ADD CALLER PUSH20 0xFFFFFFFFFFFFFFFFFFFFFFFFFFFFFFFFFFFFFFFF AND DUP2 MSTORE PUSH1 0x20 ADD PUSH1 0x0 PUSH20 0xFFFFFFFFFFFFFFFFFFFFFFFFFFFFFFFFFFFFFFFF AND DUP2 MSTORE PUSH1 0x20 ADD PUSH1 0x0 PUSH20 0xFFFFFFFFFFFFFFFFFFFFFFFFFFFFFFFFFFFFFFFF AND DUP2 MSTORE PUSH1 0x20 ADD PUSH1 0x0 PUSH20 0xFFFFFFFFFFFFFFFFFFFFFFFFFFFFFFFFFFFFFFFF AND DUP2 MSTORE PUSH1 0x20 ADD PUSH1 0x0 PUSH20 0xFFFFFFFFFFFFFFFFFFFFFFFFFFFFFFFFFFFFFFFF AND DUP2 MSTORE POP PUSH1 0x0 DUP1 PUSH1 0x1 SLOAD DUP2 MSTORE PUSH1 0x20 ADD SWAP1 DUP2 MSTORE PUSH1 0x20 ADD PUSH1 0x0 KECCAK256 PUSH1 0x0 DUP3 ADD MLOAD DUP2 PUSH1 0x0 ADD SSTORE PUSH1 0x20 DUP3 ADD MLOAD DUP2 PUSH1 0x1 ADD SWAP1 DUP2 PUSH2 0x4DC SWAP2 SWAP1 PUSH2 0x153D JUMP JUMPDEST POP PUSH1 0x40 DUP3 ADD MLOAD DUP2 PUSH1 0x2 ADD SSTORE PUSH1 0x60 DUP3 ADD MLOAD DUP2 PUSH1 0x3 ADD SSTORE PUSH1 0x80 DUP3 ADD MLOAD DUP2 PUSH1 0x4 ADD SSTORE PUSH1 0xA0 DUP3 ADD MLOAD DUP2 PUSH1 0x5 ADD PUSH1 0x0 PUSH2 0x100 EXP DUP2 SLOAD DUP2 PUSH20 0xFFFFFFFFFFFFFFFFFFFFFFFFFFFFFFFFFFFFFFFF MUL NOT AND SWAP1 DUP4 PUSH20 0xFFFFFFFFFFFFFFFFFFFFFFFFFFFFFFFFFFFFFFFF AND MUL OR SWAP1 SSTORE POP PUSH1 0xC0 DUP3 ADD MLOAD DUP2 PUSH1 0x6 ADD PUSH1 0x0 PUSH2 0x100 EXP DUP2 SLOAD DUP2 PUSH20 0xFFFFFFFFFFFFFFFFFFFFFFFFFFFFFFFFFFFFFFFF MUL NOT AND SWAP1 DUP4 PUSH20 0xFFFFFFFFFFFFFFFFFFFFFFFFFFFFFFFFFFFFFFFF AND MUL OR SWAP1 SSTORE POP PUSH1 0xE0 DUP3 ADD MLOAD DUP2 PUSH1 0x7 ADD PUSH1 0x0 PUSH2 0x100 EXP DUP2 SLOAD DUP2 PUSH20 0xFFFFFFFFFFFFFFFFFFFFFFFFFFFFFFFFFFFFFFFF MUL NOT AND SWAP1 DUP4 PUSH20 0xFFFFFFFFFFFFFFFFFFFFFFFFFFFFFFFFFFFFFFFF AND MUL OR SWAP1 SSTORE POP PUSH2 0x100 DUP3 ADD MLOAD DUP2 PUSH1 0x8 ADD PUSH1 0x0 PUSH2 0x100 EXP DUP2 SLOAD DUP2 PUSH20 0xFFFFFFFFFFFFFFFFFFFFFFFFFFFFFFFFFFFFFFFF MUL NOT AND SWAP1 DUP4 PUSH20 0xFFFFFFFFFFFFFFFFFFFFFFFFFFFFFFFFFFFFFFFF AND MUL OR SWAP1 SSTORE POP PUSH2 0x120 DUP3 ADD MLOAD DUP2 PUSH1 0x9 ADD PUSH1 0x0 PUSH2 0x100 EXP DUP2 SLOAD DUP2 PUSH20 0xFFFFFFFFFFFFFFFFFFFFFFFFFFFFFFFFFFFFFFFF MUL NOT AND SWAP1 DUP4 PUSH20 0xFFFFFFFFFFFFFFFFFFFFFFFFFFFFFFFFFFFFFFFF AND MUL OR SWAP1 SSTORE POP SWAP1 POP POP PUSH1 0x1 SLOAD SWAP1 POP SWAP4 SWAP3 POP POP POP JUMP JUMPDEST PUSH1 0x0 PUSH1 0x20 MSTORE DUP1 PUSH1 0x0 MSTORE PUSH1 0x40 PUSH1 0x0 KECCAK256 PUSH1 0x0 SWAP2 POP SWAP1 POP DUP1 PUSH1 0x0 ADD SLOAD SWAP1 DUP1 PUSH1 0x1 ADD DUP1 SLOAD PUSH2 0x698 SWAP1 PUSH2 0x1360 JUMP JUMPDEST DUP1 PUSH1 0x1F ADD PUSH1 0x20 DUP1 SWAP2 DIV MUL PUSH1 0x20 ADD PUSH1 0x40 MLOAD SWAP1 DUP2 ADD PUSH1 0x40 MSTORE DUP1 SWAP3 SWAP2 SWAP1 DUP2 DUP2 MSTORE PUSH1 0x20 ADD DUP3 DUP1 SLOAD PUSH2 0x6C4 SWAP1 PUSH2 0x1360 JUMP JUMPDEST DUP1 ISZERO PUSH2 0x711 JUMPI DUP1 PUSH1 0x1F LT PUSH2 0x6E6 JUMPI PUSH2 0x100 DUP1 DUP4 SLOAD DIV MUL DUP4 MSTORE SWAP2 PUSH1 0x20 ADD SWAP2 PUSH2 0x711 JUMP JUMPDEST DUP3 ADD SWAP2 SWAP1 PUSH1 0x0 MSTORE PUSH1 0x20 PUSH1 0x0 KECCAK256 SWAP1 JUMPDEST DUP2 SLOAD DUP2 MSTORE SWAP1 PUSH1 0x1 ADD SWAP1 PUSH1 0x20 ADD DUP1 DUP4 GT PUSH2 0x6F4 JUMPI DUP3 SWAP1 SUB PUSH1 0x1F AND DUP3 ADD SWAP2 JUMPDEST POP POP POP POP POP SWAP1 DUP1 PUSH1 0x2 ADD SLOAD SWAP1 DUP1 PUSH1 0x3 ADD SLOAD SWAP1 DUP1 PUSH1 0x4 ADD SLOAD SWAP1 DUP1 PUSH1 0x5 ADD PUSH1 0x0 SWAP1 SLOAD SWAP1 PUSH2 0x100 EXP SWAP1 DIV PUSH20 0xFFFFFFFFFFFFFFFFFFFFFFFFFFFFFFFFFFFFFFFF AND SWAP1 DUP1 PUSH1 0x6 ADD PUSH1 0x0 SWAP1 SLOAD SWAP1 PUSH2 0x100 EXP SWAP1 DIV PUSH20 0xFFFFFFFFFFFFFFFFFFFFFFFFFFFFFFFFFFFFFFFF AND SWAP1 DUP1 PUSH1 0x7 ADD PUSH1 0x0 SWAP1 SLOAD SWAP1 PUSH2 0x100 EXP SWAP1 DIV PUSH20 0xFFFFFFFFFFFFFFFFFFFFFFFFFFFFFFFFFFFFFFFF AND SWAP1 DUP1 PUSH1 0x8 ADD PUSH1 0x0 SWAP1 SLOAD SWAP1 PUSH2 0x100 EXP SWAP1 DIV PUSH20 0xFFFFFFFFFFFFFFFFFFFFFFFFFFFFFFFFFFFFFFFF AND SWAP1 DUP1 PUSH1 0x9 ADD PUSH1 0x0 SWAP1 SLOAD SWAP1 PUSH2 0x100 EXP SWAP1 DIV PUSH20 0xFFFFFFFFFFFFFFFFFFFFFFFFFFFFFFFFFFFFFFFF AND SWAP1 POP DUP11 JUMP JUMPDEST PUSH1 0x0 PUSH1 0x60 PUSH1 0x0 DUP1 PUSH1 0x0 DUP1 PUSH1 0x0 DUP1 PUSH1 0x0 DUP1 PUSH1 0x0 DUP1 PUSH1 0x0 DUP14 DUP2 MSTORE PUSH1 0x20 ADD SWAP1 DUP2 MSTORE PUSH1 0x20 ADD PUSH1 0x0 KECCAK256 SWAP1 POP DUP1 PUSH1 0x0 ADD SLOAD DUP2 PUSH1 0x1 ADD DUP3 PUSH1 0x2 ADD SLOAD DUP4 PUSH1 0x3 ADD SLOAD DUP5 PUSH1 0x4 ADD SLOAD DUP6 PUSH1 0x5 ADD PUSH1 0x0 SWAP1 SLOAD SWAP1 PUSH2 0x100 EXP SWAP1 DIV PUSH20 0xFFFFFFFFFFFFFFFFFFFFFFFFFFFFFFFFFFFFFFFF AND DUP7 PUSH1 0x6 ADD PUSH1 0x0 SWAP1 SLOAD SWAP1 PUSH2 0x100 EXP SWAP1 DIV PUSH20 0xFFFFFFFFFFFFFFFFFFFFFFFFFFFFFFFFFFFFFFFF AND DUP8 PUSH1 0x7 ADD PUSH1 0x0 SWAP1 SLOAD SWAP1 PUSH2 0x100 EXP SWAP1 DIV PUSH20 0xFFFFFFFFFFFFFFFFFFFFFFFFFFFFFFFFFFFFFFFF AND DUP9 PUSH1 0x8 ADD PUSH1 0x0 SWAP1 SLOAD SWAP1 PUSH2 0x100 EXP SWAP1 DIV PUSH20 0xFFFFFFFFFFFFFFFFFFFFFFFFFFFFFFFFFFFFFFFF AND DUP10 PUSH1 0x9 ADD PUSH1 0x0 SWAP1 SLOAD SWAP1 PUSH2 0x100 EXP SWAP1 DIV PUSH20 0xFFFFFFFFFFFFFFFFFFFFFFFFFFFFFFFFFFFFFFFF AND DUP9 DUP1 SLOAD PUSH2 0x8EE SWAP1 PUSH2 0x1360 JUMP JUMPDEST DUP1 PUSH1 0x1F ADD PUSH1 0x20 DUP1 SWAP2 DIV MUL PUSH1 0x20 ADD PUSH1 0x40 MLOAD SWAP1 DUP2 ADD PUSH1 0x40 MSTORE DUP1 SWAP3 SWAP2 SWAP1 DUP2 DUP2 MSTORE PUSH1 0x20 ADD DUP3 DUP1 SLOAD PUSH2 0x91A SWAP1 PUSH2 0x1360 JUMP JUMPDEST DUP1 ISZERO PUSH2 0x967 JUMPI DUP1 PUSH1 0x1F LT PUSH2 0x93C JUMPI PUSH2 0x100 DUP1 DUP4 SLOAD DIV MUL DUP4 MSTORE SWAP2 PUSH1 0x20 ADD SWAP2 PUSH2 0x967 JUMP JUMPDEST DUP3 ADD SWAP2 SWAP1 PUSH1 0x0 MSTORE PUSH1 0x20 PUSH1 0x0 KECCAK256 SWAP1 JUMPDEST DUP2 SLOAD DUP2 MSTORE SWAP1 PUSH1 0x1 ADD SWAP1 PUSH1 0x20 ADD DUP1 DUP4 GT PUSH2 0x94A JUMPI DUP3 SWAP1 SUB PUSH1 0x1F AND DUP3 ADD SWAP2 JUMPDEST POP POP POP POP POP SWAP9 POP SWAP11 POP SWAP11 POP SWAP11 POP SWAP11 POP SWAP11 POP SWAP11 POP SWAP11 POP SWAP11 POP SWAP11 POP SWAP11 POP POP SWAP2 SWAP4 SWAP6 SWAP8 SWAP10 POP SWAP2 SWAP4 SWAP6 SWAP8 SWAP10 JUMP JUMPDEST PUSH1 0x0 PUSH20 0xFFFFFFFFFFFFFFFFFFFFFFFFFFFFFFFFFFFFFFFF AND DUP5 PUSH20 0xFFFFFFFFFFFFFFFFFFFFFFFFFFFFFFFFFFFFFFFF AND SUB PUSH2 0x9FF JUMPI PUSH1 0x40 MLOAD PUSH32 0x8C379A000000000000000000000000000000000000000000000000000000000 DUP2 MSTORE PUSH1 0x4 ADD PUSH2 0x9F6 SWAP1 PUSH2 0x165B JUMP JUMPDEST PUSH1 0x40 MLOAD DUP1 SWAP2 SUB SWAP1 REVERT JUMPDEST PUSH1 0x0 PUSH20 0xFFFFFFFFFFFFFFFFFFFFFFFFFFFFFFFFFFFFFFFF AND DUP4 PUSH20 0xFFFFFFFFFFFFFFFFFFFFFFFFFFFFFFFFFFFFFFFF AND SUB PUSH2 0xA6E JUMPI PUSH1 0x40 MLOAD PUSH32 0x8C379A000000000000000000000000000000000000000000000000000000000 DUP2 MSTORE PUSH1 0x4 ADD PUSH2 0xA65 SWAP1 PUSH2 0x16C7 JUMP JUMPDEST PUSH1 0x40 MLOAD DUP1 SWAP2 SUB SWAP1 REVERT JUMPDEST PUSH1 0x0 PUSH20 0xFFFFFFFFFFFFFFFFFFFFFFFFFFFFFFFFFFFFFFFF AND DUP3 PUSH20 0xFFFFFFFFFFFFFFFFFFFFFFFFFFFFFFFFFFFFFFFF AND SUB PUSH2 0xADD JUMPI PUSH1 0x40 MLOAD PUSH32 0x8C379A000000000000000000000000000000000000000000000000000000000 DUP2 MSTORE PUSH1 0x4 ADD PUSH2 0xAD4 SWAP1 PUSH2 0x1733 JUMP JUMPDEST PUSH1 0x40 MLOAD DUP1 SWAP2 SUB SWAP1 REVERT JUMPDEST PUSH1 0x0 PUSH20 0xFFFFFFFFFFFFFFFFFFFFFFFFFFFFFFFFFFFFFFFF AND DUP2 PUSH20 0xFFFFFFFFFFFFFFFFFFFFFFFFFFFFFFFFFFFFFFFF AND SUB PUSH2 0xB4C JUMPI PUSH1 0x40 MLOAD PUSH32 0x8C379A000000000000000000000000000000000000000000000000000000000 DUP2 MSTORE PUSH1 0x4 ADD PUSH2 0xB43 SWAP1 PUSH2 0x179F JUMP JUMPDEST PUSH1 0x40 MLOAD DUP1 SWAP2 SUB SWAP1 REVERT JUMPDEST PUSH1 0x0 DUP1 PUSH1 0x0 DUP8 DUP2 MSTORE PUSH1 0x20 ADD SWAP1 DUP2 MSTORE PUSH1 0x20 ADD PUSH1 0x0 KECCAK256 SWAP1 POP DUP1 PUSH1 0x5 ADD PUSH1 0x0 SWAP1 SLOAD SWAP1 PUSH2 0x100 EXP SWAP1 DIV PUSH20 0xFFFFFFFFFFFFFFFFFFFFFFFFFFFFFFFFFFFFFFFF AND PUSH20 0xFFFFFFFFFFFFFFFFFFFFFFFFFFFFFFFFFFFFFFFF AND CALLER PUSH20 0xFFFFFFFFFFFFFFFFFFFFFFFFFFFFFFFFFFFFFFFF AND EQ PUSH2 0xBF4 JUMPI PUSH1 0x40 MLOAD PUSH32 0x8C379A000000000000000000000000000000000000000000000000000000000 DUP2 MSTORE PUSH1 0x4 ADD PUSH2 0xBEB SWAP1 PUSH2 0x1831 JUMP JUMPDEST PUSH1 0x40 MLOAD DUP1 SWAP2 SUB SWAP1 REVERT JUMPDEST PUSH1 0x0 DUP2 PUSH1 0x2 ADD SLOAD GT PUSH2 0xC3B JUMPI PUSH1 0x40 MLOAD PUSH32 0x8C379A000000000000000000000000000000000000000000000000000000000 DUP2 MSTORE PUSH1 0x4 ADD PUSH2 0xC32 SWAP1 PUSH2 0x189D JUMP JUMPDEST PUSH1 0x40 MLOAD DUP1 SWAP2 SUB SWAP1 REVERT JUMPDEST DUP5 DUP2 PUSH1 0x6 ADD PUSH1 0x0 PUSH2 0x100 EXP DUP2 SLOAD DUP2 PUSH20 0xFFFFFFFFFFFFFFFFFFFFFFFFFFFFFFFFFFFFFFFF MUL NOT AND SWAP1 DUP4 PUSH20 0xFFFFFFFFFFFFFFFFFFFFFFFFFFFFFFFFFFFFFFFF AND MUL OR SWAP1 SSTORE POP DUP4 DUP2 PUSH1 0x7 ADD PUSH1 0x0 PUSH2 0x100 EXP DUP2 SLOAD DUP2 PUSH20 0xFFFFFFFFFFFFFFFFFFFFFFFFFFFFFFFFFFFFFFFF MUL NOT AND SWAP1 DUP4 PUSH20 0xFFFFFFFFFFFFFFFFFFFFFFFFFFFFFFFFFFFFFFFF AND MUL OR SWAP1 SSTORE POP DUP3 DUP2 PUSH1 0x8 ADD PUSH1 0x0 PUSH2 0x100 EXP DUP2 SLOAD DUP2 PUSH20 0xFFFFFFFFFFFFFFFFFFFFFFFFFFFFFFFFFFFFFFFF MUL NOT AND SWAP1 DUP4 PUSH20 0xFFFFFFFFFFFFFFFFFFFFFFFFFFFFFFFFFFFFFFFF AND MUL OR SWAP1 SSTORE POP DUP2 DUP2 PUSH1 0x9 ADD PUSH1 0x0 PUSH2 0x100 EXP DUP2 SLOAD DUP2 PUSH20 0xFFFFFFFFFFFFFFFFFFFFFFFFFFFFFFFFFFFFFFFF MUL NOT AND SWAP1 DUP4 PUSH20 0xFFFFFFFFFFFFFFFFFFFFFFFFFFFFFFFFFFFFFFFF AND MUL OR SWAP1 SSTORE POP POP POP POP POP POP POP JUMP JUMPDEST PUSH1 0x1 SLOAD DUP2 JUMP JUMPDEST PUSH1 0x0 PUSH1 0x40 MLOAD SWAP1 POP SWAP1 JUMP JUMPDEST PUSH1 0x0 DUP1 REVERT JUMPDEST PUSH1 0x0 DUP1 REVERT JUMPDEST PUSH1 0x0 DUP2 SWAP1 POP SWAP2 SWAP1 POP JUMP JUMPDEST PUSH2 0xD7C DUP2 PUSH2 0xD69 JUMP JUMPDEST DUP2 EQ PUSH2 0xD87 JUMPI PUSH1 0x0 DUP1 REVERT JUMPDEST POP JUMP JUMPDEST PUSH1 0x0 DUP2 CALLDATALOAD SWAP1 POP PUSH2 0xD99 DUP2 PUSH2 0xD73 JUMP JUMPDEST SWAP3 SWAP2 POP POP JUMP JUMPDEST PUSH1 0x0 DUP1 PUSH1 0x0 PUSH1 0x60 DUP5 DUP7 SUB SLT ISZERO PUSH2 0xDB8 JUMPI PUSH2 0xDB7 PUSH2 0xD5F JUMP JUMPDEST JUMPDEST PUSH1 0x0 PUSH2 0xDC6 DUP7 DUP3 DUP8 ADD PUSH2 0xD8A JUMP JUMPDEST SWAP4 POP POP PUSH1 0x20 PUSH2 0xDD7 DUP7 DUP3 DUP8 ADD PUSH2 0xD8A JUMP JUMPDEST SWAP3 POP POP PUSH1 0x40 PUSH2 0xDE8 DUP7 DUP3 DUP8 ADD PUSH2 0xD8A JUMP JUMPDEST SWAP2 POP POP SWAP3 POP SWAP3 POP SWAP3 JUMP JUMPDEST PUSH1 0x0 PUSH1 0x20 DUP3 DUP5 SUB SLT ISZERO PUSH2 0xE08 JUMPI PUSH2 0xE07 PUSH2 0xD5F JUMP JUMPDEST JUMPDEST PUSH1 0x0 PUSH2 0xE16 DUP5 DUP3 DUP6 ADD PUSH2 0xD8A JUMP JUMPDEST SWAP2 POP POP SWAP3 SWAP2 POP POP JUMP JUMPDEST PUSH2 0xE28 DUP2 PUSH2 0xD69 JUMP JUMPDEST DUP3 MSTORE POP POP JUMP JUMPDEST PUSH1 0x0 PUSH1 0x20 DUP3 ADD SWAP1 POP PUSH2 0xE43 PUSH1 0x0 DUP4 ADD DUP5 PUSH2 0xE1F JUMP JUMPDEST SWAP3 SWAP2 POP POP JUMP JUMPDEST PUSH1 0x0 DUP1 REVERT JUMPDEST PUSH1 0x0 DUP1 REVERT JUMPDEST PUSH1 0x0 PUSH1 0x1F NOT PUSH1 0x1F DUP4 ADD AND SWAP1 POP SWAP2 SWAP1 POP JUMP JUMPDEST PUSH32 0x4E487B7100000000000000000000000000000000000000000000000000000000 PUSH1 0x0 MSTORE PUSH1 0x41 PUSH1 0x4 MSTORE PUSH1 0x24 PUSH1 0x0 REVERT JUMPDEST PUSH2 0xE9C DUP3 PUSH2 0xE53 JUMP JUMPDEST DUP2 ADD DUP2 DUP2 LT PUSH8 0xFFFFFFFFFFFFFFFF DUP3 GT OR ISZERO PUSH2 0xEBB JUMPI PUSH2 0xEBA PUSH2 0xE64 JUMP JUMPDEST JUMPDEST DUP1 PUSH1 0x40 MSTORE POP POP POP JUMP JUMPDEST PUSH1 0x0 PUSH2 0xECE PUSH2 0xD55 JUMP JUMPDEST SWAP1 POP PUSH2 0xEDA DUP3 DUP3 PUSH2 0xE93 JUMP JUMPDEST SWAP2 SWAP1 POP JUMP JUMPDEST PUSH1 0x0 PUSH8 0xFFFFFFFFFFFFFFFF DUP3 GT ISZERO PUSH2 0xEFA JUMPI PUSH2 0xEF9 PUSH2 0xE64 JUMP JUMPDEST JUMPDEST PUSH2 0xF03 DUP3 PUSH2 0xE53 JUMP JUMPDEST SWAP1 POP PUSH1 0x20 DUP2 ADD SWAP1 POP SWAP2 SWAP1 POP JUMP JUMPDEST DUP3 DUP2 DUP4 CALLDATACOPY PUSH1 0x0 DUP4 DUP4 ADD MSTORE POP POP POP JUMP JUMPDEST PUSH1 0x0 PUSH2 0xF32 PUSH2 0xF2D DUP5 PUSH2 0xEDF JUMP JUMPDEST PUSH2 0xEC4 JUMP JUMPDEST SWAP1 POP DUP3 DUP2 MSTORE PUSH1 0x20 DUP2 ADD DUP5 DUP5 DUP5 ADD GT ISZERO PUSH2 0xF4E JUMPI PUSH2 0xF4D PUSH2 0xE4E JUMP JUMPDEST JUMPDEST PUSH2 0xF59 DUP5 DUP3 DUP6 PUSH2 0xF10 JUMP JUMPDEST POP SWAP4 SWAP3 POP POP POP JUMP JUMPDEST PUSH1 0x0 DUP3 PUSH1 0x1F DUP4 ADD SLT PUSH2 0xF76 JUMPI PUSH2 0xF75 PUSH2 0xE49 JUMP JUMPDEST JUMPDEST DUP2 CALLDATALOAD PUSH2 0xF86 DUP5 DUP3 PUSH1 0x20 DUP7 ADD PUSH2 0xF1F JUMP JUMPDEST SWAP2 POP POP SWAP3 SWAP2 POP POP JUMP JUMPDEST PUSH1 0x0 DUP1 PUSH1 0x0 PUSH1 0x60 DUP5 DUP7 SUB SLT ISZERO PUSH2 0xFA8 JUMPI PUSH2 0xFA7 PUSH2 0xD5F JUMP JUMPDEST JUMPDEST PUSH1 0x0 DUP5 ADD CALLDATALOAD PUSH8 0xFFFFFFFFFFFFFFFF DUP2 GT ISZERO PUSH2 0xFC6 JUMPI PUSH2 0xFC5 PUSH2 0xD64 JUMP JUMPDEST JUMPDEST PUSH2 0xFD2 DUP7 DUP3 DUP8 ADD PUSH2 0xF61 JUMP JUMPDEST SWAP4 POP POP PUSH1 0x20 PUSH2 0xFE3 DUP7 DUP3 DUP8 ADD PUSH2 0xD8A JUMP JUMPDEST SWAP3 POP POP PUSH1 0x40 PUSH2 0xFF4 DUP7 DUP3 DUP8 ADD PUSH2 0xD8A JUMP JUMPDEST SWAP2 POP POP SWAP3 POP SWAP3 POP SWAP3 JUMP JUMPDEST PUSH1 0x0 DUP2 MLOAD SWAP1 POP SWAP2 SWAP1 POP JUMP JUMPDEST PUSH1 0x0 DUP3 DUP3 MSTORE PUSH1 0x20 DUP3 ADD SWAP1 POP SWAP3 SWAP2 POP POP JUMP JUMPDEST PUSH1 0x0 JUMPDEST DUP4 DUP2 LT ISZERO PUSH2 0x1038 JUMPI DUP1 DUP3 ADD MLOAD DUP2 DUP5 ADD MSTORE PUSH1 0x20 DUP2 ADD SWAP1 POP PUSH2 0x101D JUMP JUMPDEST PUSH1 0x0 DUP5 DUP5 ADD MSTORE POP POP POP POP JUMP JUMPDEST PUSH1 0x0 PUSH2 0x104F DUP3 PUSH2 0xFFE JUMP JUMPDEST PUSH2 0x1059 DUP2 DUP6 PUSH2 0x1009 JUMP JUMPDEST SWAP4 POP PUSH2 0x1069 DUP2 DUP6 PUSH1 0x20 DUP7 ADD PUSH2 0x101A JUMP JUMPDEST PUSH2 0x1072 DUP2 PUSH2 0xE53 JUMP JUMPDEST DUP5 ADD SWAP2 POP POP SWAP3 SWAP2 POP POP JUMP JUMPDEST PUSH1 0x0 PUSH20 0xFFFFFFFFFFFFFFFFFFFFFFFFFFFFFFFFFFFFFFFF DUP3 AND SWAP1 POP SWAP2 SWAP1 POP JUMP JUMPDEST PUSH1 0x0 PUSH2 0x10A8 DUP3 PUSH2 0x107D JUMP JUMPDEST SWAP1 POP SWAP2 SWAP1 POP JUMP JUMPDEST PUSH2 0x10B8 DUP2 PUSH2 0x109D JUMP JUMPDEST DUP3 MSTORE POP POP JUMP JUMPDEST PUSH1 0x0 PUSH2 0x140 DUP3 ADD SWAP1 POP PUSH2 0x10D4 PUSH1 0x0 DUP4 ADD DUP14 PUSH2 0xE1F JUMP JUMPDEST DUP2 DUP2 SUB PUSH1 0x20 DUP4 ADD MSTORE PUSH2 0x10E6 DUP2 DUP13 PUSH2 0x1044 JUMP JUMPDEST SWAP1 POP PUSH2 0x10F5 PUSH1 0x40 DUP4 ADD DUP12 PUSH2 0xE1F JUMP JUMPDEST PUSH2 0x1102 PUSH1 0x60 DUP4 ADD DUP11 PUSH2 0xE1F JUMP JUMPDEST PUSH2 0x110F PUSH1 0x80 DUP4 ADD DUP10 PUSH2 0xE1F JUMP JUMPDEST PUSH2 0x111C PUSH1 0xA0 DUP4 ADD DUP9 PUSH2 0x10AF JUMP JUMPDEST PUSH2 0x1129 PUSH1 0xC0 DUP4 ADD DUP8 PUSH2 0x10AF JUMP JUMPDEST PUSH2 0x1136 PUSH1 0xE0 DUP4 ADD DUP7 PUSH2 0x10AF JUMP JUMPDEST PUSH2 0x1144 PUSH2 0x100 DUP4 ADD DUP6 PUSH2 0x10AF JUMP JUMPDEST PUSH2 0x1152 PUSH2 0x120 DUP4 ADD DUP5 PUSH2 0x10AF JUMP JUMPDEST SWAP12 SWAP11 POP POP POP POP POP POP POP POP POP POP POP JUMP JUMPDEST PUSH2 0x116A DUP2 PUSH2 0x109D JUMP JUMPDEST DUP2 EQ PUSH2 0x1175 JUMPI PUSH1 0x0 DUP1 REVERT JUMPDEST POP JUMP JUMPDEST PUSH1 0x0 DUP2 CALLDATALOAD SWAP1 POP PUSH2 0x1187 DUP2 PUSH2 0x1161 JUMP JUMPDEST SWAP3 SWAP2 POP POP JUMP JUMPDEST PUSH1 0x0 DUP1 PUSH1 0x0 DUP1 PUSH1 0x0 PUSH1 0xA0 DUP7 DUP9 SUB SLT ISZERO PUSH2 0x11A9 JUMPI PUSH2 0x11A8 PUSH2 0xD5F JUMP JUMPDEST JUMPDEST PUSH1 0x0 PUSH2 0x11B7 DUP9 DUP3 DUP10 ADD PUSH2 0xD8A JUMP JUMPDEST SWAP6 POP POP PUSH1 0x20 PUSH2 0x11C8 DUP9 DUP3 DUP10 ADD PUSH2 0x1178 JUMP JUMPDEST SWAP5 POP POP PUSH1 0x40 PUSH2 0x11D9 DUP9 DUP3 DUP10 ADD PUSH2 0x1178 JUMP JUMPDEST SWAP4 POP POP PUSH1 0x60 PUSH2 0x11EA DUP9 DUP3 DUP10 ADD PUSH2 0x1178 JUMP JUMPDEST SWAP3 POP POP PUSH1 0x80 PUSH2 0x11FB DUP9 DUP3 DUP10 ADD PUSH2 0x1178 JUMP JUMPDEST SWAP2 POP POP SWAP3 SWAP6 POP SWAP3 SWAP6 SWAP1 SWAP4 POP JUMP JUMPDEST PUSH32 0x4F6E6C7920617574686F72697A656420706172746965732063616E2075706461 PUSH1 0x0 DUP3 ADD MSTORE PUSH32 0x7465207468652063726F70000000000000000000000000000000000000000000 PUSH1 0x20 DUP3 ADD MSTORE POP JUMP JUMPDEST PUSH1 0x0 PUSH2 0x1264 PUSH1 0x2B DUP4 PUSH2 0x1009 JUMP JUMPDEST SWAP2 POP PUSH2 0x126F DUP3 PUSH2 0x1208 JUMP JUMPDEST PUSH1 0x40 DUP3 ADD SWAP1 POP SWAP2 SWAP1 POP JUMP JUMPDEST PUSH1 0x0 PUSH1 0x20 DUP3 ADD SWAP1 POP DUP2 DUP2 SUB PUSH1 0x0 DUP4 ADD MSTORE PUSH2 0x1293 DUP2 PUSH2 0x1257 JUMP JUMPDEST SWAP1 POP SWAP2 SWAP1 POP JUMP JUMPDEST PUSH32 0x4E487B7100000000000000000000000000000000000000000000000000000000 PUSH1 0x0 MSTORE PUSH1 0x11 PUSH1 0x4 MSTORE PUSH1 0x24 PUSH1 0x0 REVERT JUMPDEST PUSH1 0x0 PUSH2 0x12D4 DUP3 PUSH2 0xD69 JUMP JUMPDEST SWAP2 POP PUSH2 0x12DF DUP4 PUSH2 0xD69 JUMP JUMPDEST SWAP3 POP DUP3 DUP3 SUB SWAP1 POP DUP2 DUP2 GT ISZERO PUSH2 0x12F7 JUMPI PUSH2 0x12F6 PUSH2 0x129A JUMP JUMPDEST JUMPDEST SWAP3 SWAP2 POP POP JUMP JUMPDEST PUSH1 0x0 PUSH2 0x1308 DUP3 PUSH2 0xD69 JUMP JUMPDEST SWAP2 POP PUSH2 0x1313 DUP4 PUSH2 0xD69 JUMP JUMPDEST SWAP3 POP DUP3 DUP3 ADD SWAP1 POP DUP1 DUP3 GT ISZERO PUSH2 0x132B JUMPI PUSH2 0x132A PUSH2 0x129A JUMP JUMPDEST JUMPDEST SWAP3 SWAP2 POP POP JUMP JUMPDEST PUSH32 0x4E487B7100000000000000000000000000000000000000000000000000000000 PUSH1 0x0 MSTORE PUSH1 0x22 PUSH1 0x4 MSTORE PUSH1 0x24 PUSH1 0x0 REVERT JUMPDEST PUSH1 0x0 PUSH1 0x2 DUP3 DIV SWAP1 POP PUSH1 0x1 DUP3 AND DUP1 PUSH2 0x1378 JUMPI PUSH1 0x7F DUP3 AND SWAP2 POP JUMPDEST PUSH1 0x20 DUP3 LT DUP2 SUB PUSH2 0x138B JUMPI PUSH2 0x138A PUSH2 0x1331 JUMP JUMPDEST JUMPDEST POP SWAP2 SWAP1 POP JUMP JUMPDEST PUSH1 0x0 DUP2 SWAP1 POP DUP2 PUSH1 0x0 MSTORE PUSH1 0x20 PUSH1 0x0 KECCAK256 SWAP1 POP SWAP2 SWAP1 POP JUMP JUMPDEST PUSH1 0x0 PUSH1 0x20 PUSH1 0x1F DUP4 ADD DIV SWAP1 POP SWAP2 SWAP1 POP JUMP JUMPDEST PUSH1 0x0 DUP3 DUP3 SHL SWAP1 POP SWAP3 SWAP2 POP POP JUMP JUMPDEST PUSH1 0x0 PUSH1 0x8 DUP4 MUL PUSH2 0x13F3 PUSH32 0xFFFFFFFFFFFFFFFFFFFFFFFFFFFFFFFFFFFFFFFFFFFFFFFFFFFFFFFFFFFFFFFF DUP3 PUSH2 0x13B6 JUMP JUMPDEST PUSH2 0x13FD DUP7 DUP4 PUSH2 0x13B6 JUMP JUMPDEST SWAP6 POP DUP1 NOT DUP5 AND SWAP4 POP DUP1 DUP7 AND DUP5 OR SWAP3 POP POP POP SWAP4 SWAP3 POP POP POP JUMP JUMPDEST PUSH1 0x0 DUP2 SWAP1 POP SWAP2 SWAP1 POP JUMP JUMPDEST PUSH1 0x0 PUSH2 0x143A PUSH2 0x1435 PUSH2 0x1430 DUP5 PUSH2 0xD69 JUMP JUMPDEST PUSH2 0x1415 JUMP JUMPDEST PUSH2 0xD69 JUMP JUMPDEST SWAP1 POP SWAP2 SWAP1 POP JUMP JUMPDEST PUSH1 0x0 DUP2 SWAP1 POP SWAP2 SWAP1 POP JUMP JUMPDEST PUSH2 0x1454 DUP4 PUSH2 0x141F JUMP JUMPDEST PUSH2 0x1468 PUSH2 0x1460 DUP3 PUSH2 0x1441 JUMP JUMPDEST DUP5 DUP5 SLOAD PUSH2 0x13C3 JUMP JUMPDEST DUP3 SSTORE POP POP POP POP JUMP JUMPDEST PUSH1 0x0 SWAP1 JUMP JUMPDEST PUSH2 0x147D PUSH2 0x1470 JUMP JUMPDEST PUSH2 0x1488 DUP2 DUP5 DUP5 PUSH2 0x144B JUMP JUMPDEST POP POP POP JUMP JUMPDEST JUMPDEST DUP2 DUP2 LT ISZERO PUSH2 0x14AC JUMPI PUSH2 0x14A1 PUSH1 0x0 DUP3 PUSH2 0x1475 JUMP JUMPDEST PUSH1 0x1 DUP2 ADD SWAP1 POP PUSH2 0x148E JUMP JUMPDEST POP POP JUMP JUMPDEST PUSH1 0x1F DUP3 GT ISZERO PUSH2 0x14F1 JUMPI PUSH2 0x14C2 DUP2 PUSH2 0x1391 JUMP JUMPDEST PUSH2 0x14CB DUP5 PUSH2 0x13A6 JUMP JUMPDEST DUP2 ADD PUSH1 0x20 DUP6 LT ISZERO PUSH2 0x14DA JUMPI DUP2 SWAP1 POP JUMPDEST PUSH2 0x14EE PUSH2 0x14E6 DUP6 PUSH2 0x13A6 JUMP JUMPDEST DUP4 ADD DUP3 PUSH2 0x148D JUMP JUMPDEST POP POP JUMPDEST POP POP POP JUMP JUMPDEST PUSH1 0x0 DUP3 DUP3 SHR SWAP1 POP SWAP3 SWAP2 POP POP JUMP JUMPDEST PUSH1 0x0 PUSH2 0x1514 PUSH1 0x0 NOT DUP5 PUSH1 0x8 MUL PUSH2 0x14F6 JUMP JUMPDEST NOT DUP1 DUP4 AND SWAP2 POP POP SWAP3 SWAP2 POP POP JUMP JUMPDEST PUSH1 0x0 PUSH2 0x152D DUP4 DUP4 PUSH2 0x1503 JUMP JUMPDEST SWAP2 POP DUP3 PUSH1 0x2 MUL DUP3 OR SWAP1 POP SWAP3 SWAP2 POP POP JUMP JUMPDEST PUSH2 0x1546 DUP3 PUSH2 0xFFE JUMP JUMPDEST PUSH8 0xFFFFFFFFFFFFFFFF DUP2 GT ISZERO PUSH2 0x155F JUMPI PUSH2 0x155E PUSH2 0xE64 JUMP JUMPDEST JUMPDEST PUSH2 0x1569 DUP3 SLOAD PUSH2 0x1360 JUMP JUMPDEST PUSH2 0x1574 DUP3 DUP3 DUP6 PUSH2 0x14B0 JUMP JUMPDEST PUSH1 0x0 PUSH1 0x20 SWAP1 POP PUSH1 0x1F DUP4 GT PUSH1 0x1 DUP2 EQ PUSH2 0x15A7 JUMPI PUSH1 0x0 DUP5 ISZERO PUSH2 0x1595 JUMPI DUP3 DUP8 ADD MLOAD SWAP1 POP JUMPDEST PUSH2 0x159F DUP6 DUP3 PUSH2 0x1521 JUMP JUMPDEST DUP7 SSTORE POP PUSH2 0x1607 JUMP JUMPDEST PUSH1 0x1F NOT DUP5 AND PUSH2 0x15B5 DUP7 PUSH2 0x1391 JUMP JUMPDEST PUSH1 0x0 JUMPDEST DUP3 DUP2 LT ISZERO PUSH2 0x15DD JUMPI DUP5 DUP10 ADD MLOAD DUP3 SSTORE PUSH1 0x1 DUP3 ADD SWAP2 POP PUSH1 0x20 DUP6 ADD SWAP5 POP PUSH1 0x20 DUP2 ADD SWAP1 POP PUSH2 0x15B8 JUMP JUMPDEST DUP7 DUP4 LT ISZERO PUSH2 0x15FA JUMPI DUP5 DUP10 ADD MLOAD PUSH2 0x15F6 PUSH1 0x1F DUP10 AND DUP3 PUSH2 0x1503 JUMP JUMPDEST DUP4 SSTORE POP JUMPDEST PUSH1 0x1 PUSH1 0x2 DUP9 MUL ADD DUP9 SSTORE POP POP POP JUMPDEST POP POP POP POP POP POP JUMP JUMPDEST PUSH32 0x496E76616C6964206469737472696275746F7220616464726573730000000000 PUSH1 0x0 DUP3 ADD MSTORE POP JUMP JUMPDEST PUSH1 0x0 PUSH2 0x1645 PUSH1 0x1B DUP4 PUSH2 0x1009 JUMP JUMPDEST SWAP2 POP PUSH2 0x1650 DUP3 PUSH2 0x160F JUMP JUMPDEST PUSH1 0x20 DUP3 ADD SWAP1 POP SWAP2 SWAP1 POP JUMP JUMPDEST PUSH1 0x0 PUSH1 0x20 DUP3 ADD SWAP1 POP DUP2 DUP2 SUB PUSH1 0x0 DUP4 ADD MSTORE PUSH2 0x1674 DUP2 PUSH2 0x1638 JUMP JUMPDEST SWAP1 POP SWAP2 SWAP1 POP JUMP JUMPDEST PUSH32 0x496E76616C69642077686F6C6573616C65722061646472657373000000000000 PUSH1 0x0 DUP3 ADD MSTORE POP JUMP JUMPDEST PUSH1 0x0 PUSH2 0x16B1 PUSH1 0x1A DUP4 PUSH2 0x1009 JUMP JUMPDEST SWAP2 POP PUSH2 0x16BC DUP3 PUSH2 0x167B JUMP JUMPDEST PUSH1 0x20 DUP3 ADD SWAP1 POP SWAP2 SWAP1 POP JUMP JUMPDEST PUSH1 0x0 PUSH1 0x20 DUP3 ADD SWAP1 POP DUP2 DUP2 SUB PUSH1 0x0 DUP4 ADD MSTORE PUSH2 0x16E0 DUP2 PUSH2 0x16A4 JUMP JUMPDEST SWAP1 POP SWAP2 SWAP1 POP JUMP JUMPDEST PUSH32 0x496E76616C69642073686F706B65657065722061646472657373000000000000 PUSH1 0x0 DUP3 ADD MSTORE POP JUMP JUMPDEST PUSH1 0x0 PUSH2 0x171D PUSH1 0x1A DUP4 PUSH2 0x1009 JUMP JUMPDEST SWAP2 POP PUSH2 0x1728 DUP3 PUSH2 0x16E7 JUMP JUMPDEST PUSH1 0x20 DUP3 ADD SWAP1 POP SWAP2 SWAP1 POP JUMP JUMPDEST PUSH1 0x0 PUSH1 0x20 DUP3 ADD SWAP1 POP DUP2 DUP2 SUB PUSH1 0x0 DUP4 ADD MSTORE PUSH2 0x174C DUP2 PUSH2 0x1710 JUMP JUMPDEST SWAP1 POP SWAP2 SWAP1 POP JUMP JUMPDEST PUSH32 0x496E76616C696420636F6E73756D657220616464726573730000000000000000 PUSH1 0x0 DUP3 ADD MSTORE POP JUMP JUMPDEST PUSH1 0x0 PUSH2 0x1789 PUSH1 0x18 DUP4 PUSH2 0x1009 JUMP JUMPDEST SWAP2 POP PUSH2 0x1794 DUP3 PUSH2 0x1753 JUMP JUMPDEST PUSH1 0x20 DUP3 ADD SWAP1 POP SWAP2 SWAP1 POP JUMP JUMPDEST PUSH1 0x0 PUSH1 0x20 DUP3 ADD SWAP1 POP DUP2 DUP2 SUB PUSH1 0x0 DUP4 ADD MSTORE PUSH2 0x17B8 DUP2 PUSH2 0x177C JUMP JUMPDEST SWAP1 POP SWAP2 SWAP1 POP JUMP JUMPDEST PUSH32 0x4F6E6C7920746865206661726D65722063616E20646973747269627574652074 PUSH1 0x0 DUP3 ADD MSTORE PUSH32 0x68652063726F7000000000000000000000000000000000000000000000000000 PUSH1 0x20 DUP3 ADD MSTORE POP JUMP JUMPDEST PUSH1 0x0 PUSH2 0x181B PUSH1 0x27 DUP4 PUSH2 0x1009 JUMP JUMPDEST SWAP2 POP PUSH2 0x1826 DUP3 PUSH2 0x17BF JUMP JUMPDEST PUSH1 0x40 DUP3 ADD SWAP1 POP SWAP2 SWAP1 POP JUMP JUMPDEST PUSH1 0x0 PUSH1 0x20 DUP3 ADD SWAP1 POP DUP2 DUP2 SUB PUSH1 0x0 DUP4 ADD MSTORE PUSH2 0x184A DUP2 PUSH2 0x180E JUMP JUMPDEST SWAP1 POP SWAP2 SWAP1 POP JUMP JUMPDEST PUSH32 0x43726F70207175616E74697479206973207A65726F0000000000000000000000 PUSH1 0x0 DUP3 ADD MSTORE POP JUMP JUMPDEST PUSH1 0x0 PUSH2 0x1887 PUSH1 0x15 DUP4 PUSH2 0x1009 JUMP JUMPDEST SWAP2 POP PUSH2 0x1892 DUP3 PUSH2 0x1851 JUMP JUMPDEST PUSH1 0x20 DUP3 ADD SWAP1 POP SWAP2 SWAP1 POP JUMP JUMPDEST PUSH1 0x0 PUSH1 0x20 DUP3 ADD SWAP1 POP DUP2 DUP2 SUB PUSH1 0x0 DUP4 ADD MSTORE PUSH2 0x18B6 DUP2 PUSH2 0x187A JUMP JUMPDEST SWAP1 POP SWAP2 SWAP1 POP JUMP INVALID LOG2 PUSH5 0x6970667358 0x22 SLT KECCAK256 0xB4 0xB0 PUSH24 0xF8E20B0BE73F62943D4F608F857446A3D22A77771047A40D 0xE3 0x49 DUP1 0xC8 0xC1 PUSH5 0x736F6C6343 STOP ADDMOD SLT STOP CALLER "
				},
				"gasEstimates": {
					"creation": {
						"codeDepositCost": "1277400",
						"executionCost": "6343",
						"totalCost": "1283743"
					},
					"external": {
						"addCrop(string,uint256,uint256)": "infinite",
						"cropCount()": "2495",
						"crops(uint256)": "infinite",
						"distributeCrop(uint256,address,address,address,address)": "infinite",
						"getCrop(uint256)": "infinite",
						"getFreshness(uint256)": "infinite",
						"updateCrop(uint256,uint256,uint256)": "infinite"
					}
				},
				"methodIdentifiers": {
					"addCrop(string,uint256,uint256)": "6c662918",
					"cropCount()": "dfd55a2c",
					"crops(uint256)": "70c9f1a5",
					"distributeCrop(uint256,address,address,address,address)": "92e7aa38",
					"getCrop(uint256)": "8bc7fa9c",
					"getFreshness(uint256)": "4e3c5452",
					"updateCrop(uint256,uint256,uint256)": "32780856"
				}
			},
			"storageLayout": {
				"storage": [
					{
						"astId": 27,
						"contract": "CropSupplyChain.sol:CropSupplyChain",
						"label": "crops",
						"offset": 0,
						"slot": "0",
						"type": "t_mapping(t_uint256,t_struct(Crop)22_storage)"
					},
					{
						"astId": 29,
						"contract": "CropSupplyChain.sol:CropSupplyChain",
						"label": "cropCount",
						"offset": 0,
						"slot": "1",
						"type": "t_uint256"
					}
				],
				"types": {
					"t_address": {
						"encoding": "inplace",
						"label": "address",
						"numberOfBytes": "20"
					},
					"t_mapping(t_uint256,t_struct(Crop)22_storage)": {
						"encoding": "mapping",
						"key": "t_uint256",
						"label": "mapping(uint256 => struct CropSupplyChain.Crop)",
						"numberOfBytes": "32",
						"value": "t_struct(Crop)22_storage"
					},
					"t_string_storage": {
						"encoding": "bytes",
						"label": "string",
						"numberOfBytes": "32"
					},
					"t_struct(Crop)22_storage": {
						"encoding": "inplace",
						"label": "struct CropSupplyChain.Crop",
						"members": [
							{
								"astId": 3,
								"contract": "CropSupplyChain.sol:CropSupplyChain",
								"label": "id",
								"offset": 0,
								"slot": "0",
								"type": "t_uint256"
							},
							{
								"astId": 5,
								"contract": "CropSupplyChain.sol:CropSupplyChain",
								"label": "name",
								"offset": 0,
								"slot": "1",
								"type": "t_string_storage"
							},
							{
								"astId": 7,
								"contract": "CropSupplyChain.sol:CropSupplyChain",
								"label": "quantity",
								"offset": 0,
								"slot": "2",
								"type": "t_uint256"
							},
							{
								"astId": 9,
								"contract": "CropSupplyChain.sol:CropSupplyChain",
								"label": "lifespan",
								"offset": 0,
								"slot": "3",
								"type": "t_uint256"
							},
							{
								"astId": 11,
								"contract": "CropSupplyChain.sol:CropSupplyChain",
								"label": "timestamp",
								"offset": 0,
								"slot": "4",
								"type": "t_uint256"
							},
							{
								"astId": 13,
								"contract": "CropSupplyChain.sol:CropSupplyChain",
								"label": "farmer",
								"offset": 0,
								"slot": "5",
								"type": "t_address"
							},
							{
								"astId": 15,
								"contract": "CropSupplyChain.sol:CropSupplyChain",
								"label": "distributor",
								"offset": 0,
								"slot": "6",
								"type": "t_address"
							},
							{
								"astId": 17,
								"contract": "CropSupplyChain.sol:CropSupplyChain",
								"label": "wholesaler",
								"offset": 0,
								"slot": "7",
								"type": "t_address"
							},
							{
								"astId": 19,
								"contract": "CropSupplyChain.sol:CropSupplyChain",
								"label": "shopkeeper",
								"offset": 0,
								"slot": "8",
								"type": "t_address"
							},
							{
								"astId": 21,
								"contract": "CropSupplyChain.sol:CropSupplyChain",
								"label": "consumer",
								"offset": 0,
								"slot": "9",
								"type": "t_address"
							}
						],
						"numberOfBytes": "320"
					},
					"t_uint256": {
						"encoding": "inplace",
						"label": "uint256",
						"numberOfBytes": "32"
					}
				}
			},
			"userdoc": {
				"kind": "user",
				"methods": {},
				"version": 1
			}
		}
	}
}